{
	"contracts/lottery.sol": {
		"Lottery": {
			"abi": [
				{
					"inputs": [
						{
							"internalType": "uint256",
							"name": "_endsAfter",
							"type": "uint256"
						},
						{
							"internalType": "uint256",
							"name": "_ticketPrice",
							"type": "uint256"
						}
					],
					"stateMutability": "payable",
					"type": "constructor"
				},
				{
					"anonymous": false,
					"inputs": [
						{
							"indexed": true,
							"internalType": "address",
							"name": "player",
							"type": "address"
						}
					],
					"name": "LotteryEntered",
					"type": "event"
				},
				{
					"stateMutability": "payable",
					"type": "fallback"
				},
				{
					"inputs": [],
					"name": "endsAfter",
					"outputs": [
						{
							"internalType": "uint256",
							"name": "",
							"type": "uint256"
						}
					],
					"stateMutability": "view",
					"type": "function"
				},
				{
					"inputs": [],
					"name": "enter",
					"outputs": [],
					"stateMutability": "payable",
					"type": "function"
				},
				{
					"inputs": [],
					"name": "manager",
					"outputs": [
						{
							"internalType": "address payable",
							"name": "",
							"type": "address"
						}
					],
					"stateMutability": "view",
					"type": "function"
				},
				{
					"inputs": [],
					"name": "pickWinner",
					"outputs": [],
					"stateMutability": "nonpayable",
					"type": "function"
				},
				{
					"inputs": [
						{
							"internalType": "uint256",
							"name": "",
							"type": "uint256"
						}
					],
					"name": "players",
					"outputs": [
						{
							"internalType": "address payable",
							"name": "",
							"type": "address"
						}
					],
					"stateMutability": "view",
					"type": "function"
				},
				{
					"inputs": [],
					"name": "prizePool",
					"outputs": [
						{
							"internalType": "uint256",
							"name": "",
							"type": "uint256"
						}
					],
					"stateMutability": "view",
					"type": "function"
				},
				{
					"inputs": [],
					"name": "ticketPrice",
					"outputs": [
						{
							"internalType": "uint256",
							"name": "",
							"type": "uint256"
						}
					],
					"stateMutability": "view",
					"type": "function"
				},
				{
					"inputs": [],
					"name": "timenow",
					"outputs": [
						{
							"internalType": "uint256",
							"name": "",
							"type": "uint256"
						}
					],
					"stateMutability": "view",
					"type": "function"
				},
				{
					"stateMutability": "payable",
					"type": "receive"
				}
			],
			"devdoc": {
				"kind": "dev",
				"methods": {},
				"version": 1
			},
			"evm": {
				"assembly": "    /* \"contracts/lottery.sol\":201:1697  contract Lottery{... */\n  mstore(0x40, 0x80)\n    /* \"contracts/lottery.sol\":374:375  0 */\n  0x00\n    /* \"contracts/lottery.sol\":350:375  uint public prizePool = 0 */\n  0x04\n  sstore\n    /* \"contracts/lottery.sol\":462:668  constructor(uint _endsAfter, uint _ticketPrice) payable  {... */\n  mload(0x40)\n  sub(codesize, bytecodeSize)\n  dup1\n  bytecodeSize\n  dup4\n  codecopy\n  dup2\n  dup2\n  add\n  0x40\n  mstore\n  dup2\n  add\n  swap1\n  tag_1\n  swap2\n  swap1\n  tag_2\n  jump\t// in\ntag_1:\n    /* \"contracts/lottery.sol\":547:557  msg.sender */\n  caller\n    /* \"contracts/lottery.sol\":529:536  manager */\n  0x00\n  dup1\n    /* \"contracts/lottery.sol\":529:558  manager = payable(msg.sender) */\n  0x0100\n  exp\n  dup2\n  sload\n  dup2\n  0xffffffffffffffffffffffffffffffffffffffff\n  mul\n  not\n  and\n  swap1\n  dup4\n  0xffffffffffffffffffffffffffffffffffffffff\n  and\n  mul\n  or\n  swap1\n  sstore\n  pop\n    /* \"contracts/lottery.sol\":580:590  _endsAfter */\n  dup2\n    /* \"contracts/lottery.sol\":568:577  endsAfter */\n  0x03\n    /* \"contracts/lottery.sol\":568:590  endsAfter = _endsAfter */\n  dup2\n  swap1\n  sstore\n  pop\n    /* \"contracts/lottery.sol\":610:625  block.timestamp */\n  timestamp\n    /* \"contracts/lottery.sol\":600:607  timenow */\n  0x02\n    /* \"contracts/lottery.sol\":600:625  timenow = block.timestamp */\n  dup2\n  swap1\n  sstore\n  pop\n    /* \"contracts/lottery.sol\":649:661  _ticketPrice */\n  dup1\n    /* \"contracts/lottery.sol\":635:646  ticketPrice */\n  0x05\n    /* \"contracts/lottery.sol\":635:661  ticketPrice = _ticketPrice */\n  dup2\n  swap1\n  sstore\n  pop\n    /* \"contracts/lottery.sol\":462:668  constructor(uint _endsAfter, uint _ticketPrice) payable  {... */\n  pop\n  pop\n    /* \"contracts/lottery.sol\":201:1697  contract Lottery{... */\n  jump(tag_5)\n    /* \"#utility.yul\":88:205   */\ntag_7:\n    /* \"#utility.yul\":197:198   */\n  0x00\n    /* \"#utility.yul\":194:195   */\n  dup1\n    /* \"#utility.yul\":187:199   */\n  revert\n    /* \"#utility.yul\":334:411   */\ntag_9:\n    /* \"#utility.yul\":371:378   */\n  0x00\n    /* \"#utility.yul\":400:405   */\n  dup2\n    /* \"#utility.yul\":389:405   */\n  swap1\n  pop\n    /* \"#utility.yul\":334:411   */\n  swap2\n  swap1\n  pop\n  jump\t// out\n    /* \"#utility.yul\":417:539   */\ntag_10:\n    /* \"#utility.yul\":490:514   */\n  tag_18\n    /* \"#utility.yul\":508:513   */\n  dup2\n    /* \"#utility.yul\":490:514   */\n  tag_9\n  jump\t// in\ntag_18:\n    /* \"#utility.yul\":483:488   */\n  dup2\n    /* \"#utility.yul\":480:515   */\n  eq\n    /* \"#utility.yul\":470:533   */\n  tag_19\n  jumpi\n    /* \"#utility.yul\":529:530   */\n  0x00\n    /* \"#utility.yul\":526:527   */\n  dup1\n    /* \"#utility.yul\":519:531   */\n  revert\n    /* \"#utility.yul\":470:533   */\ntag_19:\n    /* \"#utility.yul\":417:539   */\n  pop\n  jump\t// out\n    /* \"#utility.yul\":545:688   */\ntag_11:\n    /* \"#utility.yul\":602:607   */\n  0x00\n    /* \"#utility.yul\":633:639   */\n  dup2\n    /* \"#utility.yul\":627:640   */\n  mload\n    /* \"#utility.yul\":618:640   */\n  swap1\n  pop\n    /* \"#utility.yul\":649:682   */\n  tag_21\n    /* \"#utility.yul\":676:681   */\n  dup2\n    /* \"#utility.yul\":649:682   */\n  tag_10\n  jump\t// in\ntag_21:\n    /* \"#utility.yul\":545:688   */\n  swap3\n  swap2\n  pop\n  pop\n  jump\t// out\n    /* \"#utility.yul\":694:1201   */\ntag_2:\n    /* \"#utility.yul\":773:779   */\n  0x00\n    /* \"#utility.yul\":781:787   */\n  dup1\n    /* \"#utility.yul\":830:832   */\n  0x40\n    /* \"#utility.yul\":818:827   */\n  dup4\n    /* \"#utility.yul\":809:816   */\n  dup6\n    /* \"#utility.yul\":805:828   */\n  sub\n    /* \"#utility.yul\":801:833   */\n  slt\n    /* \"#utility.yul\":798:917   */\n  iszero\n  tag_23\n  jumpi\n    /* \"#utility.yul\":836:915   */\n  tag_24\n  tag_7\n  jump\t// in\ntag_24:\n    /* \"#utility.yul\":798:917   */\ntag_23:\n    /* \"#utility.yul\":956:957   */\n  0x00\n    /* \"#utility.yul\":981:1045   */\n  tag_25\n    /* \"#utility.yul\":1037:1044   */\n  dup6\n    /* \"#utility.yul\":1028:1034   */\n  dup3\n    /* \"#utility.yul\":1017:1026   */\n  dup7\n    /* \"#utility.yul\":1013:1035   */\n  add\n    /* \"#utility.yul\":981:1045   */\n  tag_11\n  jump\t// in\ntag_25:\n    /* \"#utility.yul\":971:1045   */\n  swap3\n  pop\n    /* \"#utility.yul\":927:1055   */\n  pop\n    /* \"#utility.yul\":1094:1096   */\n  0x20\n    /* \"#utility.yul\":1120:1184   */\n  tag_26\n    /* \"#utility.yul\":1176:1183   */\n  dup6\n    /* \"#utility.yul\":1167:1173   */\n  dup3\n    /* \"#utility.yul\":1156:1165   */\n  dup7\n    /* \"#utility.yul\":1152:1174   */\n  add\n    /* \"#utility.yul\":1120:1184   */\n  tag_11\n  jump\t// in\ntag_26:\n    /* \"#utility.yul\":1110:1184   */\n  swap2\n  pop\n    /* \"#utility.yul\":1065:1194   */\n  pop\n    /* \"#utility.yul\":694:1201   */\n  swap3\n  pop\n  swap3\n  swap1\n  pop\n  jump\t// out\n    /* \"contracts/lottery.sol\":201:1697  contract Lottery{... */\ntag_5:\n  dataSize(sub_0)\n  dup1\n  dataOffset(sub_0)\n  0x00\n  codecopy\n  0x00\n  return\nstop\n\nsub_0: assembly {\n        /* \"contracts/lottery.sol\":201:1697  contract Lottery{... */\n      mstore(0x40, 0x80)\n      jumpi(tag_1, lt(calldatasize, 0x04))\n      shr(0xe0, calldataload(0x00))\n      dup1\n      0x719ce73e\n      gt\n      tag_11\n      jumpi\n      dup1\n      0x719ce73e\n      eq\n      tag_7\n      jumpi\n      dup1\n      0xe8917e2a\n      eq\n      tag_8\n      jumpi\n      dup1\n      0xe97dcb62\n      eq\n      tag_9\n      jumpi\n      dup1\n      0xf71d96cb\n      eq\n      tag_10\n      jumpi\n      jump(tag_2)\n    tag_11:\n      dup1\n      0x1209b1f6\n      eq\n      tag_3\n      jumpi\n      dup1\n      0x3fae1928\n      eq\n      tag_4\n      jumpi\n      dup1\n      0x481c6a75\n      eq\n      tag_5\n      jumpi\n      dup1\n      0x5d495aea\n      eq\n      tag_6\n      jumpi\n      jump(tag_2)\n    tag_1:\n      jumpi(tag_2, calldatasize)\n        /* \"contracts/lottery.sol\":773:785  pickWinner() */\n      tag_14\n        /* \"contracts/lottery.sol\":773:783  pickWinner */\n      tag_15\n        /* \"contracts/lottery.sol\":773:785  pickWinner() */\n      jump\t// in\n    tag_14:\n        /* \"contracts/lottery.sol\":201:1697  contract Lottery{... */\n      stop\n    tag_2:\n        /* \"contracts/lottery.sol\":712:724  pickWinner() */\n      tag_18\n        /* \"contracts/lottery.sol\":712:722  pickWinner */\n      tag_15\n        /* \"contracts/lottery.sol\":712:724  pickWinner() */\n      jump\t// in\n    tag_18:\n        /* \"contracts/lottery.sol\":201:1697  contract Lottery{... */\n      stop\n        /* \"contracts/lottery.sol\":381:404  uint public ticketPrice */\n    tag_3:\n      callvalue\n      dup1\n      iszero\n      tag_19\n      jumpi\n      0x00\n      dup1\n      revert\n    tag_19:\n      pop\n      tag_20\n      tag_21\n      jump\t// in\n    tag_20:\n      mload(0x40)\n      tag_22\n      swap2\n      swap1\n      tag_23\n      jump\t// in\n    tag_22:\n      mload(0x40)\n      dup1\n      swap2\n      sub\n      swap1\n      return\n        /* \"contracts/lottery.sol\":298:317  uint public timenow */\n    tag_4:\n      callvalue\n      dup1\n      iszero\n      tag_24\n      jumpi\n      0x00\n      dup1\n      revert\n    tag_24:\n      pop\n      tag_25\n      tag_26\n      jump\t// in\n    tag_25:\n      mload(0x40)\n      tag_27\n      swap2\n      swap1\n      tag_23\n      jump\t// in\n    tag_27:\n      mload(0x40)\n      dup1\n      swap2\n      sub\n      swap1\n      return\n        /* \"contracts/lottery.sol\":223:254  address payable  public manager */\n    tag_5:\n      callvalue\n      dup1\n      iszero\n      tag_28\n      jumpi\n      0x00\n      dup1\n      revert\n    tag_28:\n      pop\n      tag_29\n      tag_30\n      jump\t// in\n    tag_29:\n      mload(0x40)\n      tag_31\n      swap2\n      swap1\n      tag_32\n      jump\t// in\n    tag_31:\n      mload(0x40)\n      dup1\n      swap2\n      sub\n      swap1\n      return\n        /* \"contracts/lottery.sol\":1258:1695  function pickWinner() public onlyOwner {... */\n    tag_6:\n      callvalue\n      dup1\n      iszero\n      tag_33\n      jumpi\n      0x00\n      dup1\n      revert\n    tag_33:\n      pop\n      tag_34\n      tag_15\n      jump\t// in\n    tag_34:\n      stop\n        /* \"contracts/lottery.sol\":350:375  uint public prizePool = 0 */\n    tag_7:\n      callvalue\n      dup1\n      iszero\n      tag_35\n      jumpi\n      0x00\n      dup1\n      revert\n    tag_35:\n      pop\n      tag_36\n      tag_37\n      jump\t// in\n    tag_36:\n      mload(0x40)\n      tag_38\n      swap2\n      swap1\n      tag_23\n      jump\t// in\n    tag_38:\n      mload(0x40)\n      dup1\n      swap2\n      sub\n      swap1\n      return\n        /* \"contracts/lottery.sol\":323:344  uint public endsAfter */\n    tag_8:\n      callvalue\n      dup1\n      iszero\n      tag_39\n      jumpi\n      0x00\n      dup1\n      revert\n    tag_39:\n      pop\n      tag_40\n      tag_41\n      jump\t// in\n    tag_40:\n      mload(0x40)\n      tag_42\n      swap2\n      swap1\n      tag_23\n      jump\t// in\n    tag_42:\n      mload(0x40)\n      dup1\n      swap2\n      sub\n      swap1\n      return\n        /* \"contracts/lottery.sol\":882:1101  function enter() public payable {... */\n    tag_9:\n      tag_43\n      tag_44\n      jump\t// in\n    tag_43:\n      stop\n        /* \"contracts/lottery.sol\":260:292  address payable[] public players */\n    tag_10:\n      callvalue\n      dup1\n      iszero\n      tag_45\n      jumpi\n      0x00\n      dup1\n      revert\n    tag_45:\n      pop\n      tag_46\n      0x04\n      dup1\n      calldatasize\n      sub\n      dup2\n      add\n      swap1\n      tag_47\n      swap2\n      swap1\n      tag_48\n      jump\t// in\n    tag_47:\n      tag_49\n      jump\t// in\n    tag_46:\n      mload(0x40)\n      tag_50\n      swap2\n      swap1\n      tag_32\n      jump\t// in\n    tag_50:\n      mload(0x40)\n      dup1\n      swap2\n      sub\n      swap1\n      return\n        /* \"contracts/lottery.sol\":1258:1695  function pickWinner() public onlyOwner {... */\n    tag_15:\n        /* \"contracts/lottery.sol\":850:857  manager */\n      0x00\n      dup1\n      sload\n      swap1\n      0x0100\n      exp\n      swap1\n      div\n      0xffffffffffffffffffffffffffffffffffffffff\n      and\n        /* \"contracts/lottery.sol\":836:857  msg.sender == manager */\n      0xffffffffffffffffffffffffffffffffffffffff\n      and\n        /* \"contracts/lottery.sol\":836:846  msg.sender */\n      caller\n        /* \"contracts/lottery.sol\":836:857  msg.sender == manager */\n      0xffffffffffffffffffffffffffffffffffffffff\n      and\n      eq\n        /* \"contracts/lottery.sol\":828:858  require(msg.sender == manager) */\n      tag_52\n      jumpi\n      0x00\n      dup1\n      revert\n    tag_52:\n        /* \"contracts/lottery.sol\":1330:1331  0 */\n      0x00\n        /* \"contracts/lottery.sol\":1315:1322  players */\n      0x01\n        /* \"contracts/lottery.sol\":1315:1329  players.length */\n      dup1\n      sload\n      swap1\n      pop\n        /* \"contracts/lottery.sol\":1315:1331  players.length>0 */\n      gt\n        /* \"contracts/lottery.sol\":1307:1354  require(players.length>0, \"Not enough players\") */\n      tag_54\n      jumpi\n      mload(0x40)\n      0x08c379a000000000000000000000000000000000000000000000000000000000\n      dup2\n      mstore\n      0x04\n      add\n      tag_55\n      swap1\n      tag_56\n      jump\t// in\n    tag_55:\n      mload(0x40)\n      dup1\n      swap2\n      sub\n      swap1\n      revert\n    tag_54:\n        /* \"contracts/lottery.sol\":1400:1409  endsAfter */\n      sload(0x03)\n        /* \"contracts/lottery.sol\":1390:1397  timenow */\n      sload(0x02)\n        /* \"contracts/lottery.sol\":1372:1387  block.timestamp */\n      timestamp\n        /* \"contracts/lottery.sol\":1372:1397  block.timestamp - timenow */\n      tag_57\n      swap2\n      swap1\n      tag_58\n      jump\t// in\n    tag_57:\n        /* \"contracts/lottery.sol\":1372:1409  block.timestamp - timenow >=endsAfter */\n      lt\n      iszero\n        /* \"contracts/lottery.sol\":1364:1438  require(block.timestamp - timenow >=endsAfter, \"Lottery is still running\") */\n      tag_59\n      jumpi\n      mload(0x40)\n      0x08c379a000000000000000000000000000000000000000000000000000000000\n      dup2\n      mstore\n      0x04\n      add\n      tag_60\n      swap1\n      tag_61\n      jump\t// in\n    tag_60:\n      mload(0x40)\n      dup1\n      swap2\n      sub\n      swap1\n      revert\n    tag_59:\n        /* \"contracts/lottery.sol\":1448:1467  uint256 winnerIndex */\n      0x00\n        /* \"contracts/lottery.sol\":1481:1488  players */\n      0x01\n        /* \"contracts/lottery.sol\":1481:1495  players.length */\n      dup1\n      sload\n      swap1\n      pop\n        /* \"contracts/lottery.sol\":1470:1478  random() */\n      tag_62\n        /* \"contracts/lottery.sol\":1470:1476  random */\n      tag_63\n        /* \"contracts/lottery.sol\":1470:1478  random() */\n      jump\t// in\n    tag_62:\n        /* \"contracts/lottery.sol\":1470:1495  random() % players.length */\n      tag_64\n      swap2\n      swap1\n      tag_65\n      jump\t// in\n    tag_64:\n        /* \"contracts/lottery.sol\":1448:1495  uint256 winnerIndex = random() % players.length */\n      swap1\n      pop\n        /* \"contracts/lottery.sol\":1505:1527  address payable winner */\n      0x00\n        /* \"contracts/lottery.sol\":1530:1537  players */\n      0x01\n        /* \"contracts/lottery.sol\":1538:1549  winnerIndex */\n      dup3\n        /* \"contracts/lottery.sol\":1530:1550  players[winnerIndex] */\n      dup2\n      sload\n      dup2\n      lt\n      tag_66\n      jumpi\n      tag_67\n      tag_68\n      jump\t// in\n    tag_67:\n    tag_66:\n      swap1\n      0x00\n      mstore\n      keccak256(0x00, 0x20)\n      add\n      0x00\n      swap1\n      sload\n      swap1\n      0x0100\n      exp\n      swap1\n      div\n      0xffffffffffffffffffffffffffffffffffffffff\n      and\n        /* \"contracts/lottery.sol\":1505:1550  address payable winner = players[winnerIndex] */\n      swap1\n      pop\n        /* \"contracts/lottery.sol\":1560:1566  winner */\n      dup1\n        /* \"contracts/lottery.sol\":1560:1575  winner.transfer */\n      0xffffffffffffffffffffffffffffffffffffffff\n      and\n        /* \"contracts/lottery.sol\":1560:1586  winner.transfer(prizePool) */\n      0x08fc\n        /* \"contracts/lottery.sol\":1576:1585  prizePool */\n      sload(0x04)\n        /* \"contracts/lottery.sol\":1560:1586  winner.transfer(prizePool) */\n      swap1\n      dup2\n      iszero\n      mul\n      swap1\n      mload(0x40)\n      0x00\n      mload(0x40)\n      dup1\n      dup4\n      sub\n      dup2\n      dup6\n      dup9\n      dup9\n      call\n      swap4\n      pop\n      pop\n      pop\n      pop\n      iszero\n      dup1\n      iszero\n      tag_71\n      jumpi\n      returndatasize\n      0x00\n      dup1\n      returndatacopy\n      revert(0x00, returndatasize)\n    tag_71:\n      pop\n        /* \"contracts/lottery.sol\":1628:1629  0 */\n      0x00\n        /* \"contracts/lottery.sol\":1606:1630  new address payable[](0) */\n      0xffffffffffffffff\n      dup2\n      gt\n      iszero\n      tag_72\n      jumpi\n      tag_73\n      tag_74\n      jump\t// in\n    tag_73:\n    tag_72:\n      mload(0x40)\n      swap1\n      dup1\n      dup3\n      mstore\n      dup1\n      0x20\n      mul\n      0x20\n      add\n      dup3\n      add\n      0x40\n      mstore\n      dup1\n      iszero\n      tag_75\n      jumpi\n      dup2\n      0x20\n      add\n      0x20\n      dup3\n      mul\n      dup1\n      calldatasize\n      dup4\n      calldatacopy\n      dup1\n      dup3\n      add\n      swap2\n      pop\n      pop\n      swap1\n      pop\n    tag_75:\n      pop\n        /* \"contracts/lottery.sol\":1596:1603  players */\n      0x01\n        /* \"contracts/lottery.sol\":1596:1630  players = new address payable[](0) */\n      swap1\n      dup1\n      mload\n      swap1\n      0x20\n      add\n      swap1\n      tag_76\n      swap3\n      swap2\n      swap1\n      tag_77\n      jump\t// in\n    tag_76:\n      pop\n        /* \"contracts/lottery.sol\":1650:1665  block.timestamp */\n      timestamp\n        /* \"contracts/lottery.sol\":1640:1647  timenow */\n      0x02\n        /* \"contracts/lottery.sol\":1640:1665  timenow = block.timestamp */\n      dup2\n      swap1\n      sstore\n      pop\n        /* \"contracts/lottery.sol\":1687:1688  0 */\n      0x00\n        /* \"contracts/lottery.sol\":1675:1684  prizePool */\n      0x04\n        /* \"contracts/lottery.sol\":1675:1688  prizePool = 0 */\n      dup2\n      swap1\n      sstore\n      pop\n        /* \"contracts/lottery.sol\":1297:1695  {... */\n      pop\n      pop\n        /* \"contracts/lottery.sol\":1258:1695  function pickWinner() public onlyOwner {... */\n      jump\t// out\n        /* \"contracts/lottery.sol\":381:404  uint public ticketPrice */\n    tag_21:\n      sload(0x05)\n      dup2\n      jump\t// out\n        /* \"contracts/lottery.sol\":298:317  uint public timenow */\n    tag_26:\n      sload(0x02)\n      dup2\n      jump\t// out\n        /* \"contracts/lottery.sol\":223:254  address payable  public manager */\n    tag_30:\n      0x00\n      dup1\n      sload\n      swap1\n      0x0100\n      exp\n      swap1\n      div\n      0xffffffffffffffffffffffffffffffffffffffff\n      and\n      dup2\n      jump\t// out\n        /* \"contracts/lottery.sol\":350:375  uint public prizePool = 0 */\n    tag_37:\n      sload(0x04)\n      dup2\n      jump\t// out\n        /* \"contracts/lottery.sol\":323:344  uint public endsAfter */\n    tag_41:\n      sload(0x03)\n      dup2\n      jump\t// out\n        /* \"contracts/lottery.sol\":882:1101  function enter() public payable {... */\n    tag_44:\n        /* \"contracts/lottery.sol\":945:956  ticketPrice */\n      sload(0x05)\n        /* \"contracts/lottery.sol\":932:941  msg.value */\n      callvalue\n        /* \"contracts/lottery.sol\":932:956  msg.value >= ticketPrice */\n      lt\n      iszero\n        /* \"contracts/lottery.sol\":924:978  require(msg.value >= ticketPrice, \"Incorrect ammount\") */\n      tag_79\n      jumpi\n      mload(0x40)\n      0x08c379a000000000000000000000000000000000000000000000000000000000\n      dup2\n      mstore\n      0x04\n      add\n      tag_80\n      swap1\n      tag_81\n      jump\t// in\n    tag_80:\n      mload(0x40)\n      dup1\n      swap2\n      sub\n      swap1\n      revert\n    tag_79:\n        /* \"contracts/lottery.sol\":988:995  players */\n      0x01\n        /* \"contracts/lottery.sol\":1009:1019  msg.sender */\n      caller\n        /* \"contracts/lottery.sol\":988:1021  players.push(payable(msg.sender)) */\n      swap1\n      dup1\n      0x01\n      dup2\n      sload\n      add\n      dup1\n      dup3\n      sstore\n      dup1\n      swap2\n      pop\n      pop\n      0x01\n      swap1\n      sub\n      swap1\n      0x00\n      mstore\n      keccak256(0x00, 0x20)\n      add\n      0x00\n      swap1\n      swap2\n      swap1\n      swap2\n      swap1\n      swap2\n      0x0100\n      exp\n      dup2\n      sload\n      dup2\n      0xffffffffffffffffffffffffffffffffffffffff\n      mul\n      not\n      and\n      swap1\n      dup4\n      0xffffffffffffffffffffffffffffffffffffffff\n      and\n      mul\n      or\n      swap1\n      sstore\n      pop\n        /* \"contracts/lottery.sol\":1044:1053  msg.value */\n      callvalue\n        /* \"contracts/lottery.sol\":1031:1040  prizePool */\n      0x04\n      0x00\n        /* \"contracts/lottery.sol\":1031:1053  prizePool += msg.value */\n      dup3\n      dup3\n      sload\n      tag_83\n      swap2\n      swap1\n      tag_84\n      jump\t// in\n    tag_83:\n      swap3\n      pop\n      pop\n      dup2\n      swap1\n      sstore\n      pop\n        /* \"contracts/lottery.sol\":1083:1093  msg.sender */\n      caller\n        /* \"contracts/lottery.sol\":1068:1094  LotteryEntered(msg.sender) */\n      0xffffffffffffffffffffffffffffffffffffffff\n      and\n      0x4c72b57c1ca715219cf2c7be9edc8a3ea19dfb9a76fb7a05e2a8062a027ee970\n      mload(0x40)\n      mload(0x40)\n      dup1\n      swap2\n      sub\n      swap1\n      log2\n        /* \"contracts/lottery.sol\":882:1101  function enter() public payable {... */\n      jump\t// out\n        /* \"contracts/lottery.sol\":260:292  address payable[] public players */\n    tag_49:\n      0x01\n      dup2\n      dup2\n      sload\n      dup2\n      lt\n      tag_85\n      jumpi\n      0x00\n      dup1\n      revert\n    tag_85:\n      swap1\n      0x00\n      mstore\n      keccak256(0x00, 0x20)\n      add\n      0x00\n      swap2\n      pop\n      sload\n      swap1\n      0x0100\n      exp\n      swap1\n      div\n      0xffffffffffffffffffffffffffffffffffffffff\n      and\n      dup2\n      jump\t// out\n        /* \"contracts/lottery.sol\":1107:1252  function random() private view returns (uint){... */\n    tag_63:\n        /* \"contracts/lottery.sol\":1147:1151  uint */\n      0x00\n        /* \"contracts/lottery.sol\":1201:1216  block.timestamp */\n      timestamp\n        /* \"contracts/lottery.sol\":1218:1228  msg.sender */\n      caller\n        /* \"contracts/lottery.sol\":1230:1242  block.number */\n      number\n        /* \"contracts/lottery.sol\":1184:1243  abi.encodePacked(block.timestamp, msg.sender, block.number) */\n      add(0x20, mload(0x40))\n      tag_88\n      swap4\n      swap3\n      swap2\n      swap1\n      tag_89\n      jump\t// in\n    tag_88:\n      mload(0x40)\n      0x20\n      dup2\n      dup4\n      sub\n      sub\n      dup2\n      mstore\n      swap1\n      0x40\n      mstore\n        /* \"contracts/lottery.sol\":1174:1244  keccak256(abi.encodePacked(block.timestamp, msg.sender, block.number)) */\n      dup1\n      mload\n      swap1\n      0x20\n      add\n      keccak256\n        /* \"contracts/lottery.sol\":1169:1245  uint(keccak256(abi.encodePacked(block.timestamp, msg.sender, block.number))) */\n      0x00\n      shr\n        /* \"contracts/lottery.sol\":1162:1245  return uint(keccak256(abi.encodePacked(block.timestamp, msg.sender, block.number))) */\n      swap1\n      pop\n        /* \"contracts/lottery.sol\":1107:1252  function random() private view returns (uint){... */\n      swap1\n      jump\t// out\n    tag_77:\n      dup3\n      dup1\n      sload\n      dup3\n      dup3\n      sstore\n      swap1\n      0x00\n      mstore\n      keccak256(0x00, 0x20)\n      swap1\n      dup2\n      add\n      swap3\n      dup3\n      iszero\n      tag_90\n      jumpi\n      swap2\n      0x20\n      mul\n      dup3\n      add\n    tag_91:\n      dup3\n      dup2\n      gt\n      iszero\n      tag_92\n      jumpi\n      dup3\n      mload\n      dup3\n      exp(0x0100, 0x00)\n      dup2\n      sload\n      dup2\n      0xffffffffffffffffffffffffffffffffffffffff\n      mul\n      not\n      and\n      swap1\n      dup4\n      0xffffffffffffffffffffffffffffffffffffffff\n      and\n      mul\n      or\n      swap1\n      sstore\n      pop\n      swap2\n      0x20\n      add\n      swap2\n      swap1\n      0x01\n      add\n      swap1\n      jump(tag_91)\n    tag_92:\n    tag_90:\n      pop\n      swap1\n      pop\n      tag_93\n      swap2\n      swap1\n      tag_94\n      jump\t// in\n    tag_93:\n      pop\n      swap1\n      jump\t// out\n    tag_94:\n    tag_95:\n      dup1\n      dup3\n      gt\n      iszero\n      tag_96\n      jumpi\n      0x00\n      dup2\n      0x00\n      swap1\n      sstore\n      pop\n      0x01\n      add\n      jump(tag_95)\n    tag_96:\n      pop\n      swap1\n      jump\t// out\n        /* \"#utility.yul\":7:84   */\n    tag_97:\n        /* \"#utility.yul\":44:51   */\n      0x00\n        /* \"#utility.yul\":73:78   */\n      dup2\n        /* \"#utility.yul\":62:78   */\n      swap1\n      pop\n        /* \"#utility.yul\":7:84   */\n      swap2\n      swap1\n      pop\n      jump\t// out\n        /* \"#utility.yul\":90:208   */\n    tag_98:\n        /* \"#utility.yul\":177:201   */\n      tag_126\n        /* \"#utility.yul\":195:200   */\n      dup2\n        /* \"#utility.yul\":177:201   */\n      tag_97\n      jump\t// in\n    tag_126:\n        /* \"#utility.yul\":172:175   */\n      dup3\n        /* \"#utility.yul\":165:202   */\n      mstore\n        /* \"#utility.yul\":90:208   */\n      pop\n      pop\n      jump\t// out\n        /* \"#utility.yul\":214:436   */\n    tag_23:\n        /* \"#utility.yul\":307:311   */\n      0x00\n        /* \"#utility.yul\":345:347   */\n      0x20\n        /* \"#utility.yul\":334:343   */\n      dup3\n        /* \"#utility.yul\":330:348   */\n      add\n        /* \"#utility.yul\":322:348   */\n      swap1\n      pop\n        /* \"#utility.yul\":358:429   */\n      tag_128\n        /* \"#utility.yul\":426:427   */\n      0x00\n        /* \"#utility.yul\":415:424   */\n      dup4\n        /* \"#utility.yul\":411:428   */\n      add\n        /* \"#utility.yul\":402:408   */\n      dup5\n        /* \"#utility.yul\":358:429   */\n      tag_98\n      jump\t// in\n    tag_128:\n        /* \"#utility.yul\":214:436   */\n      swap3\n      swap2\n      pop\n      pop\n      jump\t// out\n        /* \"#utility.yul\":442:568   */\n    tag_99:\n        /* \"#utility.yul\":479:486   */\n      0x00\n        /* \"#utility.yul\":519:561   */\n      0xffffffffffffffffffffffffffffffffffffffff\n        /* \"#utility.yul\":512:517   */\n      dup3\n        /* \"#utility.yul\":508:562   */\n      and\n        /* \"#utility.yul\":497:562   */\n      swap1\n      pop\n        /* \"#utility.yul\":442:568   */\n      swap2\n      swap1\n      pop\n      jump\t// out\n        /* \"#utility.yul\":574:678   */\n    tag_100:\n        /* \"#utility.yul\":619:626   */\n      0x00\n        /* \"#utility.yul\":648:672   */\n      tag_131\n        /* \"#utility.yul\":666:671   */\n      dup3\n        /* \"#utility.yul\":648:672   */\n      tag_99\n      jump\t// in\n    tag_131:\n        /* \"#utility.yul\":637:672   */\n      swap1\n      pop\n        /* \"#utility.yul\":574:678   */\n      swap2\n      swap1\n      pop\n      jump\t// out\n        /* \"#utility.yul\":684:826   */\n    tag_101:\n        /* \"#utility.yul\":787:819   */\n      tag_133\n        /* \"#utility.yul\":813:818   */\n      dup2\n        /* \"#utility.yul\":787:819   */\n      tag_100\n      jump\t// in\n    tag_133:\n        /* \"#utility.yul\":782:785   */\n      dup3\n        /* \"#utility.yul\":775:820   */\n      mstore\n        /* \"#utility.yul\":684:826   */\n      pop\n      pop\n      jump\t// out\n        /* \"#utility.yul\":832:1086   */\n    tag_32:\n        /* \"#utility.yul\":941:945   */\n      0x00\n        /* \"#utility.yul\":979:981   */\n      0x20\n        /* \"#utility.yul\":968:977   */\n      dup3\n        /* \"#utility.yul\":964:982   */\n      add\n        /* \"#utility.yul\":956:982   */\n      swap1\n      pop\n        /* \"#utility.yul\":992:1079   */\n      tag_135\n        /* \"#utility.yul\":1076:1077   */\n      0x00\n        /* \"#utility.yul\":1065:1074   */\n      dup4\n        /* \"#utility.yul\":1061:1078   */\n      add\n        /* \"#utility.yul\":1052:1058   */\n      dup5\n        /* \"#utility.yul\":992:1079   */\n      tag_101\n      jump\t// in\n    tag_135:\n        /* \"#utility.yul\":832:1086   */\n      swap3\n      swap2\n      pop\n      pop\n      jump\t// out\n        /* \"#utility.yul\":1173:1290   */\n    tag_103:\n        /* \"#utility.yul\":1282:1283   */\n      0x00\n        /* \"#utility.yul\":1279:1280   */\n      dup1\n        /* \"#utility.yul\":1272:1284   */\n      revert\n        /* \"#utility.yul\":1419:1541   */\n    tag_105:\n        /* \"#utility.yul\":1492:1516   */\n      tag_140\n        /* \"#utility.yul\":1510:1515   */\n      dup2\n        /* \"#utility.yul\":1492:1516   */\n      tag_97\n      jump\t// in\n    tag_140:\n        /* \"#utility.yul\":1485:1490   */\n      dup2\n        /* \"#utility.yul\":1482:1517   */\n      eq\n        /* \"#utility.yul\":1472:1535   */\n      tag_141\n      jumpi\n        /* \"#utility.yul\":1531:1532   */\n      0x00\n        /* \"#utility.yul\":1528:1529   */\n      dup1\n        /* \"#utility.yul\":1521:1533   */\n      revert\n        /* \"#utility.yul\":1472:1535   */\n    tag_141:\n        /* \"#utility.yul\":1419:1541   */\n      pop\n      jump\t// out\n        /* \"#utility.yul\":1547:1686   */\n    tag_106:\n        /* \"#utility.yul\":1593:1598   */\n      0x00\n        /* \"#utility.yul\":1631:1637   */\n      dup2\n        /* \"#utility.yul\":1618:1638   */\n      calldataload\n        /* \"#utility.yul\":1609:1638   */\n      swap1\n      pop\n        /* \"#utility.yul\":1647:1680   */\n      tag_143\n        /* \"#utility.yul\":1674:1679   */\n      dup2\n        /* \"#utility.yul\":1647:1680   */\n      tag_105\n      jump\t// in\n    tag_143:\n        /* \"#utility.yul\":1547:1686   */\n      swap3\n      swap2\n      pop\n      pop\n      jump\t// out\n        /* \"#utility.yul\":1692:2021   */\n    tag_48:\n        /* \"#utility.yul\":1751:1757   */\n      0x00\n        /* \"#utility.yul\":1800:1802   */\n      0x20\n        /* \"#utility.yul\":1788:1797   */\n      dup3\n        /* \"#utility.yul\":1779:1786   */\n      dup5\n        /* \"#utility.yul\":1775:1798   */\n      sub\n        /* \"#utility.yul\":1771:1803   */\n      slt\n        /* \"#utility.yul\":1768:1887   */\n      iszero\n      tag_145\n      jumpi\n        /* \"#utility.yul\":1806:1885   */\n      tag_146\n      tag_103\n      jump\t// in\n    tag_146:\n        /* \"#utility.yul\":1768:1887   */\n    tag_145:\n        /* \"#utility.yul\":1926:1927   */\n      0x00\n        /* \"#utility.yul\":1951:2004   */\n      tag_147\n        /* \"#utility.yul\":1996:2003   */\n      dup5\n        /* \"#utility.yul\":1987:1993   */\n      dup3\n        /* \"#utility.yul\":1976:1985   */\n      dup6\n        /* \"#utility.yul\":1972:1994   */\n      add\n        /* \"#utility.yul\":1951:2004   */\n      tag_106\n      jump\t// in\n    tag_147:\n        /* \"#utility.yul\":1941:2004   */\n      swap2\n      pop\n        /* \"#utility.yul\":1897:2014   */\n      pop\n        /* \"#utility.yul\":1692:2021   */\n      swap3\n      swap2\n      pop\n      pop\n      jump\t// out\n        /* \"#utility.yul\":2027:2196   */\n    tag_107:\n        /* \"#utility.yul\":2111:2122   */\n      0x00\n        /* \"#utility.yul\":2145:2151   */\n      dup3\n        /* \"#utility.yul\":2140:2143   */\n      dup3\n        /* \"#utility.yul\":2133:2152   */\n      mstore\n        /* \"#utility.yul\":2185:2189   */\n      0x20\n        /* \"#utility.yul\":2180:2183   */\n      dup3\n        /* \"#utility.yul\":2176:2190   */\n      add\n        /* \"#utility.yul\":2161:2190   */\n      swap1\n      pop\n        /* \"#utility.yul\":2027:2196   */\n      swap3\n      swap2\n      pop\n      pop\n      jump\t// out\n        /* \"#utility.yul\":2202:2370   */\n    tag_108:\n        /* \"#utility.yul\":2342:2362   */\n      0x4e6f7420656e6f75676820706c61796572730000000000000000000000000000\n        /* \"#utility.yul\":2338:2339   */\n      0x00\n        /* \"#utility.yul\":2330:2336   */\n      dup3\n        /* \"#utility.yul\":2326:2340   */\n      add\n        /* \"#utility.yul\":2319:2363   */\n      mstore\n        /* \"#utility.yul\":2202:2370   */\n      pop\n      jump\t// out\n        /* \"#utility.yul\":2376:2742   */\n    tag_109:\n        /* \"#utility.yul\":2518:2521   */\n      0x00\n        /* \"#utility.yul\":2539:2606   */\n      tag_151\n        /* \"#utility.yul\":2603:2605   */\n      0x12\n        /* \"#utility.yul\":2598:2601   */\n      dup4\n        /* \"#utility.yul\":2539:2606   */\n      tag_107\n      jump\t// in\n    tag_151:\n        /* \"#utility.yul\":2532:2606   */\n      swap2\n      pop\n        /* \"#utility.yul\":2615:2708   */\n      tag_152\n        /* \"#utility.yul\":2704:2707   */\n      dup3\n        /* \"#utility.yul\":2615:2708   */\n      tag_108\n      jump\t// in\n    tag_152:\n        /* \"#utility.yul\":2733:2735   */\n      0x20\n        /* \"#utility.yul\":2728:2731   */\n      dup3\n        /* \"#utility.yul\":2724:2736   */\n      add\n        /* \"#utility.yul\":2717:2736   */\n      swap1\n      pop\n        /* \"#utility.yul\":2376:2742   */\n      swap2\n      swap1\n      pop\n      jump\t// out\n        /* \"#utility.yul\":2748:3167   */\n    tag_56:\n        /* \"#utility.yul\":2914:2918   */\n      0x00\n        /* \"#utility.yul\":2952:2954   */\n      0x20\n        /* \"#utility.yul\":2941:2950   */\n      dup3\n        /* \"#utility.yul\":2937:2955   */\n      add\n        /* \"#utility.yul\":2929:2955   */\n      swap1\n      pop\n        /* \"#utility.yul\":3001:3010   */\n      dup2\n        /* \"#utility.yul\":2995:2999   */\n      dup2\n        /* \"#utility.yul\":2991:3011   */\n      sub\n        /* \"#utility.yul\":2987:2988   */\n      0x00\n        /* \"#utility.yul\":2976:2985   */\n      dup4\n        /* \"#utility.yul\":2972:2989   */\n      add\n        /* \"#utility.yul\":2965:3012   */\n      mstore\n        /* \"#utility.yul\":3029:3160   */\n      tag_154\n        /* \"#utility.yul\":3155:3159   */\n      dup2\n        /* \"#utility.yul\":3029:3160   */\n      tag_109\n      jump\t// in\n    tag_154:\n        /* \"#utility.yul\":3021:3160   */\n      swap1\n      pop\n        /* \"#utility.yul\":2748:3167   */\n      swap2\n      swap1\n      pop\n      jump\t// out\n        /* \"#utility.yul\":3173:3353   */\n    tag_110:\n        /* \"#utility.yul\":3221:3298   */\n      0x4e487b7100000000000000000000000000000000000000000000000000000000\n        /* \"#utility.yul\":3218:3219   */\n      0x00\n        /* \"#utility.yul\":3211:3299   */\n      mstore\n        /* \"#utility.yul\":3318:3322   */\n      0x11\n        /* \"#utility.yul\":3315:3316   */\n      0x04\n        /* \"#utility.yul\":3308:3323   */\n      mstore\n        /* \"#utility.yul\":3342:3346   */\n      0x24\n        /* \"#utility.yul\":3339:3340   */\n      0x00\n        /* \"#utility.yul\":3332:3347   */\n      revert\n        /* \"#utility.yul\":3359:3553   */\n    tag_58:\n        /* \"#utility.yul\":3399:3403   */\n      0x00\n        /* \"#utility.yul\":3419:3439   */\n      tag_157\n        /* \"#utility.yul\":3437:3438   */\n      dup3\n        /* \"#utility.yul\":3419:3439   */\n      tag_97\n      jump\t// in\n    tag_157:\n        /* \"#utility.yul\":3414:3439   */\n      swap2\n      pop\n        /* \"#utility.yul\":3453:3473   */\n      tag_158\n        /* \"#utility.yul\":3471:3472   */\n      dup4\n        /* \"#utility.yul\":3453:3473   */\n      tag_97\n      jump\t// in\n    tag_158:\n        /* \"#utility.yul\":3448:3473   */\n      swap3\n      pop\n        /* \"#utility.yul\":3497:3498   */\n      dup3\n        /* \"#utility.yul\":3494:3495   */\n      dup3\n        /* \"#utility.yul\":3490:3499   */\n      sub\n        /* \"#utility.yul\":3482:3499   */\n      swap1\n      pop\n        /* \"#utility.yul\":3521:3522   */\n      dup2\n        /* \"#utility.yul\":3515:3519   */\n      dup2\n        /* \"#utility.yul\":3512:3523   */\n      gt\n        /* \"#utility.yul\":3509:3546   */\n      iszero\n      tag_159\n      jumpi\n        /* \"#utility.yul\":3526:3544   */\n      tag_160\n      tag_110\n      jump\t// in\n    tag_160:\n        /* \"#utility.yul\":3509:3546   */\n    tag_159:\n        /* \"#utility.yul\":3359:3553   */\n      swap3\n      swap2\n      pop\n      pop\n      jump\t// out\n        /* \"#utility.yul\":3559:3733   */\n    tag_111:\n        /* \"#utility.yul\":3699:3725   */\n      0x4c6f7474657279206973207374696c6c2072756e6e696e670000000000000000\n        /* \"#utility.yul\":3695:3696   */\n      0x00\n        /* \"#utility.yul\":3687:3693   */\n      dup3\n        /* \"#utility.yul\":3683:3697   */\n      add\n        /* \"#utility.yul\":3676:3726   */\n      mstore\n        /* \"#utility.yul\":3559:3733   */\n      pop\n      jump\t// out\n        /* \"#utility.yul\":3739:4105   */\n    tag_112:\n        /* \"#utility.yul\":3881:3884   */\n      0x00\n        /* \"#utility.yul\":3902:3969   */\n      tag_163\n        /* \"#utility.yul\":3966:3968   */\n      0x18\n        /* \"#utility.yul\":3961:3964   */\n      dup4\n        /* \"#utility.yul\":3902:3969   */\n      tag_107\n      jump\t// in\n    tag_163:\n        /* \"#utility.yul\":3895:3969   */\n      swap2\n      pop\n        /* \"#utility.yul\":3978:4071   */\n      tag_164\n        /* \"#utility.yul\":4067:4070   */\n      dup3\n        /* \"#utility.yul\":3978:4071   */\n      tag_111\n      jump\t// in\n    tag_164:\n        /* \"#utility.yul\":4096:4098   */\n      0x20\n        /* \"#utility.yul\":4091:4094   */\n      dup3\n        /* \"#utility.yul\":4087:4099   */\n      add\n        /* \"#utility.yul\":4080:4099   */\n      swap1\n      pop\n        /* \"#utility.yul\":3739:4105   */\n      swap2\n      swap1\n      pop\n      jump\t// out\n        /* \"#utility.yul\":4111:4530   */\n    tag_61:\n        /* \"#utility.yul\":4277:4281   */\n      0x00\n        /* \"#utility.yul\":4315:4317   */\n      0x20\n        /* \"#utility.yul\":4304:4313   */\n      dup3\n        /* \"#utility.yul\":4300:4318   */\n      add\n        /* \"#utility.yul\":4292:4318   */\n      swap1\n      pop\n        /* \"#utility.yul\":4364:4373   */\n      dup2\n        /* \"#utility.yul\":4358:4362   */\n      dup2\n        /* \"#utility.yul\":4354:4374   */\n      sub\n        /* \"#utility.yul\":4350:4351   */\n      0x00\n        /* \"#utility.yul\":4339:4348   */\n      dup4\n        /* \"#utility.yul\":4335:4352   */\n      add\n        /* \"#utility.yul\":4328:4375   */\n      mstore\n        /* \"#utility.yul\":4392:4523   */\n      tag_166\n        /* \"#utility.yul\":4518:4522   */\n      dup2\n        /* \"#utility.yul\":4392:4523   */\n      tag_112\n      jump\t// in\n    tag_166:\n        /* \"#utility.yul\":4384:4523   */\n      swap1\n      pop\n        /* \"#utility.yul\":4111:4530   */\n      swap2\n      swap1\n      pop\n      jump\t// out\n        /* \"#utility.yul\":4536:4716   */\n    tag_113:\n        /* \"#utility.yul\":4584:4661   */\n      0x4e487b7100000000000000000000000000000000000000000000000000000000\n        /* \"#utility.yul\":4581:4582   */\n      0x00\n        /* \"#utility.yul\":4574:4662   */\n      mstore\n        /* \"#utility.yul\":4681:4685   */\n      0x12\n        /* \"#utility.yul\":4678:4679   */\n      0x04\n        /* \"#utility.yul\":4671:4686   */\n      mstore\n        /* \"#utility.yul\":4705:4709   */\n      0x24\n        /* \"#utility.yul\":4702:4703   */\n      0x00\n        /* \"#utility.yul\":4695:4710   */\n      revert\n        /* \"#utility.yul\":4722:4898   */\n    tag_65:\n        /* \"#utility.yul\":4754:4755   */\n      0x00\n        /* \"#utility.yul\":4771:4791   */\n      tag_169\n        /* \"#utility.yul\":4789:4790   */\n      dup3\n        /* \"#utility.yul\":4771:4791   */\n      tag_97\n      jump\t// in\n    tag_169:\n        /* \"#utility.yul\":4766:4791   */\n      swap2\n      pop\n        /* \"#utility.yul\":4805:4825   */\n      tag_170\n        /* \"#utility.yul\":4823:4824   */\n      dup4\n        /* \"#utility.yul\":4805:4825   */\n      tag_97\n      jump\t// in\n    tag_170:\n        /* \"#utility.yul\":4800:4825   */\n      swap3\n      pop\n        /* \"#utility.yul\":4844:4845   */\n      dup3\n        /* \"#utility.yul\":4834:4869   */\n      tag_171\n      jumpi\n        /* \"#utility.yul\":4849:4867   */\n      tag_172\n      tag_113\n      jump\t// in\n    tag_172:\n        /* \"#utility.yul\":4834:4869   */\n    tag_171:\n        /* \"#utility.yul\":4890:4891   */\n      dup3\n        /* \"#utility.yul\":4887:4888   */\n      dup3\n        /* \"#utility.yul\":4883:4892   */\n      mod\n        /* \"#utility.yul\":4878:4892   */\n      swap1\n      pop\n        /* \"#utility.yul\":4722:4898   */\n      swap3\n      swap2\n      pop\n      pop\n      jump\t// out\n        /* \"#utility.yul\":4904:5084   */\n    tag_68:\n        /* \"#utility.yul\":4952:5029   */\n      0x4e487b7100000000000000000000000000000000000000000000000000000000\n        /* \"#utility.yul\":4949:4950   */\n      0x00\n        /* \"#utility.yul\":4942:5030   */\n      mstore\n        /* \"#utility.yul\":5049:5053   */\n      0x32\n        /* \"#utility.yul\":5046:5047   */\n      0x04\n        /* \"#utility.yul\":5039:5054   */\n      mstore\n        /* \"#utility.yul\":5073:5077   */\n      0x24\n        /* \"#utility.yul\":5070:5071   */\n      0x00\n        /* \"#utility.yul\":5063:5078   */\n      revert\n        /* \"#utility.yul\":5090:5270   */\n    tag_74:\n        /* \"#utility.yul\":5138:5215   */\n      0x4e487b7100000000000000000000000000000000000000000000000000000000\n        /* \"#utility.yul\":5135:5136   */\n      0x00\n        /* \"#utility.yul\":5128:5216   */\n      mstore\n        /* \"#utility.yul\":5235:5239   */\n      0x41\n        /* \"#utility.yul\":5232:5233   */\n      0x04\n        /* \"#utility.yul\":5225:5240   */\n      mstore\n        /* \"#utility.yul\":5259:5263   */\n      0x24\n        /* \"#utility.yul\":5256:5257   */\n      0x00\n        /* \"#utility.yul\":5249:5264   */\n      revert\n        /* \"#utility.yul\":5276:5443   */\n    tag_114:\n        /* \"#utility.yul\":5416:5435   */\n      0x496e636f727265637420616d6d6f756e74000000000000000000000000000000\n        /* \"#utility.yul\":5412:5413   */\n      0x00\n        /* \"#utility.yul\":5404:5410   */\n      dup3\n        /* \"#utility.yul\":5400:5414   */\n      add\n        /* \"#utility.yul\":5393:5436   */\n      mstore\n        /* \"#utility.yul\":5276:5443   */\n      pop\n      jump\t// out\n        /* \"#utility.yul\":5449:5815   */\n    tag_115:\n        /* \"#utility.yul\":5591:5594   */\n      0x00\n        /* \"#utility.yul\":5612:5679   */\n      tag_177\n        /* \"#utility.yul\":5676:5678   */\n      0x11\n        /* \"#utility.yul\":5671:5674   */\n      dup4\n        /* \"#utility.yul\":5612:5679   */\n      tag_107\n      jump\t// in\n    tag_177:\n        /* \"#utility.yul\":5605:5679   */\n      swap2\n      pop\n        /* \"#utility.yul\":5688:5781   */\n      tag_178\n        /* \"#utility.yul\":5777:5780   */\n      dup3\n        /* \"#utility.yul\":5688:5781   */\n      tag_114\n      jump\t// in\n    tag_178:\n        /* \"#utility.yul\":5806:5808   */\n      0x20\n        /* \"#utility.yul\":5801:5804   */\n      dup3\n        /* \"#utility.yul\":5797:5809   */\n      add\n        /* \"#utility.yul\":5790:5809   */\n      swap1\n      pop\n        /* \"#utility.yul\":5449:5815   */\n      swap2\n      swap1\n      pop\n      jump\t// out\n        /* \"#utility.yul\":5821:6240   */\n    tag_81:\n        /* \"#utility.yul\":5987:5991   */\n      0x00\n        /* \"#utility.yul\":6025:6027   */\n      0x20\n        /* \"#utility.yul\":6014:6023   */\n      dup3\n        /* \"#utility.yul\":6010:6028   */\n      add\n        /* \"#utility.yul\":6002:6028   */\n      swap1\n      pop\n        /* \"#utility.yul\":6074:6083   */\n      dup2\n        /* \"#utility.yul\":6068:6072   */\n      dup2\n        /* \"#utility.yul\":6064:6084   */\n      sub\n        /* \"#utility.yul\":6060:6061   */\n      0x00\n        /* \"#utility.yul\":6049:6058   */\n      dup4\n        /* \"#utility.yul\":6045:6062   */\n      add\n        /* \"#utility.yul\":6038:6085   */\n      mstore\n        /* \"#utility.yul\":6102:6233   */\n      tag_180\n        /* \"#utility.yul\":6228:6232   */\n      dup2\n        /* \"#utility.yul\":6102:6233   */\n      tag_115\n      jump\t// in\n    tag_180:\n        /* \"#utility.yul\":6094:6233   */\n      swap1\n      pop\n        /* \"#utility.yul\":5821:6240   */\n      swap2\n      swap1\n      pop\n      jump\t// out\n        /* \"#utility.yul\":6246:6437   */\n    tag_84:\n        /* \"#utility.yul\":6286:6289   */\n      0x00\n        /* \"#utility.yul\":6305:6325   */\n      tag_182\n        /* \"#utility.yul\":6323:6324   */\n      dup3\n        /* \"#utility.yul\":6305:6325   */\n      tag_97\n      jump\t// in\n    tag_182:\n        /* \"#utility.yul\":6300:6325   */\n      swap2\n      pop\n        /* \"#utility.yul\":6339:6359   */\n      tag_183\n        /* \"#utility.yul\":6357:6358   */\n      dup4\n        /* \"#utility.yul\":6339:6359   */\n      tag_97\n      jump\t// in\n    tag_183:\n        /* \"#utility.yul\":6334:6359   */\n      swap3\n      pop\n        /* \"#utility.yul\":6382:6383   */\n      dup3\n        /* \"#utility.yul\":6379:6380   */\n      dup3\n        /* \"#utility.yul\":6375:6384   */\n      add\n        /* \"#utility.yul\":6368:6384   */\n      swap1\n      pop\n        /* \"#utility.yul\":6403:6406   */\n      dup1\n        /* \"#utility.yul\":6400:6401   */\n      dup3\n        /* \"#utility.yul\":6397:6407   */\n      gt\n        /* \"#utility.yul\":6394:6430   */\n      iszero\n      tag_184\n      jumpi\n        /* \"#utility.yul\":6410:6428   */\n      tag_185\n      tag_110\n      jump\t// in\n    tag_185:\n        /* \"#utility.yul\":6394:6430   */\n    tag_184:\n        /* \"#utility.yul\":6246:6437   */\n      swap3\n      swap2\n      pop\n      pop\n      jump\t// out\n        /* \"#utility.yul\":6443:6522   */\n    tag_116:\n        /* \"#utility.yul\":6482:6489   */\n      0x00\n        /* \"#utility.yul\":6511:6516   */\n      dup2\n        /* \"#utility.yul\":6500:6516   */\n      swap1\n      pop\n        /* \"#utility.yul\":6443:6522   */\n      swap2\n      swap1\n      pop\n      jump\t// out\n        /* \"#utility.yul\":6528:6685   */\n    tag_117:\n        /* \"#utility.yul\":6633:6678   */\n      tag_188\n        /* \"#utility.yul\":6653:6677   */\n      tag_189\n        /* \"#utility.yul\":6671:6676   */\n      dup3\n        /* \"#utility.yul\":6653:6677   */\n      tag_97\n      jump\t// in\n    tag_189:\n        /* \"#utility.yul\":6633:6678   */\n      tag_116\n      jump\t// in\n    tag_188:\n        /* \"#utility.yul\":6628:6631   */\n      dup3\n        /* \"#utility.yul\":6621:6679   */\n      mstore\n        /* \"#utility.yul\":6528:6685   */\n      pop\n      pop\n      jump\t// out\n        /* \"#utility.yul\":6691:6787   */\n    tag_118:\n        /* \"#utility.yul\":6728:6735   */\n      0x00\n        /* \"#utility.yul\":6757:6781   */\n      tag_191\n        /* \"#utility.yul\":6775:6780   */\n      dup3\n        /* \"#utility.yul\":6757:6781   */\n      tag_99\n      jump\t// in\n    tag_191:\n        /* \"#utility.yul\":6746:6781   */\n      swap1\n      pop\n        /* \"#utility.yul\":6691:6787   */\n      swap2\n      swap1\n      pop\n      jump\t// out\n        /* \"#utility.yul\":6793:6887   */\n    tag_119:\n        /* \"#utility.yul\":6826:6834   */\n      0x00\n        /* \"#utility.yul\":6874:6879   */\n      dup2\n        /* \"#utility.yul\":6870:6872   */\n      0x60\n        /* \"#utility.yul\":6866:6880   */\n      shl\n        /* \"#utility.yul\":6845:6880   */\n      swap1\n      pop\n        /* \"#utility.yul\":6793:6887   */\n      swap2\n      swap1\n      pop\n      jump\t// out\n        /* \"#utility.yul\":6893:6987   */\n    tag_120:\n        /* \"#utility.yul\":6932:6939   */\n      0x00\n        /* \"#utility.yul\":6961:6981   */\n      tag_194\n        /* \"#utility.yul\":6975:6980   */\n      dup3\n        /* \"#utility.yul\":6961:6981   */\n      tag_119\n      jump\t// in\n    tag_194:\n        /* \"#utility.yul\":6950:6981   */\n      swap1\n      pop\n        /* \"#utility.yul\":6893:6987   */\n      swap2\n      swap1\n      pop\n      jump\t// out\n        /* \"#utility.yul\":6993:7093   */\n    tag_121:\n        /* \"#utility.yul\":7032:7039   */\n      0x00\n        /* \"#utility.yul\":7061:7087   */\n      tag_196\n        /* \"#utility.yul\":7081:7086   */\n      dup3\n        /* \"#utility.yul\":7061:7087   */\n      tag_120\n      jump\t// in\n    tag_196:\n        /* \"#utility.yul\":7050:7087   */\n      swap1\n      pop\n        /* \"#utility.yul\":6993:7093   */\n      swap2\n      swap1\n      pop\n      jump\t// out\n        /* \"#utility.yul\":7099:7256   */\n    tag_122:\n        /* \"#utility.yul\":7204:7249   */\n      tag_198\n        /* \"#utility.yul\":7224:7248   */\n      tag_199\n        /* \"#utility.yul\":7242:7247   */\n      dup3\n        /* \"#utility.yul\":7224:7248   */\n      tag_118\n      jump\t// in\n    tag_199:\n        /* \"#utility.yul\":7204:7249   */\n      tag_121\n      jump\t// in\n    tag_198:\n        /* \"#utility.yul\":7199:7202   */\n      dup3\n        /* \"#utility.yul\":7192:7250   */\n      mstore\n        /* \"#utility.yul\":7099:7256   */\n      pop\n      pop\n      jump\t// out\n        /* \"#utility.yul\":7262:7800   */\n    tag_89:\n        /* \"#utility.yul\":7430:7433   */\n      0x00\n        /* \"#utility.yul\":7445:7520   */\n      tag_201\n        /* \"#utility.yul\":7516:7519   */\n      dup3\n        /* \"#utility.yul\":7507:7513   */\n      dup7\n        /* \"#utility.yul\":7445:7520   */\n      tag_117\n      jump\t// in\n    tag_201:\n        /* \"#utility.yul\":7545:7547   */\n      0x20\n        /* \"#utility.yul\":7540:7543   */\n      dup3\n        /* \"#utility.yul\":7536:7548   */\n      add\n        /* \"#utility.yul\":7529:7548   */\n      swap2\n      pop\n        /* \"#utility.yul\":7558:7633   */\n      tag_202\n        /* \"#utility.yul\":7629:7632   */\n      dup3\n        /* \"#utility.yul\":7620:7626   */\n      dup6\n        /* \"#utility.yul\":7558:7633   */\n      tag_122\n      jump\t// in\n    tag_202:\n        /* \"#utility.yul\":7658:7660   */\n      0x14\n        /* \"#utility.yul\":7653:7656   */\n      dup3\n        /* \"#utility.yul\":7649:7661   */\n      add\n        /* \"#utility.yul\":7642:7661   */\n      swap2\n      pop\n        /* \"#utility.yul\":7671:7746   */\n      tag_203\n        /* \"#utility.yul\":7742:7745   */\n      dup3\n        /* \"#utility.yul\":7733:7739   */\n      dup5\n        /* \"#utility.yul\":7671:7746   */\n      tag_117\n      jump\t// in\n    tag_203:\n        /* \"#utility.yul\":7771:7773   */\n      0x20\n        /* \"#utility.yul\":7766:7769   */\n      dup3\n        /* \"#utility.yul\":7762:7774   */\n      add\n        /* \"#utility.yul\":7755:7774   */\n      swap2\n      pop\n        /* \"#utility.yul\":7791:7794   */\n      dup2\n        /* \"#utility.yul\":7784:7794   */\n      swap1\n      pop\n        /* \"#utility.yul\":7262:7800   */\n      swap5\n      swap4\n      pop\n      pop\n      pop\n      pop\n      jump\t// out\n\n    auxdata: 0xa2646970667358221220b21b52dbea39840a87d710c526421173d2356a1d6d6b83c0acf0d7bbfee3273a64736f6c63430008190033\n}\n",
				"bytecode": {
					"linkReferences": {},
					"object": "60806040525f600455604051610b74380380610b74833981810160405281019061002991906100bb565b335f806101000a81548173ffffffffffffffffffffffffffffffffffffffff021916908373ffffffffffffffffffffffffffffffffffffffff16021790555081600381905550426002819055508060058190555050506100f9565b5f80fd5b5f819050919050565b61009a81610088565b81146100a4575f80fd5b50565b5f815190506100b581610091565b92915050565b5f80604083850312156100d1576100d0610084565b5b5f6100de858286016100a7565b92505060206100ef858286016100a7565b9150509250929050565b610a6e806101065f395ff3fe60806040526004361061007e575f3560e01c8063719ce73e1161004d578063719ce73e1461012b578063e8917e2a14610155578063e97dcb621461017f578063f71d96cb146101895761008d565b80631209b1f6146100975780633fae1928146100c1578063481c6a75146100eb5780635d495aea146101155761008d565b3661008d5761008b6101c5565b005b6100956101c5565b005b3480156100a2575f80fd5b506100ab6103c5565b6040516100b8919061062a565b60405180910390f35b3480156100cc575f80fd5b506100d56103cb565b6040516100e2919061062a565b60405180910390f35b3480156100f6575f80fd5b506100ff6103d1565b60405161010c9190610682565b60405180910390f35b348015610120575f80fd5b506101296101c5565b005b348015610136575f80fd5b5061013f6103f4565b60405161014c919061062a565b60405180910390f35b348015610160575f80fd5b506101696103fa565b604051610176919061062a565b60405180910390f35b610187610400565b005b348015610194575f80fd5b506101af60048036038101906101aa91906106c9565b610502565b6040516101bc9190610682565b60405180910390f35b5f8054906101000a900473ffffffffffffffffffffffffffffffffffffffff1673ffffffffffffffffffffffffffffffffffffffff163373ffffffffffffffffffffffffffffffffffffffff161461021b575f80fd5b5f60018054905011610262576040517f08c379a00000000000000000000000000000000000000000000000000000000081526004016102599061074e565b60405180910390fd5b600354600254426102739190610799565b10156102b4576040517f08c379a00000000000000000000000000000000000000000000000000000000081526004016102ab90610816565b60405180910390fd5b5f6001805490506102c361053d565b6102cd9190610861565b90505f600182815481106102e4576102e3610891565b5b905f5260205f20015f9054906101000a900473ffffffffffffffffffffffffffffffffffffffff1690508073ffffffffffffffffffffffffffffffffffffffff166108fc60045490811502906040515f60405180830381858888f19350505050158015610353573d5f803e3d5ffd5b505f67ffffffffffffffff81111561036e5761036d6108be565b5b60405190808252806020026020018201604052801561039c5781602001602082028036833780820191505090505b50600190805190602001906103b2929190610570565b50426002819055505f6004819055505050565b60055481565b60025481565b5f8054906101000a900473ffffffffffffffffffffffffffffffffffffffff1681565b60045481565b60035481565b600554341015610445576040517f08c379a000000000000000000000000000000000000000000000000000000000815260040161043c90610935565b60405180910390fd5b600133908060018154018082558091505060019003905f5260205f20015f9091909190916101000a81548173ffffffffffffffffffffffffffffffffffffffff021916908373ffffffffffffffffffffffffffffffffffffffff1602179055503460045f8282546104b69190610953565b925050819055503373ffffffffffffffffffffffffffffffffffffffff167f4c72b57c1ca715219cf2c7be9edc8a3ea19dfb9a76fb7a05e2a8062a027ee97060405160405180910390a2565b60018181548110610511575f80fd5b905f5260205f20015f915054906101000a900473ffffffffffffffffffffffffffffffffffffffff1681565b5f423343604051602001610553939291906109fc565b604051602081830303815290604052805190602001205f1c905090565b828054828255905f5260205f209081019282156105e6579160200282015b828111156105e5578251825f6101000a81548173ffffffffffffffffffffffffffffffffffffffff021916908373ffffffffffffffffffffffffffffffffffffffff1602179055509160200191906001019061058e565b5b5090506105f391906105f7565b5090565b5b8082111561060e575f815f9055506001016105f8565b5090565b5f819050919050565b61062481610612565b82525050565b5f60208201905061063d5f83018461061b565b92915050565b5f73ffffffffffffffffffffffffffffffffffffffff82169050919050565b5f61066c82610643565b9050919050565b61067c81610662565b82525050565b5f6020820190506106955f830184610673565b92915050565b5f80fd5b6106a881610612565b81146106b2575f80fd5b50565b5f813590506106c38161069f565b92915050565b5f602082840312156106de576106dd61069b565b5b5f6106eb848285016106b5565b91505092915050565b5f82825260208201905092915050565b7f4e6f7420656e6f75676820706c617965727300000000000000000000000000005f82015250565b5f6107386012836106f4565b915061074382610704565b602082019050919050565b5f6020820190508181035f8301526107658161072c565b9050919050565b7f4e487b71000000000000000000000000000000000000000000000000000000005f52601160045260245ffd5b5f6107a382610612565b91506107ae83610612565b92508282039050818111156107c6576107c561076c565b5b92915050565b7f4c6f7474657279206973207374696c6c2072756e6e696e6700000000000000005f82015250565b5f6108006018836106f4565b915061080b826107cc565b602082019050919050565b5f6020820190508181035f83015261082d816107f4565b9050919050565b7f4e487b71000000000000000000000000000000000000000000000000000000005f52601260045260245ffd5b5f61086b82610612565b915061087683610612565b92508261088657610885610834565b5b828206905092915050565b7f4e487b71000000000000000000000000000000000000000000000000000000005f52603260045260245ffd5b7f4e487b71000000000000000000000000000000000000000000000000000000005f52604160045260245ffd5b7f496e636f727265637420616d6d6f756e740000000000000000000000000000005f82015250565b5f61091f6011836106f4565b915061092a826108eb565b602082019050919050565b5f6020820190508181035f83015261094c81610913565b9050919050565b5f61095d82610612565b915061096883610612565b92508282019050808211156109805761097f61076c565b5b92915050565b5f819050919050565b6109a061099b82610612565b610986565b82525050565b5f6109b082610643565b9050919050565b5f8160601b9050919050565b5f6109cd826109b7565b9050919050565b5f6109de826109c3565b9050919050565b6109f66109f1826109a6565b6109d4565b82525050565b5f610a07828661098f565b602082019150610a1782856109e5565b601482019150610a27828461098f565b60208201915081905094935050505056fea2646970667358221220b21b52dbea39840a87d710c526421173d2356a1d6d6b83c0acf0d7bbfee3273a64736f6c63430008190033",
					"opcodes": "PUSH1 0x80 PUSH1 0x40 MSTORE PUSH0 PUSH1 0x4 SSTORE PUSH1 0x40 MLOAD PUSH2 0xB74 CODESIZE SUB DUP1 PUSH2 0xB74 DUP4 CODECOPY DUP2 DUP2 ADD PUSH1 0x40 MSTORE DUP2 ADD SWAP1 PUSH2 0x29 SWAP2 SWAP1 PUSH2 0xBB JUMP JUMPDEST CALLER PUSH0 DUP1 PUSH2 0x100 EXP DUP2 SLOAD DUP2 PUSH20 0xFFFFFFFFFFFFFFFFFFFFFFFFFFFFFFFFFFFFFFFF MUL NOT AND SWAP1 DUP4 PUSH20 0xFFFFFFFFFFFFFFFFFFFFFFFFFFFFFFFFFFFFFFFF AND MUL OR SWAP1 SSTORE POP DUP2 PUSH1 0x3 DUP2 SWAP1 SSTORE POP TIMESTAMP PUSH1 0x2 DUP2 SWAP1 SSTORE POP DUP1 PUSH1 0x5 DUP2 SWAP1 SSTORE POP POP POP PUSH2 0xF9 JUMP JUMPDEST PUSH0 DUP1 REVERT JUMPDEST PUSH0 DUP2 SWAP1 POP SWAP2 SWAP1 POP JUMP JUMPDEST PUSH2 0x9A DUP2 PUSH2 0x88 JUMP JUMPDEST DUP2 EQ PUSH2 0xA4 JUMPI PUSH0 DUP1 REVERT JUMPDEST POP JUMP JUMPDEST PUSH0 DUP2 MLOAD SWAP1 POP PUSH2 0xB5 DUP2 PUSH2 0x91 JUMP JUMPDEST SWAP3 SWAP2 POP POP JUMP JUMPDEST PUSH0 DUP1 PUSH1 0x40 DUP4 DUP6 SUB SLT ISZERO PUSH2 0xD1 JUMPI PUSH2 0xD0 PUSH2 0x84 JUMP JUMPDEST JUMPDEST PUSH0 PUSH2 0xDE DUP6 DUP3 DUP7 ADD PUSH2 0xA7 JUMP JUMPDEST SWAP3 POP POP PUSH1 0x20 PUSH2 0xEF DUP6 DUP3 DUP7 ADD PUSH2 0xA7 JUMP JUMPDEST SWAP2 POP POP SWAP3 POP SWAP3 SWAP1 POP JUMP JUMPDEST PUSH2 0xA6E DUP1 PUSH2 0x106 PUSH0 CODECOPY PUSH0 RETURN INVALID PUSH1 0x80 PUSH1 0x40 MSTORE PUSH1 0x4 CALLDATASIZE LT PUSH2 0x7E JUMPI PUSH0 CALLDATALOAD PUSH1 0xE0 SHR DUP1 PUSH4 0x719CE73E GT PUSH2 0x4D JUMPI DUP1 PUSH4 0x719CE73E EQ PUSH2 0x12B JUMPI DUP1 PUSH4 0xE8917E2A EQ PUSH2 0x155 JUMPI DUP1 PUSH4 0xE97DCB62 EQ PUSH2 0x17F JUMPI DUP1 PUSH4 0xF71D96CB EQ PUSH2 0x189 JUMPI PUSH2 0x8D JUMP JUMPDEST DUP1 PUSH4 0x1209B1F6 EQ PUSH2 0x97 JUMPI DUP1 PUSH4 0x3FAE1928 EQ PUSH2 0xC1 JUMPI DUP1 PUSH4 0x481C6A75 EQ PUSH2 0xEB JUMPI DUP1 PUSH4 0x5D495AEA EQ PUSH2 0x115 JUMPI PUSH2 0x8D JUMP JUMPDEST CALLDATASIZE PUSH2 0x8D JUMPI PUSH2 0x8B PUSH2 0x1C5 JUMP JUMPDEST STOP JUMPDEST PUSH2 0x95 PUSH2 0x1C5 JUMP JUMPDEST STOP JUMPDEST CALLVALUE DUP1 ISZERO PUSH2 0xA2 JUMPI PUSH0 DUP1 REVERT JUMPDEST POP PUSH2 0xAB PUSH2 0x3C5 JUMP JUMPDEST PUSH1 0x40 MLOAD PUSH2 0xB8 SWAP2 SWAP1 PUSH2 0x62A JUMP JUMPDEST PUSH1 0x40 MLOAD DUP1 SWAP2 SUB SWAP1 RETURN JUMPDEST CALLVALUE DUP1 ISZERO PUSH2 0xCC JUMPI PUSH0 DUP1 REVERT JUMPDEST POP PUSH2 0xD5 PUSH2 0x3CB JUMP JUMPDEST PUSH1 0x40 MLOAD PUSH2 0xE2 SWAP2 SWAP1 PUSH2 0x62A JUMP JUMPDEST PUSH1 0x40 MLOAD DUP1 SWAP2 SUB SWAP1 RETURN JUMPDEST CALLVALUE DUP1 ISZERO PUSH2 0xF6 JUMPI PUSH0 DUP1 REVERT JUMPDEST POP PUSH2 0xFF PUSH2 0x3D1 JUMP JUMPDEST PUSH1 0x40 MLOAD PUSH2 0x10C SWAP2 SWAP1 PUSH2 0x682 JUMP JUMPDEST PUSH1 0x40 MLOAD DUP1 SWAP2 SUB SWAP1 RETURN JUMPDEST CALLVALUE DUP1 ISZERO PUSH2 0x120 JUMPI PUSH0 DUP1 REVERT JUMPDEST POP PUSH2 0x129 PUSH2 0x1C5 JUMP JUMPDEST STOP JUMPDEST CALLVALUE DUP1 ISZERO PUSH2 0x136 JUMPI PUSH0 DUP1 REVERT JUMPDEST POP PUSH2 0x13F PUSH2 0x3F4 JUMP JUMPDEST PUSH1 0x40 MLOAD PUSH2 0x14C SWAP2 SWAP1 PUSH2 0x62A JUMP JUMPDEST PUSH1 0x40 MLOAD DUP1 SWAP2 SUB SWAP1 RETURN JUMPDEST CALLVALUE DUP1 ISZERO PUSH2 0x160 JUMPI PUSH0 DUP1 REVERT JUMPDEST POP PUSH2 0x169 PUSH2 0x3FA JUMP JUMPDEST PUSH1 0x40 MLOAD PUSH2 0x176 SWAP2 SWAP1 PUSH2 0x62A JUMP JUMPDEST PUSH1 0x40 MLOAD DUP1 SWAP2 SUB SWAP1 RETURN JUMPDEST PUSH2 0x187 PUSH2 0x400 JUMP JUMPDEST STOP JUMPDEST CALLVALUE DUP1 ISZERO PUSH2 0x194 JUMPI PUSH0 DUP1 REVERT JUMPDEST POP PUSH2 0x1AF PUSH1 0x4 DUP1 CALLDATASIZE SUB DUP2 ADD SWAP1 PUSH2 0x1AA SWAP2 SWAP1 PUSH2 0x6C9 JUMP JUMPDEST PUSH2 0x502 JUMP JUMPDEST PUSH1 0x40 MLOAD PUSH2 0x1BC SWAP2 SWAP1 PUSH2 0x682 JUMP JUMPDEST PUSH1 0x40 MLOAD DUP1 SWAP2 SUB SWAP1 RETURN JUMPDEST PUSH0 DUP1 SLOAD SWAP1 PUSH2 0x100 EXP SWAP1 DIV PUSH20 0xFFFFFFFFFFFFFFFFFFFFFFFFFFFFFFFFFFFFFFFF AND PUSH20 0xFFFFFFFFFFFFFFFFFFFFFFFFFFFFFFFFFFFFFFFF AND CALLER PUSH20 0xFFFFFFFFFFFFFFFFFFFFFFFFFFFFFFFFFFFFFFFF AND EQ PUSH2 0x21B JUMPI PUSH0 DUP1 REVERT JUMPDEST PUSH0 PUSH1 0x1 DUP1 SLOAD SWAP1 POP GT PUSH2 0x262 JUMPI PUSH1 0x40 MLOAD PUSH32 0x8C379A000000000000000000000000000000000000000000000000000000000 DUP2 MSTORE PUSH1 0x4 ADD PUSH2 0x259 SWAP1 PUSH2 0x74E JUMP JUMPDEST PUSH1 0x40 MLOAD DUP1 SWAP2 SUB SWAP1 REVERT JUMPDEST PUSH1 0x3 SLOAD PUSH1 0x2 SLOAD TIMESTAMP PUSH2 0x273 SWAP2 SWAP1 PUSH2 0x799 JUMP JUMPDEST LT ISZERO PUSH2 0x2B4 JUMPI PUSH1 0x40 MLOAD PUSH32 0x8C379A000000000000000000000000000000000000000000000000000000000 DUP2 MSTORE PUSH1 0x4 ADD PUSH2 0x2AB SWAP1 PUSH2 0x816 JUMP JUMPDEST PUSH1 0x40 MLOAD DUP1 SWAP2 SUB SWAP1 REVERT JUMPDEST PUSH0 PUSH1 0x1 DUP1 SLOAD SWAP1 POP PUSH2 0x2C3 PUSH2 0x53D JUMP JUMPDEST PUSH2 0x2CD SWAP2 SWAP1 PUSH2 0x861 JUMP JUMPDEST SWAP1 POP PUSH0 PUSH1 0x1 DUP3 DUP2 SLOAD DUP2 LT PUSH2 0x2E4 JUMPI PUSH2 0x2E3 PUSH2 0x891 JUMP JUMPDEST JUMPDEST SWAP1 PUSH0 MSTORE PUSH1 0x20 PUSH0 KECCAK256 ADD PUSH0 SWAP1 SLOAD SWAP1 PUSH2 0x100 EXP SWAP1 DIV PUSH20 0xFFFFFFFFFFFFFFFFFFFFFFFFFFFFFFFFFFFFFFFF AND SWAP1 POP DUP1 PUSH20 0xFFFFFFFFFFFFFFFFFFFFFFFFFFFFFFFFFFFFFFFF AND PUSH2 0x8FC PUSH1 0x4 SLOAD SWAP1 DUP2 ISZERO MUL SWAP1 PUSH1 0x40 MLOAD PUSH0 PUSH1 0x40 MLOAD DUP1 DUP4 SUB DUP2 DUP6 DUP9 DUP9 CALL SWAP4 POP POP POP POP ISZERO DUP1 ISZERO PUSH2 0x353 JUMPI RETURNDATASIZE PUSH0 DUP1 RETURNDATACOPY RETURNDATASIZE PUSH0 REVERT JUMPDEST POP PUSH0 PUSH8 0xFFFFFFFFFFFFFFFF DUP2 GT ISZERO PUSH2 0x36E JUMPI PUSH2 0x36D PUSH2 0x8BE JUMP JUMPDEST JUMPDEST PUSH1 0x40 MLOAD SWAP1 DUP1 DUP3 MSTORE DUP1 PUSH1 0x20 MUL PUSH1 0x20 ADD DUP3 ADD PUSH1 0x40 MSTORE DUP1 ISZERO PUSH2 0x39C JUMPI DUP2 PUSH1 0x20 ADD PUSH1 0x20 DUP3 MUL DUP1 CALLDATASIZE DUP4 CALLDATACOPY DUP1 DUP3 ADD SWAP2 POP POP SWAP1 POP JUMPDEST POP PUSH1 0x1 SWAP1 DUP1 MLOAD SWAP1 PUSH1 0x20 ADD SWAP1 PUSH2 0x3B2 SWAP3 SWAP2 SWAP1 PUSH2 0x570 JUMP JUMPDEST POP TIMESTAMP PUSH1 0x2 DUP2 SWAP1 SSTORE POP PUSH0 PUSH1 0x4 DUP2 SWAP1 SSTORE POP POP POP JUMP JUMPDEST PUSH1 0x5 SLOAD DUP2 JUMP JUMPDEST PUSH1 0x2 SLOAD DUP2 JUMP JUMPDEST PUSH0 DUP1 SLOAD SWAP1 PUSH2 0x100 EXP SWAP1 DIV PUSH20 0xFFFFFFFFFFFFFFFFFFFFFFFFFFFFFFFFFFFFFFFF AND DUP2 JUMP JUMPDEST PUSH1 0x4 SLOAD DUP2 JUMP JUMPDEST PUSH1 0x3 SLOAD DUP2 JUMP JUMPDEST PUSH1 0x5 SLOAD CALLVALUE LT ISZERO PUSH2 0x445 JUMPI PUSH1 0x40 MLOAD PUSH32 0x8C379A000000000000000000000000000000000000000000000000000000000 DUP2 MSTORE PUSH1 0x4 ADD PUSH2 0x43C SWAP1 PUSH2 0x935 JUMP JUMPDEST PUSH1 0x40 MLOAD DUP1 SWAP2 SUB SWAP1 REVERT JUMPDEST PUSH1 0x1 CALLER SWAP1 DUP1 PUSH1 0x1 DUP2 SLOAD ADD DUP1 DUP3 SSTORE DUP1 SWAP2 POP POP PUSH1 0x1 SWAP1 SUB SWAP1 PUSH0 MSTORE PUSH1 0x20 PUSH0 KECCAK256 ADD PUSH0 SWAP1 SWAP2 SWAP1 SWAP2 SWAP1 SWAP2 PUSH2 0x100 EXP DUP2 SLOAD DUP2 PUSH20 0xFFFFFFFFFFFFFFFFFFFFFFFFFFFFFFFFFFFFFFFF MUL NOT AND SWAP1 DUP4 PUSH20 0xFFFFFFFFFFFFFFFFFFFFFFFFFFFFFFFFFFFFFFFF AND MUL OR SWAP1 SSTORE POP CALLVALUE PUSH1 0x4 PUSH0 DUP3 DUP3 SLOAD PUSH2 0x4B6 SWAP2 SWAP1 PUSH2 0x953 JUMP JUMPDEST SWAP3 POP POP DUP2 SWAP1 SSTORE POP CALLER PUSH20 0xFFFFFFFFFFFFFFFFFFFFFFFFFFFFFFFFFFFFFFFF AND PUSH32 0x4C72B57C1CA715219CF2C7BE9EDC8A3EA19DFB9A76FB7A05E2A8062A027EE970 PUSH1 0x40 MLOAD PUSH1 0x40 MLOAD DUP1 SWAP2 SUB SWAP1 LOG2 JUMP JUMPDEST PUSH1 0x1 DUP2 DUP2 SLOAD DUP2 LT PUSH2 0x511 JUMPI PUSH0 DUP1 REVERT JUMPDEST SWAP1 PUSH0 MSTORE PUSH1 0x20 PUSH0 KECCAK256 ADD PUSH0 SWAP2 POP SLOAD SWAP1 PUSH2 0x100 EXP SWAP1 DIV PUSH20 0xFFFFFFFFFFFFFFFFFFFFFFFFFFFFFFFFFFFFFFFF AND DUP2 JUMP JUMPDEST PUSH0 TIMESTAMP CALLER NUMBER PUSH1 0x40 MLOAD PUSH1 0x20 ADD PUSH2 0x553 SWAP4 SWAP3 SWAP2 SWAP1 PUSH2 0x9FC JUMP JUMPDEST PUSH1 0x40 MLOAD PUSH1 0x20 DUP2 DUP4 SUB SUB DUP2 MSTORE SWAP1 PUSH1 0x40 MSTORE DUP1 MLOAD SWAP1 PUSH1 0x20 ADD KECCAK256 PUSH0 SHR SWAP1 POP SWAP1 JUMP JUMPDEST DUP3 DUP1 SLOAD DUP3 DUP3 SSTORE SWAP1 PUSH0 MSTORE PUSH1 0x20 PUSH0 KECCAK256 SWAP1 DUP2 ADD SWAP3 DUP3 ISZERO PUSH2 0x5E6 JUMPI SWAP2 PUSH1 0x20 MUL DUP3 ADD JUMPDEST DUP3 DUP2 GT ISZERO PUSH2 0x5E5 JUMPI DUP3 MLOAD DUP3 PUSH0 PUSH2 0x100 EXP DUP2 SLOAD DUP2 PUSH20 0xFFFFFFFFFFFFFFFFFFFFFFFFFFFFFFFFFFFFFFFF MUL NOT AND SWAP1 DUP4 PUSH20 0xFFFFFFFFFFFFFFFFFFFFFFFFFFFFFFFFFFFFFFFF AND MUL OR SWAP1 SSTORE POP SWAP2 PUSH1 0x20 ADD SWAP2 SWAP1 PUSH1 0x1 ADD SWAP1 PUSH2 0x58E JUMP JUMPDEST JUMPDEST POP SWAP1 POP PUSH2 0x5F3 SWAP2 SWAP1 PUSH2 0x5F7 JUMP JUMPDEST POP SWAP1 JUMP JUMPDEST JUMPDEST DUP1 DUP3 GT ISZERO PUSH2 0x60E JUMPI PUSH0 DUP2 PUSH0 SWAP1 SSTORE POP PUSH1 0x1 ADD PUSH2 0x5F8 JUMP JUMPDEST POP SWAP1 JUMP JUMPDEST PUSH0 DUP2 SWAP1 POP SWAP2 SWAP1 POP JUMP JUMPDEST PUSH2 0x624 DUP2 PUSH2 0x612 JUMP JUMPDEST DUP3 MSTORE POP POP JUMP JUMPDEST PUSH0 PUSH1 0x20 DUP3 ADD SWAP1 POP PUSH2 0x63D PUSH0 DUP4 ADD DUP5 PUSH2 0x61B JUMP JUMPDEST SWAP3 SWAP2 POP POP JUMP JUMPDEST PUSH0 PUSH20 0xFFFFFFFFFFFFFFFFFFFFFFFFFFFFFFFFFFFFFFFF DUP3 AND SWAP1 POP SWAP2 SWAP1 POP JUMP JUMPDEST PUSH0 PUSH2 0x66C DUP3 PUSH2 0x643 JUMP JUMPDEST SWAP1 POP SWAP2 SWAP1 POP JUMP JUMPDEST PUSH2 0x67C DUP2 PUSH2 0x662 JUMP JUMPDEST DUP3 MSTORE POP POP JUMP JUMPDEST PUSH0 PUSH1 0x20 DUP3 ADD SWAP1 POP PUSH2 0x695 PUSH0 DUP4 ADD DUP5 PUSH2 0x673 JUMP JUMPDEST SWAP3 SWAP2 POP POP JUMP JUMPDEST PUSH0 DUP1 REVERT JUMPDEST PUSH2 0x6A8 DUP2 PUSH2 0x612 JUMP JUMPDEST DUP2 EQ PUSH2 0x6B2 JUMPI PUSH0 DUP1 REVERT JUMPDEST POP JUMP JUMPDEST PUSH0 DUP2 CALLDATALOAD SWAP1 POP PUSH2 0x6C3 DUP2 PUSH2 0x69F JUMP JUMPDEST SWAP3 SWAP2 POP POP JUMP JUMPDEST PUSH0 PUSH1 0x20 DUP3 DUP5 SUB SLT ISZERO PUSH2 0x6DE JUMPI PUSH2 0x6DD PUSH2 0x69B JUMP JUMPDEST JUMPDEST PUSH0 PUSH2 0x6EB DUP5 DUP3 DUP6 ADD PUSH2 0x6B5 JUMP JUMPDEST SWAP2 POP POP SWAP3 SWAP2 POP POP JUMP JUMPDEST PUSH0 DUP3 DUP3 MSTORE PUSH1 0x20 DUP3 ADD SWAP1 POP SWAP3 SWAP2 POP POP JUMP JUMPDEST PUSH32 0x4E6F7420656E6F75676820706C61796572730000000000000000000000000000 PUSH0 DUP3 ADD MSTORE POP JUMP JUMPDEST PUSH0 PUSH2 0x738 PUSH1 0x12 DUP4 PUSH2 0x6F4 JUMP JUMPDEST SWAP2 POP PUSH2 0x743 DUP3 PUSH2 0x704 JUMP JUMPDEST PUSH1 0x20 DUP3 ADD SWAP1 POP SWAP2 SWAP1 POP JUMP JUMPDEST PUSH0 PUSH1 0x20 DUP3 ADD SWAP1 POP DUP2 DUP2 SUB PUSH0 DUP4 ADD MSTORE PUSH2 0x765 DUP2 PUSH2 0x72C JUMP JUMPDEST SWAP1 POP SWAP2 SWAP1 POP JUMP JUMPDEST PUSH32 0x4E487B7100000000000000000000000000000000000000000000000000000000 PUSH0 MSTORE PUSH1 0x11 PUSH1 0x4 MSTORE PUSH1 0x24 PUSH0 REVERT JUMPDEST PUSH0 PUSH2 0x7A3 DUP3 PUSH2 0x612 JUMP JUMPDEST SWAP2 POP PUSH2 0x7AE DUP4 PUSH2 0x612 JUMP JUMPDEST SWAP3 POP DUP3 DUP3 SUB SWAP1 POP DUP2 DUP2 GT ISZERO PUSH2 0x7C6 JUMPI PUSH2 0x7C5 PUSH2 0x76C JUMP JUMPDEST JUMPDEST SWAP3 SWAP2 POP POP JUMP JUMPDEST PUSH32 0x4C6F7474657279206973207374696C6C2072756E6E696E670000000000000000 PUSH0 DUP3 ADD MSTORE POP JUMP JUMPDEST PUSH0 PUSH2 0x800 PUSH1 0x18 DUP4 PUSH2 0x6F4 JUMP JUMPDEST SWAP2 POP PUSH2 0x80B DUP3 PUSH2 0x7CC JUMP JUMPDEST PUSH1 0x20 DUP3 ADD SWAP1 POP SWAP2 SWAP1 POP JUMP JUMPDEST PUSH0 PUSH1 0x20 DUP3 ADD SWAP1 POP DUP2 DUP2 SUB PUSH0 DUP4 ADD MSTORE PUSH2 0x82D DUP2 PUSH2 0x7F4 JUMP JUMPDEST SWAP1 POP SWAP2 SWAP1 POP JUMP JUMPDEST PUSH32 0x4E487B7100000000000000000000000000000000000000000000000000000000 PUSH0 MSTORE PUSH1 0x12 PUSH1 0x4 MSTORE PUSH1 0x24 PUSH0 REVERT JUMPDEST PUSH0 PUSH2 0x86B DUP3 PUSH2 0x612 JUMP JUMPDEST SWAP2 POP PUSH2 0x876 DUP4 PUSH2 0x612 JUMP JUMPDEST SWAP3 POP DUP3 PUSH2 0x886 JUMPI PUSH2 0x885 PUSH2 0x834 JUMP JUMPDEST JUMPDEST DUP3 DUP3 MOD SWAP1 POP SWAP3 SWAP2 POP POP JUMP JUMPDEST PUSH32 0x4E487B7100000000000000000000000000000000000000000000000000000000 PUSH0 MSTORE PUSH1 0x32 PUSH1 0x4 MSTORE PUSH1 0x24 PUSH0 REVERT JUMPDEST PUSH32 0x4E487B7100000000000000000000000000000000000000000000000000000000 PUSH0 MSTORE PUSH1 0x41 PUSH1 0x4 MSTORE PUSH1 0x24 PUSH0 REVERT JUMPDEST PUSH32 0x496E636F727265637420616D6D6F756E74000000000000000000000000000000 PUSH0 DUP3 ADD MSTORE POP JUMP JUMPDEST PUSH0 PUSH2 0x91F PUSH1 0x11 DUP4 PUSH2 0x6F4 JUMP JUMPDEST SWAP2 POP PUSH2 0x92A DUP3 PUSH2 0x8EB JUMP JUMPDEST PUSH1 0x20 DUP3 ADD SWAP1 POP SWAP2 SWAP1 POP JUMP JUMPDEST PUSH0 PUSH1 0x20 DUP3 ADD SWAP1 POP DUP2 DUP2 SUB PUSH0 DUP4 ADD MSTORE PUSH2 0x94C DUP2 PUSH2 0x913 JUMP JUMPDEST SWAP1 POP SWAP2 SWAP1 POP JUMP JUMPDEST PUSH0 PUSH2 0x95D DUP3 PUSH2 0x612 JUMP JUMPDEST SWAP2 POP PUSH2 0x968 DUP4 PUSH2 0x612 JUMP JUMPDEST SWAP3 POP DUP3 DUP3 ADD SWAP1 POP DUP1 DUP3 GT ISZERO PUSH2 0x980 JUMPI PUSH2 0x97F PUSH2 0x76C JUMP JUMPDEST JUMPDEST SWAP3 SWAP2 POP POP JUMP JUMPDEST PUSH0 DUP2 SWAP1 POP SWAP2 SWAP1 POP JUMP JUMPDEST PUSH2 0x9A0 PUSH2 0x99B DUP3 PUSH2 0x612 JUMP JUMPDEST PUSH2 0x986 JUMP JUMPDEST DUP3 MSTORE POP POP JUMP JUMPDEST PUSH0 PUSH2 0x9B0 DUP3 PUSH2 0x643 JUMP JUMPDEST SWAP1 POP SWAP2 SWAP1 POP JUMP JUMPDEST PUSH0 DUP2 PUSH1 0x60 SHL SWAP1 POP SWAP2 SWAP1 POP JUMP JUMPDEST PUSH0 PUSH2 0x9CD DUP3 PUSH2 0x9B7 JUMP JUMPDEST SWAP1 POP SWAP2 SWAP1 POP JUMP JUMPDEST PUSH0 PUSH2 0x9DE DUP3 PUSH2 0x9C3 JUMP JUMPDEST SWAP1 POP SWAP2 SWAP1 POP JUMP JUMPDEST PUSH2 0x9F6 PUSH2 0x9F1 DUP3 PUSH2 0x9A6 JUMP JUMPDEST PUSH2 0x9D4 JUMP JUMPDEST DUP3 MSTORE POP POP JUMP JUMPDEST PUSH0 PUSH2 0xA07 DUP3 DUP7 PUSH2 0x98F JUMP JUMPDEST PUSH1 0x20 DUP3 ADD SWAP2 POP PUSH2 0xA17 DUP3 DUP6 PUSH2 0x9E5 JUMP JUMPDEST PUSH1 0x14 DUP3 ADD SWAP2 POP PUSH2 0xA27 DUP3 DUP5 PUSH2 0x98F JUMP JUMPDEST PUSH1 0x20 DUP3 ADD SWAP2 POP DUP2 SWAP1 POP SWAP5 SWAP4 POP POP POP POP JUMP INVALID LOG2 PUSH5 0x6970667358 0x22 SLT KECCAK256 0xB2 SHL MSTORE 0xDB 0xEA CODECOPY DUP5 EXP DUP8 0xD7 LT 0xC5 0x26 TIMESTAMP GT PUSH20 0xD2356A1D6D6B83C0ACF0D7BBFEE3273A64736F6C PUSH4 0x43000819 STOP CALLER "
				},
				"gasEstimates": {
					"creation": {
						"codeDepositCost": "534000",
						"executionCost": "infinite",
						"totalCost": "infinite"
					},
					"external": {
						"": "infinite",
						"endsAfter()": "2447",
						"enter()": "infinite",
						"manager()": "2550",
						"pickWinner()": "infinite",
						"players(uint256)": "5010",
						"prizePool()": "2425",
						"ticketPrice()": "2426",
						"timenow()": "2448"
					},
					"internal": {
						"random()": "infinite"
					}
				},
				"methodIdentifiers": {
					"endsAfter()": "e8917e2a",
					"enter()": "e97dcb62",
					"manager()": "481c6a75",
					"pickWinner()": "5d495aea",
					"players(uint256)": "f71d96cb",
					"prizePool()": "719ce73e",
					"ticketPrice()": "1209b1f6",
					"timenow()": "3fae1928"
				}
			},
			"storageLayout": {
				"storage": [
					{
						"astId": 159,
						"contract": "contracts/lottery.sol:Lottery",
						"label": "manager",
						"offset": 0,
						"slot": "0",
						"type": "t_address_payable"
					},
					{
						"astId": 162,
						"contract": "contracts/lottery.sol:Lottery",
						"label": "players",
						"offset": 0,
						"slot": "1",
						"type": "t_array(t_address_payable)dyn_storage"
					},
					{
						"astId": 164,
						"contract": "contracts/lottery.sol:Lottery",
						"label": "timenow",
						"offset": 0,
						"slot": "2",
						"type": "t_uint256"
					},
					{
						"astId": 166,
						"contract": "contracts/lottery.sol:Lottery",
						"label": "endsAfter",
						"offset": 0,
						"slot": "3",
						"type": "t_uint256"
					},
					{
						"astId": 169,
						"contract": "contracts/lottery.sol:Lottery",
						"label": "prizePool",
						"offset": 0,
						"slot": "4",
						"type": "t_uint256"
					},
					{
						"astId": 171,
						"contract": "contracts/lottery.sol:Lottery",
						"label": "ticketPrice",
						"offset": 0,
						"slot": "5",
						"type": "t_uint256"
					}
				],
				"types": {
					"t_address_payable": {
						"encoding": "inplace",
						"label": "address payable",
						"numberOfBytes": "20"
					},
					"t_array(t_address_payable)dyn_storage": {
						"base": "t_address_payable",
						"encoding": "dynamic_array",
						"label": "address payable[]",
						"numberOfBytes": "32"
					},
					"t_uint256": {
						"encoding": "inplace",
						"label": "uint256",
						"numberOfBytes": "32"
					}
				}
			},
			"userdoc": {
				"kind": "user",
				"methods": {},
				"version": 1
			}
		}
	}
}