{
	"contracts/lottery-vrf.sol": {
		"Lottery": {
			"abi": [
				{
					"inputs": [
						{
							"internalType": "uint256",
							"name": "_lotteryFee",
							"type": "uint256"
						}
					],
					"stateMutability": "payable",
					"type": "constructor"
				},
				{
					"inputs": [
						{
							"internalType": "address",
							"name": "have",
							"type": "address"
						},
						{
							"internalType": "address",
							"name": "want",
							"type": "address"
						}
					],
					"name": "OnlyCoordinatorCanFulfill",
					"type": "error"
				},
				{
					"anonymous": false,
					"inputs": [
						{
							"indexed": true,
							"internalType": "address",
							"name": "player",
							"type": "address"
						}
					],
					"name": "LotteryEntered",
					"type": "event"
				},
				{
					"anonymous": false,
					"inputs": [
						{
							"indexed": true,
							"internalType": "address",
							"name": "winner",
							"type": "address"
						},
						{
							"indexed": false,
							"internalType": "uint256",
							"name": "prize",
							"type": "uint256"
						}
					],
					"name": "LotteryWinner",
					"type": "event"
				},
				{
					"inputs": [],
					"name": "callbackGasLimit",
					"outputs": [
						{
							"internalType": "uint32",
							"name": "",
							"type": "uint32"
						}
					],
					"stateMutability": "view",
					"type": "function"
				},
				{
					"inputs": [],
					"name": "enterLottery",
					"outputs": [],
					"stateMutability": "payable",
					"type": "function"
				},
				{
					"inputs": [],
					"name": "keyHash",
					"outputs": [
						{
							"internalType": "bytes32",
							"name": "",
							"type": "bytes32"
						}
					],
					"stateMutability": "view",
					"type": "function"
				},
				{
					"inputs": [],
					"name": "lastRequestId",
					"outputs": [
						{
							"internalType": "uint256",
							"name": "",
							"type": "uint256"
						}
					],
					"stateMutability": "view",
					"type": "function"
				},
				{
					"inputs": [],
					"name": "lotteryFee",
					"outputs": [
						{
							"internalType": "uint256",
							"name": "",
							"type": "uint256"
						}
					],
					"stateMutability": "view",
					"type": "function"
				},
				{
					"inputs": [],
					"name": "lotteryOpen",
					"outputs": [
						{
							"internalType": "bool",
							"name": "",
							"type": "bool"
						}
					],
					"stateMutability": "view",
					"type": "function"
				},
				{
					"inputs": [],
					"name": "lotteryPrize",
					"outputs": [
						{
							"internalType": "uint256",
							"name": "",
							"type": "uint256"
						}
					],
					"stateMutability": "view",
					"type": "function"
				},
				{
					"inputs": [],
					"name": "numWords",
					"outputs": [
						{
							"internalType": "uint32",
							"name": "",
							"type": "uint32"
						}
					],
					"stateMutability": "view",
					"type": "function"
				},
				{
					"inputs": [
						{
							"internalType": "uint256",
							"name": "",
							"type": "uint256"
						}
					],
					"name": "players",
					"outputs": [
						{
							"internalType": "address payable",
							"name": "",
							"type": "address"
						}
					],
					"stateMutability": "view",
					"type": "function"
				},
				{
					"inputs": [
						{
							"internalType": "uint256",
							"name": "requestId",
							"type": "uint256"
						},
						{
							"internalType": "uint256[]",
							"name": "randomWords",
							"type": "uint256[]"
						}
					],
					"name": "rawFulfillRandomWords",
					"outputs": [],
					"stateMutability": "nonpayable",
					"type": "function"
				},
				{
					"inputs": [],
					"name": "requestConfirmations",
					"outputs": [
						{
							"internalType": "uint16",
							"name": "",
							"type": "uint16"
						}
					],
					"stateMutability": "view",
					"type": "function"
				},
				{
					"inputs": [],
					"name": "requestRandomWords",
					"outputs": [],
					"stateMutability": "nonpayable",
					"type": "function"
				},
				{
					"inputs": [],
					"name": "startLottery",
					"outputs": [],
					"stateMutability": "nonpayable",
					"type": "function"
				},
				{
					"inputs": [],
					"name": "subscriptionId",
					"outputs": [
						{
							"internalType": "uint64",
							"name": "",
							"type": "uint64"
						}
					],
					"stateMutability": "view",
					"type": "function"
				},
				{
					"inputs": [],
					"name": "vrfCoordinator",
					"outputs": [
						{
							"internalType": "address",
							"name": "",
							"type": "address"
						}
					],
					"stateMutability": "view",
					"type": "function"
				}
			],
			"devdoc": {
				"kind": "dev",
				"methods": {},
				"version": 1
			},
			"evm": {
				"assembly": "    /* \"contracts/lottery-vrf.sol\":205:2466  contract Lottery is VRFConsumerBaseV2 {... */\n  mstore(0x40, 0x0160)\n    /* \"contracts/lottery-vrf.sol\":291:333  0x8103B0A8A00be2DDC778e6e7eaa21791Cd364625 */\n  0x8103b0a8a00be2ddc778e6e7eaa21791cd364625\n    /* \"contracts/lottery-vrf.sol\":249:333  address public immutable vrfCoordinator = 0x8103B0A8A00be2DDC778e6e7eaa21791Cd364625 */\n  0xffffffffffffffffffffffffffffffffffffffff\n  and\n  0xa0\n  swap1\n  0xffffffffffffffffffffffffffffffffffffffff\n  and\n  dup2\n  mstore\n  pop\n    /* \"contracts/lottery-vrf.sol\":380:385  11506 */\n  0x2cf2\n    /* \"contracts/lottery-vrf.sol\":339:385  uint64 public immutable subscriptionId = 11506 */\n  0xffffffffffffffff\n  and\n  0xc0\n  swap1\n  0xffffffffffffffff\n  and\n  dup2\n  mstore\n  pop\n    /* \"contracts/lottery-vrf.sol\":426:492  0x474e34a077df58807dbe9c96d3c009b23b3c6d0cce433e59bbf5b34f823bc56c */\n  0x474e34a077df58807dbe9c96d3c009b23b3c6d0cce433e59bbf5b34f823bc56c\n    /* \"contracts/lottery-vrf.sol\":391:492  bytes32 public immutable keyHash = 0x474e34a077df58807dbe9c96d3c009b23b3c6d0cce433e59bbf5b34f823bc56c */\n  0x00\n  shl\n  0xe0\n  swap1\n  dup2\n  mstore\n  pop\n    /* \"contracts/lottery-vrf.sol\":541:546  40000 */\n  0x9c40\n    /* \"contracts/lottery-vrf.sol\":498:546  uint32 public immutable callbackGasLimit = 40000 */\n  0xffffffff\n  and\n  0x0100\n  swap1\n  0xffffffff\n  and\n  dup2\n  mstore\n  pop\n    /* \"contracts/lottery-vrf.sol\":599:600  3 */\n  0x03\n    /* \"contracts/lottery-vrf.sol\":552:600  uint16 public immutable requestConfirmations = 3 */\n  0xffff\n  and\n  0x0120\n  swap1\n  0xffff\n  and\n  dup2\n  mstore\n  pop\n    /* \"contracts/lottery-vrf.sol\":641:642  1 */\n  0x01\n    /* \"contracts/lottery-vrf.sol\":606:642  uint32 public immutable numWords = 1 */\n  0xffffffff\n  and\n  0x0140\n  swap1\n  0xffffffff\n  and\n  dup2\n  mstore\n  pop\n    /* \"contracts/lottery-vrf.sol\":973:1217  constructor(uint256 _lotteryFee) VRFConsumerBaseV2(vrfCoordinator) payable {... */\n  mload(0x40)\n  sub(codesize, bytecodeSize)\n  dup1\n  bytecodeSize\n  dup4\n  codecopy\n  dup2\n  dup2\n  add\n  0x40\n  mstore\n  dup2\n  add\n  swap1\n  tag_1\n  swap2\n  swap1\n  tag_2\n  jump\t// in\ntag_1:\n    /* \"contracts/lottery-vrf.sol\":1024:1038  vrfCoordinator */\n  mload(0xa0)\n    /* \"@chainlink/contracts/src/v0.8/VRFConsumerBaseV2.sol\":5616:5631  _vrfCoordinator */\n  dup1\n    /* \"@chainlink/contracts/src/v0.8/VRFConsumerBaseV2.sol\":5599:5631  vrfCoordinator = _vrfCoordinator */\n  0xffffffffffffffffffffffffffffffffffffffff\n  and\n  0x80\n  dup2\n  0xffffffffffffffffffffffffffffffffffffffff\n  and\n  dup2\n  mstore\n  pop\n  pop\n    /* \"@chainlink/contracts/src/v0.8/VRFConsumerBaseV2.sol\":5556:5636  constructor(address _vrfCoordinator) {... */\n  pop\n    /* \"contracts/lottery-vrf.sol\":1098:1112  vrfCoordinator */\n  mload(0xa0)\n    /* \"contracts/lottery-vrf.sol\":1058:1069  COORDINATOR */\n  0x00\n  dup1\n    /* \"contracts/lottery-vrf.sol\":1058:1113  COORDINATOR = VRFCoordinatorV2Interface(vrfCoordinator) */\n  0x0100\n  exp\n  dup2\n  sload\n  dup2\n  0xffffffffffffffffffffffffffffffffffffffff\n  mul\n  not\n  and\n  swap1\n  dup4\n  0xffffffffffffffffffffffffffffffffffffffff\n  and\n  mul\n  or\n  swap1\n  sstore\n  pop\n    /* \"contracts/lottery-vrf.sol\":1136:1147  _lotteryFee */\n  dup1\n    /* \"contracts/lottery-vrf.sol\":1123:1133  lotteryFee */\n  0x01\n    /* \"contracts/lottery-vrf.sol\":1123:1147  lotteryFee = _lotteryFee */\n  dup2\n  swap1\n  sstore\n  pop\n    /* \"contracts/lottery-vrf.sol\":1172:1181  msg.value */\n  callvalue\n    /* \"contracts/lottery-vrf.sol\":1157:1169  lotteryPrize */\n  0x02\n    /* \"contracts/lottery-vrf.sol\":1157:1181  lotteryPrize = msg.value */\n  dup2\n  swap1\n  sstore\n  pop\n    /* \"contracts/lottery-vrf.sol\":1205:1210  false */\n  0x00\n    /* \"contracts/lottery-vrf.sol\":1191:1202  lotteryOpen */\n  0x04\n  0x00\n    /* \"contracts/lottery-vrf.sol\":1191:1210  lotteryOpen = false */\n  0x0100\n  exp\n  dup2\n  sload\n  dup2\n  0xff\n  mul\n  not\n  and\n  swap1\n  dup4\n  iszero\n  iszero\n  mul\n  or\n  swap1\n  sstore\n  pop\n    /* \"contracts/lottery-vrf.sol\":973:1217  constructor(uint256 _lotteryFee) VRFConsumerBaseV2(vrfCoordinator) payable {... */\n  pop\n    /* \"contracts/lottery-vrf.sol\":205:2466  contract Lottery is VRFConsumerBaseV2 {... */\n  jump(tag_7)\n    /* \"#utility.yul\":88:205   */\ntag_9:\n    /* \"#utility.yul\":197:198   */\n  0x00\n    /* \"#utility.yul\":194:195   */\n  dup1\n    /* \"#utility.yul\":187:199   */\n  revert\n    /* \"#utility.yul\":334:411   */\ntag_11:\n    /* \"#utility.yul\":371:378   */\n  0x00\n    /* \"#utility.yul\":400:405   */\n  dup2\n    /* \"#utility.yul\":389:405   */\n  swap1\n  pop\n    /* \"#utility.yul\":334:411   */\n  swap2\n  swap1\n  pop\n  jump\t// out\n    /* \"#utility.yul\":417:539   */\ntag_12:\n    /* \"#utility.yul\":490:514   */\n  tag_20\n    /* \"#utility.yul\":508:513   */\n  dup2\n    /* \"#utility.yul\":490:514   */\n  tag_11\n  jump\t// in\ntag_20:\n    /* \"#utility.yul\":483:488   */\n  dup2\n    /* \"#utility.yul\":480:515   */\n  eq\n    /* \"#utility.yul\":470:533   */\n  tag_21\n  jumpi\n    /* \"#utility.yul\":529:530   */\n  0x00\n    /* \"#utility.yul\":526:527   */\n  dup1\n    /* \"#utility.yul\":519:531   */\n  revert\n    /* \"#utility.yul\":470:533   */\ntag_21:\n    /* \"#utility.yul\":417:539   */\n  pop\n  jump\t// out\n    /* \"#utility.yul\":545:688   */\ntag_13:\n    /* \"#utility.yul\":602:607   */\n  0x00\n    /* \"#utility.yul\":633:639   */\n  dup2\n    /* \"#utility.yul\":627:640   */\n  mload\n    /* \"#utility.yul\":618:640   */\n  swap1\n  pop\n    /* \"#utility.yul\":649:682   */\n  tag_23\n    /* \"#utility.yul\":676:681   */\n  dup2\n    /* \"#utility.yul\":649:682   */\n  tag_12\n  jump\t// in\ntag_23:\n    /* \"#utility.yul\":545:688   */\n  swap3\n  swap2\n  pop\n  pop\n  jump\t// out\n    /* \"#utility.yul\":694:1045   */\ntag_2:\n    /* \"#utility.yul\":764:770   */\n  0x00\n    /* \"#utility.yul\":813:815   */\n  0x20\n    /* \"#utility.yul\":801:810   */\n  dup3\n    /* \"#utility.yul\":792:799   */\n  dup5\n    /* \"#utility.yul\":788:811   */\n  sub\n    /* \"#utility.yul\":784:816   */\n  slt\n    /* \"#utility.yul\":781:900   */\n  iszero\n  tag_25\n  jumpi\n    /* \"#utility.yul\":819:898   */\n  tag_26\n  tag_9\n  jump\t// in\ntag_26:\n    /* \"#utility.yul\":781:900   */\ntag_25:\n    /* \"#utility.yul\":939:940   */\n  0x00\n    /* \"#utility.yul\":964:1028   */\n  tag_27\n    /* \"#utility.yul\":1020:1027   */\n  dup5\n    /* \"#utility.yul\":1011:1017   */\n  dup3\n    /* \"#utility.yul\":1000:1009   */\n  dup6\n    /* \"#utility.yul\":996:1018   */\n  add\n    /* \"#utility.yul\":964:1028   */\n  tag_13\n  jump\t// in\ntag_27:\n    /* \"#utility.yul\":954:1028   */\n  swap2\n  pop\n    /* \"#utility.yul\":910:1038   */\n  pop\n    /* \"#utility.yul\":694:1045   */\n  swap3\n  swap2\n  pop\n  pop\n  jump\t// out\n    /* \"contracts/lottery-vrf.sol\":205:2466  contract Lottery is VRFConsumerBaseV2 {... */\ntag_7:\n  mload(0x80)\n  mload(0xa0)\n  mload(0xc0)\n  mload(0xe0)\n  mload(0x0100)\n  mload(0x0120)\n  mload(0x0140)\n  codecopy(0x00, dataOffset(sub_0), dataSize(sub_0))\n  0x00\n  assignImmutable(\"0xca1c98d2cee18ab5da51a9df7bbf45ca91ab83c708e48aed82f5115320306ab4\")\n  0x00\n  assignImmutable(\"0x573478505bac58314bde723c19e2f4ba45359ccc293abcaaf210a7c10f58a9da\")\n  0x00\n  assignImmutable(\"0x503d64a769678232cb2f0846bbfb58c13ab6744fbecca0ff55f038e3ba37c96d\")\n  0x00\n  assignImmutable(\"0xbf08d8a2d7c7780024ba6e6dbe12d3d5a5a747ea3071fca63d8a2ede50d3472a\")\n  0x00\n  assignImmutable(\"0x73aad4ff595a8813cc7d440d244545017c77098528f010a7caaa7d74c382f6c5\")\n  0x00\n  assignImmutable(\"0x05dee4192aaad4acb149f9615e8a72a761fc8cdb1d8b4e9c00fe66665f5a8184\")\n  0x00\n  assignImmutable(\"0x1a192fabce13988b84994d4296e6cdc418d55e2f1d7f942188d4040b94fc57ac\")\n  return(0x00, dataSize(sub_0))\nstop\n\nsub_0: assembly {\n        /* \"contracts/lottery-vrf.sol\":205:2466  contract Lottery is VRFConsumerBaseV2 {... */\n      mstore(0x40, 0x80)\n      jumpi(tag_1, lt(calldatasize, 0x04))\n      shr(0xe0, calldataload(0x00))\n      dup1\n      0xa3e56fa8\n      gt\n      tag_17\n      jumpi\n      dup1\n      0xc60c4ae9\n      gt\n      tag_18\n      jumpi\n      dup1\n      0xc60c4ae9\n      eq\n      tag_13\n      jumpi\n      dup1\n      0xe0c86289\n      eq\n      tag_14\n      jumpi\n      dup1\n      0xf71d96cb\n      eq\n      tag_15\n      jumpi\n      dup1\n      0xfc2a88c3\n      eq\n      tag_16\n      jumpi\n      jump(tag_1)\n    tag_18:\n      dup1\n      0xa3e56fa8\n      eq\n      tag_9\n      jumpi\n      dup1\n      0xb0fb162f\n      eq\n      tag_10\n      jumpi\n      dup1\n      0xc1196ecf\n      eq\n      tag_11\n      jumpi\n      dup1\n      0xc1af5785\n      eq\n      tag_12\n      jumpi\n      jump(tag_1)\n    tag_17:\n      dup1\n      0x24f74697\n      gt\n      tag_19\n      jumpi\n      dup1\n      0x24f74697\n      eq\n      tag_5\n      jumpi\n      dup1\n      0x61728f39\n      eq\n      tag_6\n      jumpi\n      dup1\n      0x78aa08ed\n      eq\n      tag_7\n      jumpi\n      dup1\n      0x7ccfd7fc\n      eq\n      tag_8\n      jumpi\n      jump(tag_1)\n    tag_19:\n      dup1\n      0x09c1ba2e\n      eq\n      tag_2\n      jumpi\n      dup1\n      0x160344e2\n      eq\n      tag_3\n      jumpi\n      dup1\n      0x1fe543e3\n      eq\n      tag_4\n      jumpi\n    tag_1:\n      0x00\n      dup1\n      revert\n        /* \"contracts/lottery-vrf.sol\":339:385  uint64 public immutable subscriptionId = 11506 */\n    tag_2:\n      callvalue\n      dup1\n      iszero\n      tag_20\n      jumpi\n      0x00\n      dup1\n      revert\n    tag_20:\n      pop\n      tag_21\n      tag_22\n      jump\t// in\n    tag_21:\n      mload(0x40)\n      tag_23\n      swap2\n      swap1\n      tag_24\n      jump\t// in\n    tag_23:\n      mload(0x40)\n      dup1\n      swap2\n      sub\n      swap1\n      return\n        /* \"contracts/lottery-vrf.sol\":1482:1606  function startLottery() public {... */\n    tag_3:\n      callvalue\n      dup1\n      iszero\n      tag_25\n      jumpi\n      0x00\n      dup1\n      revert\n    tag_25:\n      pop\n      tag_26\n      tag_27\n      jump\t// in\n    tag_26:\n      stop\n        /* \"@chainlink/contracts/src/v0.8/VRFConsumerBaseV2.sol\":6618:6874  function rawFulfillRandomWords(uint256 requestId, uint256[] memory randomWords) external {... */\n    tag_4:\n      callvalue\n      dup1\n      iszero\n      tag_28\n      jumpi\n      0x00\n      dup1\n      revert\n    tag_28:\n      pop\n      tag_29\n      0x04\n      dup1\n      calldatasize\n      sub\n      dup2\n      add\n      swap1\n      tag_30\n      swap2\n      swap1\n      tag_31\n      jump\t// in\n    tag_30:\n      tag_32\n      jump\t// in\n    tag_29:\n      stop\n        /* \"contracts/lottery-vrf.sol\":498:546  uint32 public immutable callbackGasLimit = 40000 */\n    tag_5:\n      callvalue\n      dup1\n      iszero\n      tag_33\n      jumpi\n      0x00\n      dup1\n      revert\n    tag_33:\n      pop\n      tag_34\n      tag_35\n      jump\t// in\n    tag_34:\n      mload(0x40)\n      tag_36\n      swap2\n      swap1\n      tag_37\n      jump\t// in\n    tag_36:\n      mload(0x40)\n      dup1\n      swap2\n      sub\n      swap1\n      return\n        /* \"contracts/lottery-vrf.sol\":391:492  bytes32 public immutable keyHash = 0x474e34a077df58807dbe9c96d3c009b23b3c6d0cce433e59bbf5b34f823bc56c */\n    tag_6:\n      callvalue\n      dup1\n      iszero\n      tag_38\n      jumpi\n      0x00\n      dup1\n      revert\n    tag_38:\n      pop\n      tag_39\n      tag_40\n      jump\t// in\n    tag_39:\n      mload(0x40)\n      tag_41\n      swap2\n      swap1\n      tag_42\n      jump\t// in\n    tag_41:\n      mload(0x40)\n      dup1\n      swap2\n      sub\n      swap1\n      return\n        /* \"contracts/lottery-vrf.sol\":692:717  uint256 public lotteryFee */\n    tag_7:\n      callvalue\n      dup1\n      iszero\n      tag_43\n      jumpi\n      0x00\n      dup1\n      revert\n    tag_43:\n      pop\n      tag_44\n      tag_45\n      jump\t// in\n    tag_44:\n      mload(0x40)\n      tag_46\n      swap2\n      swap1\n      tag_47\n      jump\t// in\n    tag_46:\n      mload(0x40)\n      dup1\n      swap2\n      sub\n      swap1\n      return\n        /* \"contracts/lottery-vrf.sol\":606:642  uint32 public immutable numWords = 1 */\n    tag_8:\n      callvalue\n      dup1\n      iszero\n      tag_48\n      jumpi\n      0x00\n      dup1\n      revert\n    tag_48:\n      pop\n      tag_49\n      tag_50\n      jump\t// in\n    tag_49:\n      mload(0x40)\n      tag_51\n      swap2\n      swap1\n      tag_37\n      jump\t// in\n    tag_51:\n      mload(0x40)\n      dup1\n      swap2\n      sub\n      swap1\n      return\n        /* \"contracts/lottery-vrf.sol\":249:333  address public immutable vrfCoordinator = 0x8103B0A8A00be2DDC778e6e7eaa21791Cd364625 */\n    tag_9:\n      callvalue\n      dup1\n      iszero\n      tag_52\n      jumpi\n      0x00\n      dup1\n      revert\n    tag_52:\n      pop\n      tag_53\n      tag_54\n      jump\t// in\n    tag_53:\n      mload(0x40)\n      tag_55\n      swap2\n      swap1\n      tag_56\n      jump\t// in\n    tag_55:\n      mload(0x40)\n      dup1\n      swap2\n      sub\n      swap1\n      return\n        /* \"contracts/lottery-vrf.sol\":552:600  uint16 public immutable requestConfirmations = 3 */\n    tag_10:\n      callvalue\n      dup1\n      iszero\n      tag_57\n      jumpi\n      0x00\n      dup1\n      revert\n    tag_57:\n      pop\n      tag_58\n      tag_59\n      jump\t// in\n    tag_58:\n      mload(0x40)\n      tag_60\n      swap2\n      swap1\n      tag_61\n      jump\t// in\n    tag_60:\n      mload(0x40)\n      dup1\n      swap2\n      sub\n      swap1\n      return\n        /* \"contracts/lottery-vrf.sol\":723:750  uint256 public lotteryPrize */\n    tag_11:\n      callvalue\n      dup1\n      iszero\n      tag_62\n      jumpi\n      0x00\n      dup1\n      revert\n    tag_62:\n      pop\n      tag_63\n      tag_64\n      jump\t// in\n    tag_63:\n      mload(0x40)\n      tag_65\n      swap2\n      swap1\n      tag_47\n      jump\t// in\n    tag_65:\n      mload(0x40)\n      dup1\n      swap2\n      sub\n      swap1\n      return\n        /* \"contracts/lottery-vrf.sol\":1223:1476  function enterLottery() public payable {... */\n    tag_12:\n      tag_66\n      tag_67\n      jump\t// in\n    tag_66:\n      stop\n        /* \"contracts/lottery-vrf.sol\":794:817  bool public lotteryOpen */\n    tag_13:\n      callvalue\n      dup1\n      iszero\n      tag_68\n      jumpi\n      0x00\n      dup1\n      revert\n    tag_68:\n      pop\n      tag_69\n      tag_70\n      jump\t// in\n    tag_69:\n      mload(0x40)\n      tag_71\n      swap2\n      swap1\n      tag_72\n      jump\t// in\n    tag_71:\n      mload(0x40)\n      dup1\n      swap2\n      sub\n      swap1\n      return\n        /* \"contracts/lottery-vrf.sol\":2100:2464  function requestRandomWords() public {... */\n    tag_14:\n      callvalue\n      dup1\n      iszero\n      tag_73\n      jumpi\n      0x00\n      dup1\n      revert\n    tag_73:\n      pop\n      tag_74\n      tag_75\n      jump\t// in\n    tag_74:\n      stop\n        /* \"contracts/lottery-vrf.sol\":756:788  address payable[] public players */\n    tag_15:\n      callvalue\n      dup1\n      iszero\n      tag_76\n      jumpi\n      0x00\n      dup1\n      revert\n    tag_76:\n      pop\n      tag_77\n      0x04\n      dup1\n      calldatasize\n      sub\n      dup2\n      add\n      swap1\n      tag_78\n      swap2\n      swap1\n      tag_79\n      jump\t// in\n    tag_78:\n      tag_80\n      jump\t// in\n    tag_77:\n      mload(0x40)\n      tag_81\n      swap2\n      swap1\n      tag_82\n      jump\t// in\n    tag_81:\n      mload(0x40)\n      dup1\n      swap2\n      sub\n      swap1\n      return\n        /* \"contracts/lottery-vrf.sol\":823:851  uint256 public lastRequestId */\n    tag_16:\n      callvalue\n      dup1\n      iszero\n      tag_83\n      jumpi\n      0x00\n      dup1\n      revert\n    tag_83:\n      pop\n      tag_84\n      tag_85\n      jump\t// in\n    tag_84:\n      mload(0x40)\n      tag_86\n      swap2\n      swap1\n      tag_47\n      jump\t// in\n    tag_86:\n      mload(0x40)\n      dup1\n      swap2\n      sub\n      swap1\n      return\n        /* \"contracts/lottery-vrf.sol\":339:385  uint64 public immutable subscriptionId = 11506 */\n    tag_22:\n      immutable(\"0x73aad4ff595a8813cc7d440d244545017c77098528f010a7caaa7d74c382f6c5\")\n      dup2\n      jump\t// out\n        /* \"contracts/lottery-vrf.sol\":1482:1606  function startLottery() public {... */\n    tag_27:\n        /* \"contracts/lottery-vrf.sol\":1532:1543  lotteryOpen */\n      0x04\n      0x00\n      swap1\n      sload\n      swap1\n      0x0100\n      exp\n      swap1\n      div\n      0xff\n      and\n        /* \"contracts/lottery-vrf.sol\":1531:1543  !lotteryOpen */\n      iszero\n        /* \"contracts/lottery-vrf.sol\":1523:1571  require(!lotteryOpen, \"Lottery is already open\") */\n      tag_88\n      jumpi\n      mload(0x40)\n      0x08c379a000000000000000000000000000000000000000000000000000000000\n      dup2\n      mstore\n      0x04\n      add\n      tag_89\n      swap1\n      tag_90\n      jump\t// in\n    tag_89:\n      mload(0x40)\n      dup1\n      swap2\n      sub\n      swap1\n      revert\n    tag_88:\n        /* \"contracts/lottery-vrf.sol\":1595:1599  true */\n      0x01\n        /* \"contracts/lottery-vrf.sol\":1581:1592  lotteryOpen */\n      0x04\n      0x00\n        /* \"contracts/lottery-vrf.sol\":1581:1599  lotteryOpen = true */\n      0x0100\n      exp\n      dup2\n      sload\n      dup2\n      0xff\n      mul\n      not\n      and\n      swap1\n      dup4\n      iszero\n      iszero\n      mul\n      or\n      swap1\n      sstore\n      pop\n        /* \"contracts/lottery-vrf.sol\":1482:1606  function startLottery() public {... */\n      jump\t// out\n        /* \"@chainlink/contracts/src/v0.8/VRFConsumerBaseV2.sol\":6618:6874  function rawFulfillRandomWords(uint256 requestId, uint256[] memory randomWords) external {... */\n    tag_32:\n        /* \"@chainlink/contracts/src/v0.8/VRFConsumerBaseV2.sol\":6731:6745  vrfCoordinator */\n      immutable(\"0x1a192fabce13988b84994d4296e6cdc418d55e2f1d7f942188d4040b94fc57ac\")\n        /* \"@chainlink/contracts/src/v0.8/VRFConsumerBaseV2.sol\":6717:6745  msg.sender != vrfCoordinator */\n      0xffffffffffffffffffffffffffffffffffffffff\n      and\n        /* \"@chainlink/contracts/src/v0.8/VRFConsumerBaseV2.sol\":6717:6727  msg.sender */\n      caller\n        /* \"@chainlink/contracts/src/v0.8/VRFConsumerBaseV2.sol\":6717:6745  msg.sender != vrfCoordinator */\n      0xffffffffffffffffffffffffffffffffffffffff\n      and\n      eq\n        /* \"@chainlink/contracts/src/v0.8/VRFConsumerBaseV2.sol\":6713:6822  if (msg.sender != vrfCoordinator) {... */\n      tag_92\n      jumpi\n        /* \"@chainlink/contracts/src/v0.8/VRFConsumerBaseV2.sol\":6788:6798  msg.sender */\n      caller\n        /* \"@chainlink/contracts/src/v0.8/VRFConsumerBaseV2.sol\":6800:6814  vrfCoordinator */\n      immutable(\"0x1a192fabce13988b84994d4296e6cdc418d55e2f1d7f942188d4040b94fc57ac\")\n        /* \"@chainlink/contracts/src/v0.8/VRFConsumerBaseV2.sol\":6762:6815  OnlyCoordinatorCanFulfill(msg.sender, vrfCoordinator) */\n      mload(0x40)\n      0x1cf993f400000000000000000000000000000000000000000000000000000000\n      dup2\n      mstore\n      0x04\n      add\n      tag_93\n      swap3\n      swap2\n      swap1\n      tag_94\n      jump\t// in\n    tag_93:\n      mload(0x40)\n      dup1\n      swap2\n      sub\n      swap1\n      revert\n        /* \"@chainlink/contracts/src/v0.8/VRFConsumerBaseV2.sol\":6713:6822  if (msg.sender != vrfCoordinator) {... */\n    tag_92:\n        /* \"@chainlink/contracts/src/v0.8/VRFConsumerBaseV2.sol\":6827:6869  fulfillRandomWords(requestId, randomWords) */\n      tag_95\n        /* \"@chainlink/contracts/src/v0.8/VRFConsumerBaseV2.sol\":6846:6855  requestId */\n      dup3\n        /* \"@chainlink/contracts/src/v0.8/VRFConsumerBaseV2.sol\":6857:6868  randomWords */\n      dup3\n        /* \"@chainlink/contracts/src/v0.8/VRFConsumerBaseV2.sol\":6827:6845  fulfillRandomWords */\n      tag_96\n        /* \"@chainlink/contracts/src/v0.8/VRFConsumerBaseV2.sol\":6827:6869  fulfillRandomWords(requestId, randomWords) */\n      jump\t// in\n    tag_95:\n        /* \"@chainlink/contracts/src/v0.8/VRFConsumerBaseV2.sol\":6618:6874  function rawFulfillRandomWords(uint256 requestId, uint256[] memory randomWords) external {... */\n      pop\n      pop\n      jump\t// out\n        /* \"contracts/lottery-vrf.sol\":498:546  uint32 public immutable callbackGasLimit = 40000 */\n    tag_35:\n      immutable(\"0x503d64a769678232cb2f0846bbfb58c13ab6744fbecca0ff55f038e3ba37c96d\")\n      dup2\n      jump\t// out\n        /* \"contracts/lottery-vrf.sol\":391:492  bytes32 public immutable keyHash = 0x474e34a077df58807dbe9c96d3c009b23b3c6d0cce433e59bbf5b34f823bc56c */\n    tag_40:\n      immutable(\"0xbf08d8a2d7c7780024ba6e6dbe12d3d5a5a747ea3071fca63d8a2ede50d3472a\")\n      dup2\n      jump\t// out\n        /* \"contracts/lottery-vrf.sol\":692:717  uint256 public lotteryFee */\n    tag_45:\n      sload(0x01)\n      dup2\n      jump\t// out\n        /* \"contracts/lottery-vrf.sol\":606:642  uint32 public immutable numWords = 1 */\n    tag_50:\n      immutable(\"0xca1c98d2cee18ab5da51a9df7bbf45ca91ab83c708e48aed82f5115320306ab4\")\n      dup2\n      jump\t// out\n        /* \"contracts/lottery-vrf.sol\":249:333  address public immutable vrfCoordinator = 0x8103B0A8A00be2DDC778e6e7eaa21791Cd364625 */\n    tag_54:\n      immutable(\"0x05dee4192aaad4acb149f9615e8a72a761fc8cdb1d8b4e9c00fe66665f5a8184\")\n      dup2\n      jump\t// out\n        /* \"contracts/lottery-vrf.sol\":552:600  uint16 public immutable requestConfirmations = 3 */\n    tag_59:\n      immutable(\"0x573478505bac58314bde723c19e2f4ba45359ccc293abcaaf210a7c10f58a9da\")\n      dup2\n      jump\t// out\n        /* \"contracts/lottery-vrf.sol\":723:750  uint256 public lotteryPrize */\n    tag_64:\n      sload(0x02)\n      dup2\n      jump\t// out\n        /* \"contracts/lottery-vrf.sol\":1223:1476  function enterLottery() public payable {... */\n    tag_67:\n        /* \"contracts/lottery-vrf.sol\":1280:1291  lotteryOpen */\n      0x04\n      0x00\n      swap1\n      sload\n      swap1\n      0x0100\n      exp\n      swap1\n      div\n      0xff\n      and\n        /* \"contracts/lottery-vrf.sol\":1272:1315  require(lotteryOpen, \"Lottery is not open\") */\n      tag_98\n      jumpi\n      mload(0x40)\n      0x08c379a000000000000000000000000000000000000000000000000000000000\n      dup2\n      mstore\n      0x04\n      add\n      tag_99\n      swap1\n      tag_100\n      jump\t// in\n    tag_99:\n      mload(0x40)\n      dup1\n      swap2\n      sub\n      swap1\n      revert\n    tag_98:\n        /* \"contracts/lottery-vrf.sol\":1346:1356  lotteryFee */\n      sload(0x01)\n        /* \"contracts/lottery-vrf.sol\":1333:1342  msg.value */\n      callvalue\n        /* \"contracts/lottery-vrf.sol\":1333:1356  msg.value >= lotteryFee */\n      lt\n      iszero\n        /* \"contracts/lottery-vrf.sol\":1325:1385  require(msg.value >= lotteryFee, \"Insufficient lottery fee\") */\n      tag_101\n      jumpi\n      mload(0x40)\n      0x08c379a000000000000000000000000000000000000000000000000000000000\n      dup2\n      mstore\n      0x04\n      add\n      tag_102\n      swap1\n      tag_103\n      jump\t// in\n    tag_102:\n      mload(0x40)\n      dup1\n      swap2\n      sub\n      swap1\n      revert\n    tag_101:\n        /* \"contracts/lottery-vrf.sol\":1395:1402  players */\n      0x03\n        /* \"contracts/lottery-vrf.sol\":1416:1426  msg.sender */\n      caller\n        /* \"contracts/lottery-vrf.sol\":1395:1428  players.push(payable(msg.sender)) */\n      swap1\n      dup1\n      0x01\n      dup2\n      sload\n      add\n      dup1\n      dup3\n      sstore\n      dup1\n      swap2\n      pop\n      pop\n      0x01\n      swap1\n      sub\n      swap1\n      0x00\n      mstore\n      keccak256(0x00, 0x20)\n      add\n      0x00\n      swap1\n      swap2\n      swap1\n      swap2\n      swap1\n      swap2\n      0x0100\n      exp\n      dup2\n      sload\n      dup2\n      0xffffffffffffffffffffffffffffffffffffffff\n      mul\n      not\n      and\n      swap1\n      dup4\n      0xffffffffffffffffffffffffffffffffffffffff\n      and\n      mul\n      or\n      swap1\n      sstore\n      pop\n        /* \"contracts/lottery-vrf.sol\":1458:1468  msg.sender */\n      caller\n        /* \"contracts/lottery-vrf.sol\":1443:1469  LotteryEntered(msg.sender) */\n      0xffffffffffffffffffffffffffffffffffffffff\n      and\n      0x4c72b57c1ca715219cf2c7be9edc8a3ea19dfb9a76fb7a05e2a8062a027ee970\n      mload(0x40)\n      mload(0x40)\n      dup1\n      swap2\n      sub\n      swap1\n      log2\n        /* \"contracts/lottery-vrf.sol\":1223:1476  function enterLottery() public payable {... */\n      jump\t// out\n        /* \"contracts/lottery-vrf.sol\":794:817  bool public lotteryOpen */\n    tag_70:\n      0x04\n      0x00\n      swap1\n      sload\n      swap1\n      0x0100\n      exp\n      swap1\n      div\n      0xff\n      and\n      dup2\n      jump\t// out\n        /* \"contracts/lottery-vrf.sol\":2100:2464  function requestRandomWords() public {... */\n    tag_75:\n        /* \"contracts/lottery-vrf.sol\":2155:2166  lotteryOpen */\n      0x04\n      0x00\n      swap1\n      sload\n      swap1\n      0x0100\n      exp\n      swap1\n      div\n      0xff\n      and\n        /* \"contracts/lottery-vrf.sol\":2147:2190  require(lotteryOpen, \"Lottery is not open\") */\n      tag_106\n      jumpi\n      mload(0x40)\n      0x08c379a000000000000000000000000000000000000000000000000000000000\n      dup2\n      mstore\n      0x04\n      add\n      tag_107\n      swap1\n      tag_100\n      jump\t// in\n    tag_107:\n      mload(0x40)\n      dup1\n      swap2\n      sub\n      swap1\n      revert\n    tag_106:\n        /* \"contracts/lottery-vrf.sol\":2225:2226  0 */\n      0x00\n        /* \"contracts/lottery-vrf.sol\":2208:2215  players */\n      0x03\n        /* \"contracts/lottery-vrf.sol\":2208:2222  players.length */\n      dup1\n      sload\n      swap1\n      pop\n        /* \"contracts/lottery-vrf.sol\":2208:2226  players.length > 0 */\n      gt\n        /* \"contracts/lottery-vrf.sol\":2200:2256  require(players.length > 0, \"No players in the lottery\") */\n      tag_108\n      jumpi\n      mload(0x40)\n      0x08c379a000000000000000000000000000000000000000000000000000000000\n      dup2\n      mstore\n      0x04\n      add\n      tag_109\n      swap1\n      tag_110\n      jump\t// in\n    tag_109:\n      mload(0x40)\n      dup1\n      swap2\n      sub\n      swap1\n      revert\n    tag_108:\n        /* \"contracts/lottery-vrf.sol\":2282:2293  COORDINATOR */\n      0x00\n      dup1\n      sload\n      swap1\n      0x0100\n      exp\n      swap1\n      div\n      0xffffffffffffffffffffffffffffffffffffffff\n      and\n        /* \"contracts/lottery-vrf.sol\":2282:2312  COORDINATOR.requestRandomWords */\n      0xffffffffffffffffffffffffffffffffffffffff\n      and\n      0x5d3b1d30\n        /* \"contracts/lottery-vrf.sol\":2326:2333  keyHash */\n      immutable(\"0xbf08d8a2d7c7780024ba6e6dbe12d3d5a5a747ea3071fca63d8a2ede50d3472a\")\n        /* \"contracts/lottery-vrf.sol\":2347:2361  subscriptionId */\n      immutable(\"0x73aad4ff595a8813cc7d440d244545017c77098528f010a7caaa7d74c382f6c5\")\n        /* \"contracts/lottery-vrf.sol\":2375:2395  requestConfirmations */\n      immutable(\"0x573478505bac58314bde723c19e2f4ba45359ccc293abcaaf210a7c10f58a9da\")\n        /* \"contracts/lottery-vrf.sol\":2409:2425  callbackGasLimit */\n      immutable(\"0x503d64a769678232cb2f0846bbfb58c13ab6744fbecca0ff55f038e3ba37c96d\")\n        /* \"contracts/lottery-vrf.sol\":2439:2447  numWords */\n      immutable(\"0xca1c98d2cee18ab5da51a9df7bbf45ca91ab83c708e48aed82f5115320306ab4\")\n        /* \"contracts/lottery-vrf.sol\":2282:2457  COORDINATOR.requestRandomWords(... */\n      mload(0x40)\n      dup7\n      0xffffffff\n      and\n      0xe0\n      shl\n      dup2\n      mstore\n      0x04\n      add\n      tag_111\n      swap6\n      swap5\n      swap4\n      swap3\n      swap2\n      swap1\n      tag_112\n      jump\t// in\n    tag_111:\n      0x20\n      mload(0x40)\n      dup1\n      dup4\n      sub\n      dup2\n      0x00\n      dup8\n      gas\n      call\n      iszero\n      dup1\n      iszero\n      tag_114\n      jumpi\n      returndatasize\n      0x00\n      dup1\n      returndatacopy\n      revert(0x00, returndatasize)\n    tag_114:\n      pop\n      pop\n      pop\n      pop\n      mload(0x40)\n      returndatasize\n      not(0x1f)\n      0x1f\n      dup3\n      add\n      and\n      dup3\n      add\n      dup1\n      0x40\n      mstore\n      pop\n      dup2\n      add\n      swap1\n      tag_115\n      swap2\n      swap1\n      tag_116\n      jump\t// in\n    tag_115:\n        /* \"contracts/lottery-vrf.sol\":2266:2279  lastRequestId */\n      0x05\n        /* \"contracts/lottery-vrf.sol\":2266:2457  lastRequestId = COORDINATOR.requestRandomWords(... */\n      dup2\n      swap1\n      sstore\n      pop\n        /* \"contracts/lottery-vrf.sol\":2100:2464  function requestRandomWords() public {... */\n      jump\t// out\n        /* \"contracts/lottery-vrf.sol\":756:788  address payable[] public players */\n    tag_80:\n      0x03\n      dup2\n      dup2\n      sload\n      dup2\n      lt\n      tag_117\n      jumpi\n      0x00\n      dup1\n      revert\n    tag_117:\n      swap1\n      0x00\n      mstore\n      keccak256(0x00, 0x20)\n      add\n      0x00\n      swap2\n      pop\n      sload\n      swap1\n      0x0100\n      exp\n      swap1\n      div\n      0xffffffffffffffffffffffffffffffffffffffff\n      and\n      dup2\n      jump\t// out\n        /* \"contracts/lottery-vrf.sol\":823:851  uint256 public lastRequestId */\n    tag_85:\n      sload(0x05)\n      dup2\n      jump\t// out\n        /* \"contracts/lottery-vrf.sol\":1612:2094  function fulfillRandomWords(uint256 requestId, uint256[] memory randomWords) internal override {... */\n    tag_96:\n        /* \"contracts/lottery-vrf.sol\":1738:1751  lastRequestId */\n      sload(0x05)\n        /* \"contracts/lottery-vrf.sol\":1725:1734  requestId */\n      dup3\n        /* \"contracts/lottery-vrf.sol\":1725:1751  requestId == lastRequestId */\n      eq\n        /* \"contracts/lottery-vrf.sol\":1717:1781  require(requestId == lastRequestId, \"Request ID does not match\") */\n      tag_120\n      jumpi\n      mload(0x40)\n      0x08c379a000000000000000000000000000000000000000000000000000000000\n      dup2\n      mstore\n      0x04\n      add\n      tag_121\n      swap1\n      tag_122\n      jump\t// in\n    tag_121:\n      mload(0x40)\n      dup1\n      swap2\n      sub\n      swap1\n      revert\n    tag_120:\n        /* \"contracts/lottery-vrf.sol\":1791:1810  uint256 winnerIndex */\n      0x00\n        /* \"contracts/lottery-vrf.sol\":1830:1837  players */\n      0x03\n        /* \"contracts/lottery-vrf.sol\":1830:1844  players.length */\n      dup1\n      sload\n      swap1\n      pop\n        /* \"contracts/lottery-vrf.sol\":1813:1824  randomWords */\n      dup3\n        /* \"contracts/lottery-vrf.sol\":1825:1826  0 */\n      0x00\n        /* \"contracts/lottery-vrf.sol\":1813:1827  randomWords[0] */\n      dup2\n      mload\n      dup2\n      lt\n      tag_123\n      jumpi\n      tag_124\n      tag_125\n      jump\t// in\n    tag_124:\n    tag_123:\n      0x20\n      mul\n      0x20\n      add\n      add\n      mload\n        /* \"contracts/lottery-vrf.sol\":1813:1844  randomWords[0] % players.length */\n      tag_126\n      swap2\n      swap1\n      tag_127\n      jump\t// in\n    tag_126:\n        /* \"contracts/lottery-vrf.sol\":1791:1844  uint256 winnerIndex = randomWords[0] % players.length */\n      swap1\n      pop\n        /* \"contracts/lottery-vrf.sol\":1854:1876  address payable winner */\n      0x00\n        /* \"contracts/lottery-vrf.sol\":1879:1886  players */\n      0x03\n        /* \"contracts/lottery-vrf.sol\":1887:1898  winnerIndex */\n      dup3\n        /* \"contracts/lottery-vrf.sol\":1879:1899  players[winnerIndex] */\n      dup2\n      sload\n      dup2\n      lt\n      tag_128\n      jumpi\n      tag_129\n      tag_125\n      jump\t// in\n    tag_129:\n    tag_128:\n      swap1\n      0x00\n      mstore\n      keccak256(0x00, 0x20)\n      add\n      0x00\n      swap1\n      sload\n      swap1\n      0x0100\n      exp\n      swap1\n      div\n      0xffffffffffffffffffffffffffffffffffffffff\n      and\n        /* \"contracts/lottery-vrf.sol\":1854:1899  address payable winner = players[winnerIndex] */\n      swap1\n      pop\n        /* \"contracts/lottery-vrf.sol\":1909:1915  winner */\n      dup1\n        /* \"contracts/lottery-vrf.sol\":1909:1924  winner.transfer */\n      0xffffffffffffffffffffffffffffffffffffffff\n      and\n        /* \"contracts/lottery-vrf.sol\":1909:1938  winner.transfer(lotteryPrize) */\n      0x08fc\n        /* \"contracts/lottery-vrf.sol\":1925:1937  lotteryPrize */\n      sload(0x02)\n        /* \"contracts/lottery-vrf.sol\":1909:1938  winner.transfer(lotteryPrize) */\n      swap1\n      dup2\n      iszero\n      mul\n      swap1\n      mload(0x40)\n      0x00\n      mload(0x40)\n      dup1\n      dup4\n      sub\n      dup2\n      dup6\n      dup9\n      dup9\n      call\n      swap4\n      pop\n      pop\n      pop\n      pop\n      iszero\n      dup1\n      iszero\n      tag_132\n      jumpi\n      returndatasize\n      0x00\n      dup1\n      returndatacopy\n      revert(0x00, returndatasize)\n    tag_132:\n      pop\n        /* \"contracts/lottery-vrf.sol\":1967:1973  winner */\n      dup1\n        /* \"contracts/lottery-vrf.sol\":1953:1988  LotteryWinner(winner, lotteryPrize) */\n      0xffffffffffffffffffffffffffffffffffffffff\n      and\n      0x275eaacf9e506f9c68b251c2f97cf723c4fb9a3b94e42a1dfb581543c135f0c0\n        /* \"contracts/lottery-vrf.sol\":1975:1987  lotteryPrize */\n      sload(0x02)\n        /* \"contracts/lottery-vrf.sol\":1953:1988  LotteryWinner(winner, lotteryPrize) */\n      mload(0x40)\n      tag_133\n      swap2\n      swap1\n      tag_47\n      jump\t// in\n    tag_133:\n      mload(0x40)\n      dup1\n      swap2\n      sub\n      swap1\n      log2\n        /* \"contracts/lottery-vrf.sol\":2012:2017  false */\n      0x00\n        /* \"contracts/lottery-vrf.sol\":1998:2009  lotteryOpen */\n      0x04\n      0x00\n        /* \"contracts/lottery-vrf.sol\":1998:2017  lotteryOpen = false */\n      0x0100\n      exp\n      dup2\n      sload\n      dup2\n      0xff\n      mul\n      not\n      and\n      swap1\n      dup4\n      iszero\n      iszero\n      mul\n      or\n      swap1\n      sstore\n      pop\n        /* \"contracts/lottery-vrf.sol\":2059:2060  0 */\n      0x00\n        /* \"contracts/lottery-vrf.sol\":2037:2061  new address payable[](0) */\n      0xffffffffffffffff\n      dup2\n      gt\n      iszero\n      tag_134\n      jumpi\n      tag_135\n      tag_136\n      jump\t// in\n    tag_135:\n    tag_134:\n      mload(0x40)\n      swap1\n      dup1\n      dup3\n      mstore\n      dup1\n      0x20\n      mul\n      0x20\n      add\n      dup3\n      add\n      0x40\n      mstore\n      dup1\n      iszero\n      tag_137\n      jumpi\n      dup2\n      0x20\n      add\n      0x20\n      dup3\n      mul\n      dup1\n      calldatasize\n      dup4\n      calldatacopy\n      dup1\n      dup3\n      add\n      swap2\n      pop\n      pop\n      swap1\n      pop\n    tag_137:\n      pop\n        /* \"contracts/lottery-vrf.sol\":2027:2034  players */\n      0x03\n        /* \"contracts/lottery-vrf.sol\":2027:2061  players = new address payable[](0) */\n      swap1\n      dup1\n      mload\n      swap1\n      0x20\n      add\n      swap1\n      tag_138\n      swap3\n      swap2\n      swap1\n      tag_139\n      jump\t// in\n    tag_138:\n      pop\n        /* \"contracts/lottery-vrf.sol\":2086:2087  0 */\n      0x00\n        /* \"contracts/lottery-vrf.sol\":2071:2083  lotteryPrize */\n      0x02\n        /* \"contracts/lottery-vrf.sol\":2071:2087  lotteryPrize = 0 */\n      dup2\n      swap1\n      sstore\n      pop\n        /* \"contracts/lottery-vrf.sol\":1707:2094  {... */\n      pop\n      pop\n        /* \"contracts/lottery-vrf.sol\":1612:2094  function fulfillRandomWords(uint256 requestId, uint256[] memory randomWords) internal override {... */\n      pop\n      pop\n      jump\t// out\n    tag_139:\n      dup3\n      dup1\n      sload\n      dup3\n      dup3\n      sstore\n      swap1\n      0x00\n      mstore\n      keccak256(0x00, 0x20)\n      swap1\n      dup2\n      add\n      swap3\n      dup3\n      iszero\n      tag_140\n      jumpi\n      swap2\n      0x20\n      mul\n      dup3\n      add\n    tag_141:\n      dup3\n      dup2\n      gt\n      iszero\n      tag_142\n      jumpi\n      dup3\n      mload\n      dup3\n      exp(0x0100, 0x00)\n      dup2\n      sload\n      dup2\n      0xffffffffffffffffffffffffffffffffffffffff\n      mul\n      not\n      and\n      swap1\n      dup4\n      0xffffffffffffffffffffffffffffffffffffffff\n      and\n      mul\n      or\n      swap1\n      sstore\n      pop\n      swap2\n      0x20\n      add\n      swap2\n      swap1\n      0x01\n      add\n      swap1\n      jump(tag_141)\n    tag_142:\n    tag_140:\n      pop\n      swap1\n      pop\n      tag_143\n      swap2\n      swap1\n      tag_144\n      jump\t// in\n    tag_143:\n      pop\n      swap1\n      jump\t// out\n    tag_144:\n    tag_145:\n      dup1\n      dup3\n      gt\n      iszero\n      tag_146\n      jumpi\n      0x00\n      dup2\n      0x00\n      swap1\n      sstore\n      pop\n      0x01\n      add\n      jump(tag_145)\n    tag_146:\n      pop\n      swap1\n      jump\t// out\n        /* \"#utility.yul\":7:108   */\n    tag_147:\n        /* \"#utility.yul\":43:50   */\n      0x00\n        /* \"#utility.yul\":83:101   */\n      0xffffffffffffffff\n        /* \"#utility.yul\":76:81   */\n      dup3\n        /* \"#utility.yul\":72:102   */\n      and\n        /* \"#utility.yul\":61:102   */\n      swap1\n      pop\n        /* \"#utility.yul\":7:108   */\n      swap2\n      swap1\n      pop\n      jump\t// out\n        /* \"#utility.yul\":114:229   */\n    tag_148:\n        /* \"#utility.yul\":199:222   */\n      tag_193\n        /* \"#utility.yul\":216:221   */\n      dup2\n        /* \"#utility.yul\":199:222   */\n      tag_147\n      jump\t// in\n    tag_193:\n        /* \"#utility.yul\":194:197   */\n      dup3\n        /* \"#utility.yul\":187:223   */\n      mstore\n        /* \"#utility.yul\":114:229   */\n      pop\n      pop\n      jump\t// out\n        /* \"#utility.yul\":235:453   */\n    tag_24:\n        /* \"#utility.yul\":326:330   */\n      0x00\n        /* \"#utility.yul\":364:366   */\n      0x20\n        /* \"#utility.yul\":353:362   */\n      dup3\n        /* \"#utility.yul\":349:367   */\n      add\n        /* \"#utility.yul\":341:367   */\n      swap1\n      pop\n        /* \"#utility.yul\":377:446   */\n      tag_195\n        /* \"#utility.yul\":443:444   */\n      0x00\n        /* \"#utility.yul\":432:441   */\n      dup4\n        /* \"#utility.yul\":428:445   */\n      add\n        /* \"#utility.yul\":419:425   */\n      dup5\n        /* \"#utility.yul\":377:446   */\n      tag_148\n      jump\t// in\n    tag_195:\n        /* \"#utility.yul\":235:453   */\n      swap3\n      swap2\n      pop\n      pop\n      jump\t// out\n        /* \"#utility.yul\":459:534   */\n    tag_149:\n        /* \"#utility.yul\":492:498   */\n      0x00\n        /* \"#utility.yul\":525:527   */\n      0x40\n        /* \"#utility.yul\":519:528   */\n      mload\n        /* \"#utility.yul\":509:528   */\n      swap1\n      pop\n        /* \"#utility.yul\":459:534   */\n      swap1\n      jump\t// out\n        /* \"#utility.yul\":540:657   */\n    tag_150:\n        /* \"#utility.yul\":649:650   */\n      0x00\n        /* \"#utility.yul\":646:647   */\n      dup1\n        /* \"#utility.yul\":639:651   */\n      revert\n        /* \"#utility.yul\":663:780   */\n    tag_151:\n        /* \"#utility.yul\":772:773   */\n      0x00\n        /* \"#utility.yul\":769:770   */\n      dup1\n        /* \"#utility.yul\":762:774   */\n      revert\n        /* \"#utility.yul\":786:863   */\n    tag_152:\n        /* \"#utility.yul\":823:830   */\n      0x00\n        /* \"#utility.yul\":852:857   */\n      dup2\n        /* \"#utility.yul\":841:857   */\n      swap1\n      pop\n        /* \"#utility.yul\":786:863   */\n      swap2\n      swap1\n      pop\n      jump\t// out\n        /* \"#utility.yul\":869:991   */\n    tag_153:\n        /* \"#utility.yul\":942:966   */\n      tag_201\n        /* \"#utility.yul\":960:965   */\n      dup2\n        /* \"#utility.yul\":942:966   */\n      tag_152\n      jump\t// in\n    tag_201:\n        /* \"#utility.yul\":935:940   */\n      dup2\n        /* \"#utility.yul\":932:967   */\n      eq\n        /* \"#utility.yul\":922:985   */\n      tag_202\n      jumpi\n        /* \"#utility.yul\":981:982   */\n      0x00\n        /* \"#utility.yul\":978:979   */\n      dup1\n        /* \"#utility.yul\":971:983   */\n      revert\n        /* \"#utility.yul\":922:985   */\n    tag_202:\n        /* \"#utility.yul\":869:991   */\n      pop\n      jump\t// out\n        /* \"#utility.yul\":997:1136   */\n    tag_154:\n        /* \"#utility.yul\":1043:1048   */\n      0x00\n        /* \"#utility.yul\":1081:1087   */\n      dup2\n        /* \"#utility.yul\":1068:1088   */\n      calldataload\n        /* \"#utility.yul\":1059:1088   */\n      swap1\n      pop\n        /* \"#utility.yul\":1097:1130   */\n      tag_204\n        /* \"#utility.yul\":1124:1129   */\n      dup2\n        /* \"#utility.yul\":1097:1130   */\n      tag_153\n      jump\t// in\n    tag_204:\n        /* \"#utility.yul\":997:1136   */\n      swap3\n      swap2\n      pop\n      pop\n      jump\t// out\n        /* \"#utility.yul\":1142:1259   */\n    tag_155:\n        /* \"#utility.yul\":1251:1252   */\n      0x00\n        /* \"#utility.yul\":1248:1249   */\n      dup1\n        /* \"#utility.yul\":1241:1253   */\n      revert\n        /* \"#utility.yul\":1265:1367   */\n    tag_156:\n        /* \"#utility.yul\":1306:1312   */\n      0x00\n        /* \"#utility.yul\":1357:1359   */\n      0x1f\n        /* \"#utility.yul\":1353:1360   */\n      not\n        /* \"#utility.yul\":1348:1350   */\n      0x1f\n        /* \"#utility.yul\":1341:1346   */\n      dup4\n        /* \"#utility.yul\":1337:1351   */\n      add\n        /* \"#utility.yul\":1333:1361   */\n      and\n        /* \"#utility.yul\":1323:1361   */\n      swap1\n      pop\n        /* \"#utility.yul\":1265:1367   */\n      swap2\n      swap1\n      pop\n      jump\t// out\n        /* \"#utility.yul\":1373:1553   */\n    tag_136:\n        /* \"#utility.yul\":1421:1498   */\n      0x4e487b7100000000000000000000000000000000000000000000000000000000\n        /* \"#utility.yul\":1418:1419   */\n      0x00\n        /* \"#utility.yul\":1411:1499   */\n      mstore\n        /* \"#utility.yul\":1518:1522   */\n      0x41\n        /* \"#utility.yul\":1515:1516   */\n      0x04\n        /* \"#utility.yul\":1508:1523   */\n      mstore\n        /* \"#utility.yul\":1542:1546   */\n      0x24\n        /* \"#utility.yul\":1539:1540   */\n      0x00\n        /* \"#utility.yul\":1532:1547   */\n      revert\n        /* \"#utility.yul\":1559:1840   */\n    tag_157:\n        /* \"#utility.yul\":1642:1669   */\n      tag_209\n        /* \"#utility.yul\":1664:1668   */\n      dup3\n        /* \"#utility.yul\":1642:1669   */\n      tag_156\n      jump\t// in\n    tag_209:\n        /* \"#utility.yul\":1634:1640   */\n      dup2\n        /* \"#utility.yul\":1630:1670   */\n      add\n        /* \"#utility.yul\":1772:1778   */\n      dup2\n        /* \"#utility.yul\":1760:1770   */\n      dup2\n        /* \"#utility.yul\":1757:1779   */\n      lt\n        /* \"#utility.yul\":1736:1754   */\n      0xffffffffffffffff\n        /* \"#utility.yul\":1724:1734   */\n      dup3\n        /* \"#utility.yul\":1721:1755   */\n      gt\n        /* \"#utility.yul\":1718:1780   */\n      or\n        /* \"#utility.yul\":1715:1803   */\n      iszero\n      tag_210\n      jumpi\n        /* \"#utility.yul\":1783:1801   */\n      tag_211\n      tag_136\n      jump\t// in\n    tag_211:\n        /* \"#utility.yul\":1715:1803   */\n    tag_210:\n        /* \"#utility.yul\":1823:1833   */\n      dup1\n        /* \"#utility.yul\":1819:1821   */\n      0x40\n        /* \"#utility.yul\":1812:1834   */\n      mstore\n        /* \"#utility.yul\":1602:1840   */\n      pop\n        /* \"#utility.yul\":1559:1840   */\n      pop\n      pop\n      jump\t// out\n        /* \"#utility.yul\":1846:1975   */\n    tag_158:\n        /* \"#utility.yul\":1880:1886   */\n      0x00\n        /* \"#utility.yul\":1907:1927   */\n      tag_213\n      tag_149\n      jump\t// in\n    tag_213:\n        /* \"#utility.yul\":1897:1927   */\n      swap1\n      pop\n        /* \"#utility.yul\":1936:1969   */\n      tag_214\n        /* \"#utility.yul\":1964:1968   */\n      dup3\n        /* \"#utility.yul\":1956:1962   */\n      dup3\n        /* \"#utility.yul\":1936:1969   */\n      tag_157\n      jump\t// in\n    tag_214:\n        /* \"#utility.yul\":1846:1975   */\n      swap2\n      swap1\n      pop\n      jump\t// out\n        /* \"#utility.yul\":1981:2292   */\n    tag_159:\n        /* \"#utility.yul\":2058:2062   */\n      0x00\n        /* \"#utility.yul\":2148:2166   */\n      0xffffffffffffffff\n        /* \"#utility.yul\":2140:2146   */\n      dup3\n        /* \"#utility.yul\":2137:2167   */\n      gt\n        /* \"#utility.yul\":2134:2190   */\n      iszero\n      tag_216\n      jumpi\n        /* \"#utility.yul\":2170:2188   */\n      tag_217\n      tag_136\n      jump\t// in\n    tag_217:\n        /* \"#utility.yul\":2134:2190   */\n    tag_216:\n        /* \"#utility.yul\":2220:2224   */\n      0x20\n        /* \"#utility.yul\":2212:2218   */\n      dup3\n        /* \"#utility.yul\":2208:2225   */\n      mul\n        /* \"#utility.yul\":2200:2225   */\n      swap1\n      pop\n        /* \"#utility.yul\":2280:2284   */\n      0x20\n        /* \"#utility.yul\":2274:2278   */\n      dup2\n        /* \"#utility.yul\":2270:2285   */\n      add\n        /* \"#utility.yul\":2262:2285   */\n      swap1\n      pop\n        /* \"#utility.yul\":1981:2292   */\n      swap2\n      swap1\n      pop\n      jump\t// out\n        /* \"#utility.yul\":2298:2415   */\n    tag_160:\n        /* \"#utility.yul\":2407:2408   */\n      0x00\n        /* \"#utility.yul\":2404:2405   */\n      dup1\n        /* \"#utility.yul\":2397:2409   */\n      revert\n        /* \"#utility.yul\":2438:3148   */\n    tag_161:\n        /* \"#utility.yul\":2534:2539   */\n      0x00\n        /* \"#utility.yul\":2559:2640   */\n      tag_220\n        /* \"#utility.yul\":2575:2639   */\n      tag_221\n        /* \"#utility.yul\":2632:2638   */\n      dup5\n        /* \"#utility.yul\":2575:2639   */\n      tag_159\n      jump\t// in\n    tag_221:\n        /* \"#utility.yul\":2559:2640   */\n      tag_158\n      jump\t// in\n    tag_220:\n        /* \"#utility.yul\":2550:2640   */\n      swap1\n      pop\n        /* \"#utility.yul\":2660:2665   */\n      dup1\n        /* \"#utility.yul\":2689:2695   */\n      dup4\n        /* \"#utility.yul\":2682:2687   */\n      dup3\n        /* \"#utility.yul\":2675:2696   */\n      mstore\n        /* \"#utility.yul\":2723:2727   */\n      0x20\n        /* \"#utility.yul\":2716:2721   */\n      dup3\n        /* \"#utility.yul\":2712:2728   */\n      add\n        /* \"#utility.yul\":2705:2728   */\n      swap1\n      pop\n        /* \"#utility.yul\":2776:2780   */\n      0x20\n        /* \"#utility.yul\":2768:2774   */\n      dup5\n        /* \"#utility.yul\":2764:2781   */\n      mul\n        /* \"#utility.yul\":2756:2762   */\n      dup4\n        /* \"#utility.yul\":2752:2782   */\n      add\n        /* \"#utility.yul\":2805:2808   */\n      dup6\n        /* \"#utility.yul\":2797:2803   */\n      dup2\n        /* \"#utility.yul\":2794:2809   */\n      gt\n        /* \"#utility.yul\":2791:2913   */\n      iszero\n      tag_222\n      jumpi\n        /* \"#utility.yul\":2824:2903   */\n      tag_223\n      tag_160\n      jump\t// in\n    tag_223:\n        /* \"#utility.yul\":2791:2913   */\n    tag_222:\n        /* \"#utility.yul\":2939:2945   */\n      dup4\n        /* \"#utility.yul\":2922:3142   */\n    tag_224:\n        /* \"#utility.yul\":2956:2962   */\n      dup2\n        /* \"#utility.yul\":2951:2954   */\n      dup2\n        /* \"#utility.yul\":2948:2963   */\n      lt\n        /* \"#utility.yul\":2922:3142   */\n      iszero\n      tag_226\n      jumpi\n        /* \"#utility.yul\":3031:3034   */\n      dup1\n        /* \"#utility.yul\":3060:3097   */\n      tag_227\n        /* \"#utility.yul\":3093:3096   */\n      dup9\n        /* \"#utility.yul\":3081:3091   */\n      dup3\n        /* \"#utility.yul\":3060:3097   */\n      tag_154\n      jump\t// in\n    tag_227:\n        /* \"#utility.yul\":3055:3058   */\n      dup5\n        /* \"#utility.yul\":3048:3098   */\n      mstore\n        /* \"#utility.yul\":3127:3131   */\n      0x20\n        /* \"#utility.yul\":3122:3125   */\n      dup5\n        /* \"#utility.yul\":3118:3132   */\n      add\n        /* \"#utility.yul\":3111:3132   */\n      swap4\n      pop\n        /* \"#utility.yul\":2998:3142   */\n      pop\n        /* \"#utility.yul\":2982:2986   */\n      0x20\n        /* \"#utility.yul\":2977:2980   */\n      dup2\n        /* \"#utility.yul\":2973:2987   */\n      add\n        /* \"#utility.yul\":2966:2987   */\n      swap1\n      pop\n        /* \"#utility.yul\":2922:3142   */\n      jump(tag_224)\n    tag_226:\n        /* \"#utility.yul\":2926:2947   */\n      pop\n        /* \"#utility.yul\":2540:3148   */\n      pop\n      pop\n        /* \"#utility.yul\":2438:3148   */\n      swap4\n      swap3\n      pop\n      pop\n      pop\n      jump\t// out\n        /* \"#utility.yul\":3171:3541   */\n    tag_162:\n        /* \"#utility.yul\":3242:3247   */\n      0x00\n        /* \"#utility.yul\":3291:3294   */\n      dup3\n        /* \"#utility.yul\":3284:3288   */\n      0x1f\n        /* \"#utility.yul\":3276:3282   */\n      dup4\n        /* \"#utility.yul\":3272:3289   */\n      add\n        /* \"#utility.yul\":3268:3295   */\n      slt\n        /* \"#utility.yul\":3258:3380   */\n      tag_229\n      jumpi\n        /* \"#utility.yul\":3299:3378   */\n      tag_230\n      tag_155\n      jump\t// in\n    tag_230:\n        /* \"#utility.yul\":3258:3380   */\n    tag_229:\n        /* \"#utility.yul\":3416:3422   */\n      dup2\n        /* \"#utility.yul\":3403:3423   */\n      calldataload\n        /* \"#utility.yul\":3441:3535   */\n      tag_231\n        /* \"#utility.yul\":3531:3534   */\n      dup5\n        /* \"#utility.yul\":3523:3529   */\n      dup3\n        /* \"#utility.yul\":3516:3520   */\n      0x20\n        /* \"#utility.yul\":3508:3514   */\n      dup7\n        /* \"#utility.yul\":3504:3521   */\n      add\n        /* \"#utility.yul\":3441:3535   */\n      tag_161\n      jump\t// in\n    tag_231:\n        /* \"#utility.yul\":3432:3535   */\n      swap2\n      pop\n        /* \"#utility.yul\":3248:3541   */\n      pop\n        /* \"#utility.yul\":3171:3541   */\n      swap3\n      swap2\n      pop\n      pop\n      jump\t// out\n        /* \"#utility.yul\":3547:4231   */\n    tag_31:\n        /* \"#utility.yul\":3640:3646   */\n      0x00\n        /* \"#utility.yul\":3648:3654   */\n      dup1\n        /* \"#utility.yul\":3697:3699   */\n      0x40\n        /* \"#utility.yul\":3685:3694   */\n      dup4\n        /* \"#utility.yul\":3676:3683   */\n      dup6\n        /* \"#utility.yul\":3672:3695   */\n      sub\n        /* \"#utility.yul\":3668:3700   */\n      slt\n        /* \"#utility.yul\":3665:3784   */\n      iszero\n      tag_233\n      jumpi\n        /* \"#utility.yul\":3703:3782   */\n      tag_234\n      tag_150\n      jump\t// in\n    tag_234:\n        /* \"#utility.yul\":3665:3784   */\n    tag_233:\n        /* \"#utility.yul\":3823:3824   */\n      0x00\n        /* \"#utility.yul\":3848:3901   */\n      tag_235\n        /* \"#utility.yul\":3893:3900   */\n      dup6\n        /* \"#utility.yul\":3884:3890   */\n      dup3\n        /* \"#utility.yul\":3873:3882   */\n      dup7\n        /* \"#utility.yul\":3869:3891   */\n      add\n        /* \"#utility.yul\":3848:3901   */\n      tag_154\n      jump\t// in\n    tag_235:\n        /* \"#utility.yul\":3838:3901   */\n      swap3\n      pop\n        /* \"#utility.yul\":3794:3911   */\n      pop\n        /* \"#utility.yul\":3978:3980   */\n      0x20\n        /* \"#utility.yul\":3967:3976   */\n      dup4\n        /* \"#utility.yul\":3963:3981   */\n      add\n        /* \"#utility.yul\":3950:3982   */\n      calldataload\n        /* \"#utility.yul\":4009:4027   */\n      0xffffffffffffffff\n        /* \"#utility.yul\":4001:4007   */\n      dup2\n        /* \"#utility.yul\":3998:4028   */\n      gt\n        /* \"#utility.yul\":3995:4112   */\n      iszero\n      tag_236\n      jumpi\n        /* \"#utility.yul\":4031:4110   */\n      tag_237\n      tag_151\n      jump\t// in\n    tag_237:\n        /* \"#utility.yul\":3995:4112   */\n    tag_236:\n        /* \"#utility.yul\":4136:4214   */\n      tag_238\n        /* \"#utility.yul\":4206:4213   */\n      dup6\n        /* \"#utility.yul\":4197:4203   */\n      dup3\n        /* \"#utility.yul\":4186:4195   */\n      dup7\n        /* \"#utility.yul\":4182:4204   */\n      add\n        /* \"#utility.yul\":4136:4214   */\n      tag_162\n      jump\t// in\n    tag_238:\n        /* \"#utility.yul\":4126:4214   */\n      swap2\n      pop\n        /* \"#utility.yul\":3921:4224   */\n      pop\n        /* \"#utility.yul\":3547:4231   */\n      swap3\n      pop\n      swap3\n      swap1\n      pop\n      jump\t// out\n        /* \"#utility.yul\":4237:4330   */\n    tag_163:\n        /* \"#utility.yul\":4273:4280   */\n      0x00\n        /* \"#utility.yul\":4313:4323   */\n      0xffffffff\n        /* \"#utility.yul\":4306:4311   */\n      dup3\n        /* \"#utility.yul\":4302:4324   */\n      and\n        /* \"#utility.yul\":4291:4324   */\n      swap1\n      pop\n        /* \"#utility.yul\":4237:4330   */\n      swap2\n      swap1\n      pop\n      jump\t// out\n        /* \"#utility.yul\":4336:4451   */\n    tag_164:\n        /* \"#utility.yul\":4421:4444   */\n      tag_241\n        /* \"#utility.yul\":4438:4443   */\n      dup2\n        /* \"#utility.yul\":4421:4444   */\n      tag_163\n      jump\t// in\n    tag_241:\n        /* \"#utility.yul\":4416:4419   */\n      dup3\n        /* \"#utility.yul\":4409:4445   */\n      mstore\n        /* \"#utility.yul\":4336:4451   */\n      pop\n      pop\n      jump\t// out\n        /* \"#utility.yul\":4457:4675   */\n    tag_37:\n        /* \"#utility.yul\":4548:4552   */\n      0x00\n        /* \"#utility.yul\":4586:4588   */\n      0x20\n        /* \"#utility.yul\":4575:4584   */\n      dup3\n        /* \"#utility.yul\":4571:4589   */\n      add\n        /* \"#utility.yul\":4563:4589   */\n      swap1\n      pop\n        /* \"#utility.yul\":4599:4668   */\n      tag_243\n        /* \"#utility.yul\":4665:4666   */\n      0x00\n        /* \"#utility.yul\":4654:4663   */\n      dup4\n        /* \"#utility.yul\":4650:4667   */\n      add\n        /* \"#utility.yul\":4641:4647   */\n      dup5\n        /* \"#utility.yul\":4599:4668   */\n      tag_164\n      jump\t// in\n    tag_243:\n        /* \"#utility.yul\":4457:4675   */\n      swap3\n      swap2\n      pop\n      pop\n      jump\t// out\n        /* \"#utility.yul\":4681:4758   */\n    tag_165:\n        /* \"#utility.yul\":4718:4725   */\n      0x00\n        /* \"#utility.yul\":4747:4752   */\n      dup2\n        /* \"#utility.yul\":4736:4752   */\n      swap1\n      pop\n        /* \"#utility.yul\":4681:4758   */\n      swap2\n      swap1\n      pop\n      jump\t// out\n        /* \"#utility.yul\":4764:4882   */\n    tag_166:\n        /* \"#utility.yul\":4851:4875   */\n      tag_246\n        /* \"#utility.yul\":4869:4874   */\n      dup2\n        /* \"#utility.yul\":4851:4875   */\n      tag_165\n      jump\t// in\n    tag_246:\n        /* \"#utility.yul\":4846:4849   */\n      dup3\n        /* \"#utility.yul\":4839:4876   */\n      mstore\n        /* \"#utility.yul\":4764:4882   */\n      pop\n      pop\n      jump\t// out\n        /* \"#utility.yul\":4888:5110   */\n    tag_42:\n        /* \"#utility.yul\":4981:4985   */\n      0x00\n        /* \"#utility.yul\":5019:5021   */\n      0x20\n        /* \"#utility.yul\":5008:5017   */\n      dup3\n        /* \"#utility.yul\":5004:5022   */\n      add\n        /* \"#utility.yul\":4996:5022   */\n      swap1\n      pop\n        /* \"#utility.yul\":5032:5103   */\n      tag_248\n        /* \"#utility.yul\":5100:5101   */\n      0x00\n        /* \"#utility.yul\":5089:5098   */\n      dup4\n        /* \"#utility.yul\":5085:5102   */\n      add\n        /* \"#utility.yul\":5076:5082   */\n      dup5\n        /* \"#utility.yul\":5032:5103   */\n      tag_166\n      jump\t// in\n    tag_248:\n        /* \"#utility.yul\":4888:5110   */\n      swap3\n      swap2\n      pop\n      pop\n      jump\t// out\n        /* \"#utility.yul\":5116:5234   */\n    tag_167:\n        /* \"#utility.yul\":5203:5227   */\n      tag_250\n        /* \"#utility.yul\":5221:5226   */\n      dup2\n        /* \"#utility.yul\":5203:5227   */\n      tag_152\n      jump\t// in\n    tag_250:\n        /* \"#utility.yul\":5198:5201   */\n      dup3\n        /* \"#utility.yul\":5191:5228   */\n      mstore\n        /* \"#utility.yul\":5116:5234   */\n      pop\n      pop\n      jump\t// out\n        /* \"#utility.yul\":5240:5462   */\n    tag_47:\n        /* \"#utility.yul\":5333:5337   */\n      0x00\n        /* \"#utility.yul\":5371:5373   */\n      0x20\n        /* \"#utility.yul\":5360:5369   */\n      dup3\n        /* \"#utility.yul\":5356:5374   */\n      add\n        /* \"#utility.yul\":5348:5374   */\n      swap1\n      pop\n        /* \"#utility.yul\":5384:5455   */\n      tag_252\n        /* \"#utility.yul\":5452:5453   */\n      0x00\n        /* \"#utility.yul\":5441:5450   */\n      dup4\n        /* \"#utility.yul\":5437:5454   */\n      add\n        /* \"#utility.yul\":5428:5434   */\n      dup5\n        /* \"#utility.yul\":5384:5455   */\n      tag_167\n      jump\t// in\n    tag_252:\n        /* \"#utility.yul\":5240:5462   */\n      swap3\n      swap2\n      pop\n      pop\n      jump\t// out\n        /* \"#utility.yul\":5468:5594   */\n    tag_168:\n        /* \"#utility.yul\":5505:5512   */\n      0x00\n        /* \"#utility.yul\":5545:5587   */\n      0xffffffffffffffffffffffffffffffffffffffff\n        /* \"#utility.yul\":5538:5543   */\n      dup3\n        /* \"#utility.yul\":5534:5588   */\n      and\n        /* \"#utility.yul\":5523:5588   */\n      swap1\n      pop\n        /* \"#utility.yul\":5468:5594   */\n      swap2\n      swap1\n      pop\n      jump\t// out\n        /* \"#utility.yul\":5600:5696   */\n    tag_169:\n        /* \"#utility.yul\":5637:5644   */\n      0x00\n        /* \"#utility.yul\":5666:5690   */\n      tag_255\n        /* \"#utility.yul\":5684:5689   */\n      dup3\n        /* \"#utility.yul\":5666:5690   */\n      tag_168\n      jump\t// in\n    tag_255:\n        /* \"#utility.yul\":5655:5690   */\n      swap1\n      pop\n        /* \"#utility.yul\":5600:5696   */\n      swap2\n      swap1\n      pop\n      jump\t// out\n        /* \"#utility.yul\":5702:5820   */\n    tag_170:\n        /* \"#utility.yul\":5789:5813   */\n      tag_257\n        /* \"#utility.yul\":5807:5812   */\n      dup2\n        /* \"#utility.yul\":5789:5813   */\n      tag_169\n      jump\t// in\n    tag_257:\n        /* \"#utility.yul\":5784:5787   */\n      dup3\n        /* \"#utility.yul\":5777:5814   */\n      mstore\n        /* \"#utility.yul\":5702:5820   */\n      pop\n      pop\n      jump\t// out\n        /* \"#utility.yul\":5826:6048   */\n    tag_56:\n        /* \"#utility.yul\":5919:5923   */\n      0x00\n        /* \"#utility.yul\":5957:5959   */\n      0x20\n        /* \"#utility.yul\":5946:5955   */\n      dup3\n        /* \"#utility.yul\":5942:5960   */\n      add\n        /* \"#utility.yul\":5934:5960   */\n      swap1\n      pop\n        /* \"#utility.yul\":5970:6041   */\n      tag_259\n        /* \"#utility.yul\":6038:6039   */\n      0x00\n        /* \"#utility.yul\":6027:6036   */\n      dup4\n        /* \"#utility.yul\":6023:6040   */\n      add\n        /* \"#utility.yul\":6014:6020   */\n      dup5\n        /* \"#utility.yul\":5970:6041   */\n      tag_170\n      jump\t// in\n    tag_259:\n        /* \"#utility.yul\":5826:6048   */\n      swap3\n      swap2\n      pop\n      pop\n      jump\t// out\n        /* \"#utility.yul\":6054:6143   */\n    tag_171:\n        /* \"#utility.yul\":6090:6097   */\n      0x00\n        /* \"#utility.yul\":6130:6136   */\n      0xffff\n        /* \"#utility.yul\":6123:6128   */\n      dup3\n        /* \"#utility.yul\":6119:6137   */\n      and\n        /* \"#utility.yul\":6108:6137   */\n      swap1\n      pop\n        /* \"#utility.yul\":6054:6143   */\n      swap2\n      swap1\n      pop\n      jump\t// out\n        /* \"#utility.yul\":6149:6264   */\n    tag_172:\n        /* \"#utility.yul\":6234:6257   */\n      tag_262\n        /* \"#utility.yul\":6251:6256   */\n      dup2\n        /* \"#utility.yul\":6234:6257   */\n      tag_171\n      jump\t// in\n    tag_262:\n        /* \"#utility.yul\":6229:6232   */\n      dup3\n        /* \"#utility.yul\":6222:6258   */\n      mstore\n        /* \"#utility.yul\":6149:6264   */\n      pop\n      pop\n      jump\t// out\n        /* \"#utility.yul\":6270:6488   */\n    tag_61:\n        /* \"#utility.yul\":6361:6365   */\n      0x00\n        /* \"#utility.yul\":6399:6401   */\n      0x20\n        /* \"#utility.yul\":6388:6397   */\n      dup3\n        /* \"#utility.yul\":6384:6402   */\n      add\n        /* \"#utility.yul\":6376:6402   */\n      swap1\n      pop\n        /* \"#utility.yul\":6412:6481   */\n      tag_264\n        /* \"#utility.yul\":6478:6479   */\n      0x00\n        /* \"#utility.yul\":6467:6476   */\n      dup4\n        /* \"#utility.yul\":6463:6480   */\n      add\n        /* \"#utility.yul\":6454:6460   */\n      dup5\n        /* \"#utility.yul\":6412:6481   */\n      tag_172\n      jump\t// in\n    tag_264:\n        /* \"#utility.yul\":6270:6488   */\n      swap3\n      swap2\n      pop\n      pop\n      jump\t// out\n        /* \"#utility.yul\":6494:6584   */\n    tag_173:\n        /* \"#utility.yul\":6528:6535   */\n      0x00\n        /* \"#utility.yul\":6571:6576   */\n      dup2\n        /* \"#utility.yul\":6564:6577   */\n      iszero\n        /* \"#utility.yul\":6557:6578   */\n      iszero\n        /* \"#utility.yul\":6546:6578   */\n      swap1\n      pop\n        /* \"#utility.yul\":6494:6584   */\n      swap2\n      swap1\n      pop\n      jump\t// out\n        /* \"#utility.yul\":6590:6699   */\n    tag_174:\n        /* \"#utility.yul\":6671:6692   */\n      tag_267\n        /* \"#utility.yul\":6686:6691   */\n      dup2\n        /* \"#utility.yul\":6671:6692   */\n      tag_173\n      jump\t// in\n    tag_267:\n        /* \"#utility.yul\":6666:6669   */\n      dup3\n        /* \"#utility.yul\":6659:6693   */\n      mstore\n        /* \"#utility.yul\":6590:6699   */\n      pop\n      pop\n      jump\t// out\n        /* \"#utility.yul\":6705:6915   */\n    tag_72:\n        /* \"#utility.yul\":6792:6796   */\n      0x00\n        /* \"#utility.yul\":6830:6832   */\n      0x20\n        /* \"#utility.yul\":6819:6828   */\n      dup3\n        /* \"#utility.yul\":6815:6833   */\n      add\n        /* \"#utility.yul\":6807:6833   */\n      swap1\n      pop\n        /* \"#utility.yul\":6843:6908   */\n      tag_269\n        /* \"#utility.yul\":6905:6906   */\n      0x00\n        /* \"#utility.yul\":6894:6903   */\n      dup4\n        /* \"#utility.yul\":6890:6907   */\n      add\n        /* \"#utility.yul\":6881:6887   */\n      dup5\n        /* \"#utility.yul\":6843:6908   */\n      tag_174\n      jump\t// in\n    tag_269:\n        /* \"#utility.yul\":6705:6915   */\n      swap3\n      swap2\n      pop\n      pop\n      jump\t// out\n        /* \"#utility.yul\":6921:7250   */\n    tag_79:\n        /* \"#utility.yul\":6980:6986   */\n      0x00\n        /* \"#utility.yul\":7029:7031   */\n      0x20\n        /* \"#utility.yul\":7017:7026   */\n      dup3\n        /* \"#utility.yul\":7008:7015   */\n      dup5\n        /* \"#utility.yul\":7004:7027   */\n      sub\n        /* \"#utility.yul\":7000:7032   */\n      slt\n        /* \"#utility.yul\":6997:7116   */\n      iszero\n      tag_271\n      jumpi\n        /* \"#utility.yul\":7035:7114   */\n      tag_272\n      tag_150\n      jump\t// in\n    tag_272:\n        /* \"#utility.yul\":6997:7116   */\n    tag_271:\n        /* \"#utility.yul\":7155:7156   */\n      0x00\n        /* \"#utility.yul\":7180:7233   */\n      tag_273\n        /* \"#utility.yul\":7225:7232   */\n      dup5\n        /* \"#utility.yul\":7216:7222   */\n      dup3\n        /* \"#utility.yul\":7205:7214   */\n      dup6\n        /* \"#utility.yul\":7201:7223   */\n      add\n        /* \"#utility.yul\":7180:7233   */\n      tag_154\n      jump\t// in\n    tag_273:\n        /* \"#utility.yul\":7170:7233   */\n      swap2\n      pop\n        /* \"#utility.yul\":7126:7243   */\n      pop\n        /* \"#utility.yul\":6921:7250   */\n      swap3\n      swap2\n      pop\n      pop\n      jump\t// out\n        /* \"#utility.yul\":7256:7360   */\n    tag_175:\n        /* \"#utility.yul\":7301:7308   */\n      0x00\n        /* \"#utility.yul\":7330:7354   */\n      tag_275\n        /* \"#utility.yul\":7348:7353   */\n      dup3\n        /* \"#utility.yul\":7330:7354   */\n      tag_168\n      jump\t// in\n    tag_275:\n        /* \"#utility.yul\":7319:7354   */\n      swap1\n      pop\n        /* \"#utility.yul\":7256:7360   */\n      swap2\n      swap1\n      pop\n      jump\t// out\n        /* \"#utility.yul\":7366:7508   */\n    tag_176:\n        /* \"#utility.yul\":7469:7501   */\n      tag_277\n        /* \"#utility.yul\":7495:7500   */\n      dup2\n        /* \"#utility.yul\":7469:7501   */\n      tag_175\n      jump\t// in\n    tag_277:\n        /* \"#utility.yul\":7464:7467   */\n      dup3\n        /* \"#utility.yul\":7457:7502   */\n      mstore\n        /* \"#utility.yul\":7366:7508   */\n      pop\n      pop\n      jump\t// out\n        /* \"#utility.yul\":7514:7768   */\n    tag_82:\n        /* \"#utility.yul\":7623:7627   */\n      0x00\n        /* \"#utility.yul\":7661:7663   */\n      0x20\n        /* \"#utility.yul\":7650:7659   */\n      dup3\n        /* \"#utility.yul\":7646:7664   */\n      add\n        /* \"#utility.yul\":7638:7664   */\n      swap1\n      pop\n        /* \"#utility.yul\":7674:7761   */\n      tag_279\n        /* \"#utility.yul\":7758:7759   */\n      0x00\n        /* \"#utility.yul\":7747:7756   */\n      dup4\n        /* \"#utility.yul\":7743:7760   */\n      add\n        /* \"#utility.yul\":7734:7740   */\n      dup5\n        /* \"#utility.yul\":7674:7761   */\n      tag_176\n      jump\t// in\n    tag_279:\n        /* \"#utility.yul\":7514:7768   */\n      swap3\n      swap2\n      pop\n      pop\n      jump\t// out\n        /* \"#utility.yul\":7774:7943   */\n    tag_177:\n        /* \"#utility.yul\":7858:7869   */\n      0x00\n        /* \"#utility.yul\":7892:7898   */\n      dup3\n        /* \"#utility.yul\":7887:7890   */\n      dup3\n        /* \"#utility.yul\":7880:7899   */\n      mstore\n        /* \"#utility.yul\":7932:7936   */\n      0x20\n        /* \"#utility.yul\":7927:7930   */\n      dup3\n        /* \"#utility.yul\":7923:7937   */\n      add\n        /* \"#utility.yul\":7908:7937   */\n      swap1\n      pop\n        /* \"#utility.yul\":7774:7943   */\n      swap3\n      swap2\n      pop\n      pop\n      jump\t// out\n        /* \"#utility.yul\":7949:8122   */\n    tag_178:\n        /* \"#utility.yul\":8089:8114   */\n      0x4c6f747465727920697320616c7265616479206f70656e000000000000000000\n        /* \"#utility.yul\":8085:8086   */\n      0x00\n        /* \"#utility.yul\":8077:8083   */\n      dup3\n        /* \"#utility.yul\":8073:8087   */\n      add\n        /* \"#utility.yul\":8066:8115   */\n      mstore\n        /* \"#utility.yul\":7949:8122   */\n      pop\n      jump\t// out\n        /* \"#utility.yul\":8128:8494   */\n    tag_179:\n        /* \"#utility.yul\":8270:8273   */\n      0x00\n        /* \"#utility.yul\":8291:8358   */\n      tag_283\n        /* \"#utility.yul\":8355:8357   */\n      0x17\n        /* \"#utility.yul\":8350:8353   */\n      dup4\n        /* \"#utility.yul\":8291:8358   */\n      tag_177\n      jump\t// in\n    tag_283:\n        /* \"#utility.yul\":8284:8358   */\n      swap2\n      pop\n        /* \"#utility.yul\":8367:8460   */\n      tag_284\n        /* \"#utility.yul\":8456:8459   */\n      dup3\n        /* \"#utility.yul\":8367:8460   */\n      tag_178\n      jump\t// in\n    tag_284:\n        /* \"#utility.yul\":8485:8487   */\n      0x20\n        /* \"#utility.yul\":8480:8483   */\n      dup3\n        /* \"#utility.yul\":8476:8488   */\n      add\n        /* \"#utility.yul\":8469:8488   */\n      swap1\n      pop\n        /* \"#utility.yul\":8128:8494   */\n      swap2\n      swap1\n      pop\n      jump\t// out\n        /* \"#utility.yul\":8500:8919   */\n    tag_90:\n        /* \"#utility.yul\":8666:8670   */\n      0x00\n        /* \"#utility.yul\":8704:8706   */\n      0x20\n        /* \"#utility.yul\":8693:8702   */\n      dup3\n        /* \"#utility.yul\":8689:8707   */\n      add\n        /* \"#utility.yul\":8681:8707   */\n      swap1\n      pop\n        /* \"#utility.yul\":8753:8762   */\n      dup2\n        /* \"#utility.yul\":8747:8751   */\n      dup2\n        /* \"#utility.yul\":8743:8763   */\n      sub\n        /* \"#utility.yul\":8739:8740   */\n      0x00\n        /* \"#utility.yul\":8728:8737   */\n      dup4\n        /* \"#utility.yul\":8724:8741   */\n      add\n        /* \"#utility.yul\":8717:8764   */\n      mstore\n        /* \"#utility.yul\":8781:8912   */\n      tag_286\n        /* \"#utility.yul\":8907:8911   */\n      dup2\n        /* \"#utility.yul\":8781:8912   */\n      tag_179\n      jump\t// in\n    tag_286:\n        /* \"#utility.yul\":8773:8912   */\n      swap1\n      pop\n        /* \"#utility.yul\":8500:8919   */\n      swap2\n      swap1\n      pop\n      jump\t// out\n        /* \"#utility.yul\":8925:9257   */\n    tag_94:\n        /* \"#utility.yul\":9046:9050   */\n      0x00\n        /* \"#utility.yul\":9084:9086   */\n      0x40\n        /* \"#utility.yul\":9073:9082   */\n      dup3\n        /* \"#utility.yul\":9069:9087   */\n      add\n        /* \"#utility.yul\":9061:9087   */\n      swap1\n      pop\n        /* \"#utility.yul\":9097:9168   */\n      tag_288\n        /* \"#utility.yul\":9165:9166   */\n      0x00\n        /* \"#utility.yul\":9154:9163   */\n      dup4\n        /* \"#utility.yul\":9150:9167   */\n      add\n        /* \"#utility.yul\":9141:9147   */\n      dup6\n        /* \"#utility.yul\":9097:9168   */\n      tag_170\n      jump\t// in\n    tag_288:\n        /* \"#utility.yul\":9178:9250   */\n      tag_289\n        /* \"#utility.yul\":9246:9248   */\n      0x20\n        /* \"#utility.yul\":9235:9244   */\n      dup4\n        /* \"#utility.yul\":9231:9249   */\n      add\n        /* \"#utility.yul\":9222:9228   */\n      dup5\n        /* \"#utility.yul\":9178:9250   */\n      tag_170\n      jump\t// in\n    tag_289:\n        /* \"#utility.yul\":8925:9257   */\n      swap4\n      swap3\n      pop\n      pop\n      pop\n      jump\t// out\n        /* \"#utility.yul\":9263:9432   */\n    tag_180:\n        /* \"#utility.yul\":9403:9424   */\n      0x4c6f7474657279206973206e6f74206f70656e00000000000000000000000000\n        /* \"#utility.yul\":9399:9400   */\n      0x00\n        /* \"#utility.yul\":9391:9397   */\n      dup3\n        /* \"#utility.yul\":9387:9401   */\n      add\n        /* \"#utility.yul\":9380:9425   */\n      mstore\n        /* \"#utility.yul\":9263:9432   */\n      pop\n      jump\t// out\n        /* \"#utility.yul\":9438:9804   */\n    tag_181:\n        /* \"#utility.yul\":9580:9583   */\n      0x00\n        /* \"#utility.yul\":9601:9668   */\n      tag_292\n        /* \"#utility.yul\":9665:9667   */\n      0x13\n        /* \"#utility.yul\":9660:9663   */\n      dup4\n        /* \"#utility.yul\":9601:9668   */\n      tag_177\n      jump\t// in\n    tag_292:\n        /* \"#utility.yul\":9594:9668   */\n      swap2\n      pop\n        /* \"#utility.yul\":9677:9770   */\n      tag_293\n        /* \"#utility.yul\":9766:9769   */\n      dup3\n        /* \"#utility.yul\":9677:9770   */\n      tag_180\n      jump\t// in\n    tag_293:\n        /* \"#utility.yul\":9795:9797   */\n      0x20\n        /* \"#utility.yul\":9790:9793   */\n      dup3\n        /* \"#utility.yul\":9786:9798   */\n      add\n        /* \"#utility.yul\":9779:9798   */\n      swap1\n      pop\n        /* \"#utility.yul\":9438:9804   */\n      swap2\n      swap1\n      pop\n      jump\t// out\n        /* \"#utility.yul\":9810:10229   */\n    tag_100:\n        /* \"#utility.yul\":9976:9980   */\n      0x00\n        /* \"#utility.yul\":10014:10016   */\n      0x20\n        /* \"#utility.yul\":10003:10012   */\n      dup3\n        /* \"#utility.yul\":9999:10017   */\n      add\n        /* \"#utility.yul\":9991:10017   */\n      swap1\n      pop\n        /* \"#utility.yul\":10063:10072   */\n      dup2\n        /* \"#utility.yul\":10057:10061   */\n      dup2\n        /* \"#utility.yul\":10053:10073   */\n      sub\n        /* \"#utility.yul\":10049:10050   */\n      0x00\n        /* \"#utility.yul\":10038:10047   */\n      dup4\n        /* \"#utility.yul\":10034:10051   */\n      add\n        /* \"#utility.yul\":10027:10074   */\n      mstore\n        /* \"#utility.yul\":10091:10222   */\n      tag_295\n        /* \"#utility.yul\":10217:10221   */\n      dup2\n        /* \"#utility.yul\":10091:10222   */\n      tag_181\n      jump\t// in\n    tag_295:\n        /* \"#utility.yul\":10083:10222   */\n      swap1\n      pop\n        /* \"#utility.yul\":9810:10229   */\n      swap2\n      swap1\n      pop\n      jump\t// out\n        /* \"#utility.yul\":10235:10409   */\n    tag_182:\n        /* \"#utility.yul\":10375:10401   */\n      0x496e73756666696369656e74206c6f7474657279206665650000000000000000\n        /* \"#utility.yul\":10371:10372   */\n      0x00\n        /* \"#utility.yul\":10363:10369   */\n      dup3\n        /* \"#utility.yul\":10359:10373   */\n      add\n        /* \"#utility.yul\":10352:10402   */\n      mstore\n        /* \"#utility.yul\":10235:10409   */\n      pop\n      jump\t// out\n        /* \"#utility.yul\":10415:10781   */\n    tag_183:\n        /* \"#utility.yul\":10557:10560   */\n      0x00\n        /* \"#utility.yul\":10578:10645   */\n      tag_298\n        /* \"#utility.yul\":10642:10644   */\n      0x18\n        /* \"#utility.yul\":10637:10640   */\n      dup4\n        /* \"#utility.yul\":10578:10645   */\n      tag_177\n      jump\t// in\n    tag_298:\n        /* \"#utility.yul\":10571:10645   */\n      swap2\n      pop\n        /* \"#utility.yul\":10654:10747   */\n      tag_299\n        /* \"#utility.yul\":10743:10746   */\n      dup3\n        /* \"#utility.yul\":10654:10747   */\n      tag_182\n      jump\t// in\n    tag_299:\n        /* \"#utility.yul\":10772:10774   */\n      0x20\n        /* \"#utility.yul\":10767:10770   */\n      dup3\n        /* \"#utility.yul\":10763:10775   */\n      add\n        /* \"#utility.yul\":10756:10775   */\n      swap1\n      pop\n        /* \"#utility.yul\":10415:10781   */\n      swap2\n      swap1\n      pop\n      jump\t// out\n        /* \"#utility.yul\":10787:11206   */\n    tag_103:\n        /* \"#utility.yul\":10953:10957   */\n      0x00\n        /* \"#utility.yul\":10991:10993   */\n      0x20\n        /* \"#utility.yul\":10980:10989   */\n      dup3\n        /* \"#utility.yul\":10976:10994   */\n      add\n        /* \"#utility.yul\":10968:10994   */\n      swap1\n      pop\n        /* \"#utility.yul\":11040:11049   */\n      dup2\n        /* \"#utility.yul\":11034:11038   */\n      dup2\n        /* \"#utility.yul\":11030:11050   */\n      sub\n        /* \"#utility.yul\":11026:11027   */\n      0x00\n        /* \"#utility.yul\":11015:11024   */\n      dup4\n        /* \"#utility.yul\":11011:11028   */\n      add\n        /* \"#utility.yul\":11004:11051   */\n      mstore\n        /* \"#utility.yul\":11068:11199   */\n      tag_301\n        /* \"#utility.yul\":11194:11198   */\n      dup2\n        /* \"#utility.yul\":11068:11199   */\n      tag_183\n      jump\t// in\n    tag_301:\n        /* \"#utility.yul\":11060:11199   */\n      swap1\n      pop\n        /* \"#utility.yul\":10787:11206   */\n      swap2\n      swap1\n      pop\n      jump\t// out\n        /* \"#utility.yul\":11212:11387   */\n    tag_184:\n        /* \"#utility.yul\":11352:11379   */\n      0x4e6f20706c617965727320696e20746865206c6f747465727900000000000000\n        /* \"#utility.yul\":11348:11349   */\n      0x00\n        /* \"#utility.yul\":11340:11346   */\n      dup3\n        /* \"#utility.yul\":11336:11350   */\n      add\n        /* \"#utility.yul\":11329:11380   */\n      mstore\n        /* \"#utility.yul\":11212:11387   */\n      pop\n      jump\t// out\n        /* \"#utility.yul\":11393:11759   */\n    tag_185:\n        /* \"#utility.yul\":11535:11538   */\n      0x00\n        /* \"#utility.yul\":11556:11623   */\n      tag_304\n        /* \"#utility.yul\":11620:11622   */\n      0x19\n        /* \"#utility.yul\":11615:11618   */\n      dup4\n        /* \"#utility.yul\":11556:11623   */\n      tag_177\n      jump\t// in\n    tag_304:\n        /* \"#utility.yul\":11549:11623   */\n      swap2\n      pop\n        /* \"#utility.yul\":11632:11725   */\n      tag_305\n        /* \"#utility.yul\":11721:11724   */\n      dup3\n        /* \"#utility.yul\":11632:11725   */\n      tag_184\n      jump\t// in\n    tag_305:\n        /* \"#utility.yul\":11750:11752   */\n      0x20\n        /* \"#utility.yul\":11745:11748   */\n      dup3\n        /* \"#utility.yul\":11741:11753   */\n      add\n        /* \"#utility.yul\":11734:11753   */\n      swap1\n      pop\n        /* \"#utility.yul\":11393:11759   */\n      swap2\n      swap1\n      pop\n      jump\t// out\n        /* \"#utility.yul\":11765:12184   */\n    tag_110:\n        /* \"#utility.yul\":11931:11935   */\n      0x00\n        /* \"#utility.yul\":11969:11971   */\n      0x20\n        /* \"#utility.yul\":11958:11967   */\n      dup3\n        /* \"#utility.yul\":11954:11972   */\n      add\n        /* \"#utility.yul\":11946:11972   */\n      swap1\n      pop\n        /* \"#utility.yul\":12018:12027   */\n      dup2\n        /* \"#utility.yul\":12012:12016   */\n      dup2\n        /* \"#utility.yul\":12008:12028   */\n      sub\n        /* \"#utility.yul\":12004:12005   */\n      0x00\n        /* \"#utility.yul\":11993:12002   */\n      dup4\n        /* \"#utility.yul\":11989:12006   */\n      add\n        /* \"#utility.yul\":11982:12029   */\n      mstore\n        /* \"#utility.yul\":12046:12177   */\n      tag_307\n        /* \"#utility.yul\":12172:12176   */\n      dup2\n        /* \"#utility.yul\":12046:12177   */\n      tag_185\n      jump\t// in\n    tag_307:\n        /* \"#utility.yul\":12038:12177   */\n      swap1\n      pop\n        /* \"#utility.yul\":11765:12184   */\n      swap2\n      swap1\n      pop\n      jump\t// out\n        /* \"#utility.yul\":12190:12838   */\n    tag_112:\n        /* \"#utility.yul\":12387:12391   */\n      0x00\n        /* \"#utility.yul\":12425:12428   */\n      0xa0\n        /* \"#utility.yul\":12414:12423   */\n      dup3\n        /* \"#utility.yul\":12410:12429   */\n      add\n        /* \"#utility.yul\":12402:12429   */\n      swap1\n      pop\n        /* \"#utility.yul\":12439:12510   */\n      tag_309\n        /* \"#utility.yul\":12507:12508   */\n      0x00\n        /* \"#utility.yul\":12496:12505   */\n      dup4\n        /* \"#utility.yul\":12492:12509   */\n      add\n        /* \"#utility.yul\":12483:12489   */\n      dup9\n        /* \"#utility.yul\":12439:12510   */\n      tag_166\n      jump\t// in\n    tag_309:\n        /* \"#utility.yul\":12520:12590   */\n      tag_310\n        /* \"#utility.yul\":12586:12588   */\n      0x20\n        /* \"#utility.yul\":12575:12584   */\n      dup4\n        /* \"#utility.yul\":12571:12589   */\n      add\n        /* \"#utility.yul\":12562:12568   */\n      dup8\n        /* \"#utility.yul\":12520:12590   */\n      tag_148\n      jump\t// in\n    tag_310:\n        /* \"#utility.yul\":12600:12670   */\n      tag_311\n        /* \"#utility.yul\":12666:12668   */\n      0x40\n        /* \"#utility.yul\":12655:12664   */\n      dup4\n        /* \"#utility.yul\":12651:12669   */\n      add\n        /* \"#utility.yul\":12642:12648   */\n      dup7\n        /* \"#utility.yul\":12600:12670   */\n      tag_172\n      jump\t// in\n    tag_311:\n        /* \"#utility.yul\":12680:12750   */\n      tag_312\n        /* \"#utility.yul\":12746:12748   */\n      0x60\n        /* \"#utility.yul\":12735:12744   */\n      dup4\n        /* \"#utility.yul\":12731:12749   */\n      add\n        /* \"#utility.yul\":12722:12728   */\n      dup6\n        /* \"#utility.yul\":12680:12750   */\n      tag_164\n      jump\t// in\n    tag_312:\n        /* \"#utility.yul\":12760:12831   */\n      tag_313\n        /* \"#utility.yul\":12826:12829   */\n      0x80\n        /* \"#utility.yul\":12815:12824   */\n      dup4\n        /* \"#utility.yul\":12811:12830   */\n      add\n        /* \"#utility.yul\":12802:12808   */\n      dup5\n        /* \"#utility.yul\":12760:12831   */\n      tag_164\n      jump\t// in\n    tag_313:\n        /* \"#utility.yul\":12190:12838   */\n      swap7\n      swap6\n      pop\n      pop\n      pop\n      pop\n      pop\n      pop\n      jump\t// out\n        /* \"#utility.yul\":12844:12987   */\n    tag_186:\n        /* \"#utility.yul\":12901:12906   */\n      0x00\n        /* \"#utility.yul\":12932:12938   */\n      dup2\n        /* \"#utility.yul\":12926:12939   */\n      mload\n        /* \"#utility.yul\":12917:12939   */\n      swap1\n      pop\n        /* \"#utility.yul\":12948:12981   */\n      tag_315\n        /* \"#utility.yul\":12975:12980   */\n      dup2\n        /* \"#utility.yul\":12948:12981   */\n      tag_153\n      jump\t// in\n    tag_315:\n        /* \"#utility.yul\":12844:12987   */\n      swap3\n      swap2\n      pop\n      pop\n      jump\t// out\n        /* \"#utility.yul\":12993:13344   */\n    tag_116:\n        /* \"#utility.yul\":13063:13069   */\n      0x00\n        /* \"#utility.yul\":13112:13114   */\n      0x20\n        /* \"#utility.yul\":13100:13109   */\n      dup3\n        /* \"#utility.yul\":13091:13098   */\n      dup5\n        /* \"#utility.yul\":13087:13110   */\n      sub\n        /* \"#utility.yul\":13083:13115   */\n      slt\n        /* \"#utility.yul\":13080:13199   */\n      iszero\n      tag_317\n      jumpi\n        /* \"#utility.yul\":13118:13197   */\n      tag_318\n      tag_150\n      jump\t// in\n    tag_318:\n        /* \"#utility.yul\":13080:13199   */\n    tag_317:\n        /* \"#utility.yul\":13238:13239   */\n      0x00\n        /* \"#utility.yul\":13263:13327   */\n      tag_319\n        /* \"#utility.yul\":13319:13326   */\n      dup5\n        /* \"#utility.yul\":13310:13316   */\n      dup3\n        /* \"#utility.yul\":13299:13308   */\n      dup6\n        /* \"#utility.yul\":13295:13317   */\n      add\n        /* \"#utility.yul\":13263:13327   */\n      tag_186\n      jump\t// in\n    tag_319:\n        /* \"#utility.yul\":13253:13327   */\n      swap2\n      pop\n        /* \"#utility.yul\":13209:13337   */\n      pop\n        /* \"#utility.yul\":12993:13344   */\n      swap3\n      swap2\n      pop\n      pop\n      jump\t// out\n        /* \"#utility.yul\":13350:13525   */\n    tag_187:\n        /* \"#utility.yul\":13490:13517   */\n      0x5265717565737420494420646f6573206e6f74206d6174636800000000000000\n        /* \"#utility.yul\":13486:13487   */\n      0x00\n        /* \"#utility.yul\":13478:13484   */\n      dup3\n        /* \"#utility.yul\":13474:13488   */\n      add\n        /* \"#utility.yul\":13467:13518   */\n      mstore\n        /* \"#utility.yul\":13350:13525   */\n      pop\n      jump\t// out\n        /* \"#utility.yul\":13531:13897   */\n    tag_188:\n        /* \"#utility.yul\":13673:13676   */\n      0x00\n        /* \"#utility.yul\":13694:13761   */\n      tag_322\n        /* \"#utility.yul\":13758:13760   */\n      0x19\n        /* \"#utility.yul\":13753:13756   */\n      dup4\n        /* \"#utility.yul\":13694:13761   */\n      tag_177\n      jump\t// in\n    tag_322:\n        /* \"#utility.yul\":13687:13761   */\n      swap2\n      pop\n        /* \"#utility.yul\":13770:13863   */\n      tag_323\n        /* \"#utility.yul\":13859:13862   */\n      dup3\n        /* \"#utility.yul\":13770:13863   */\n      tag_187\n      jump\t// in\n    tag_323:\n        /* \"#utility.yul\":13888:13890   */\n      0x20\n        /* \"#utility.yul\":13883:13886   */\n      dup3\n        /* \"#utility.yul\":13879:13891   */\n      add\n        /* \"#utility.yul\":13872:13891   */\n      swap1\n      pop\n        /* \"#utility.yul\":13531:13897   */\n      swap2\n      swap1\n      pop\n      jump\t// out\n        /* \"#utility.yul\":13903:14322   */\n    tag_122:\n        /* \"#utility.yul\":14069:14073   */\n      0x00\n        /* \"#utility.yul\":14107:14109   */\n      0x20\n        /* \"#utility.yul\":14096:14105   */\n      dup3\n        /* \"#utility.yul\":14092:14110   */\n      add\n        /* \"#utility.yul\":14084:14110   */\n      swap1\n      pop\n        /* \"#utility.yul\":14156:14165   */\n      dup2\n        /* \"#utility.yul\":14150:14154   */\n      dup2\n        /* \"#utility.yul\":14146:14166   */\n      sub\n        /* \"#utility.yul\":14142:14143   */\n      0x00\n        /* \"#utility.yul\":14131:14140   */\n      dup4\n        /* \"#utility.yul\":14127:14144   */\n      add\n        /* \"#utility.yul\":14120:14167   */\n      mstore\n        /* \"#utility.yul\":14184:14315   */\n      tag_325\n        /* \"#utility.yul\":14310:14314   */\n      dup2\n        /* \"#utility.yul\":14184:14315   */\n      tag_188\n      jump\t// in\n    tag_325:\n        /* \"#utility.yul\":14176:14315   */\n      swap1\n      pop\n        /* \"#utility.yul\":13903:14322   */\n      swap2\n      swap1\n      pop\n      jump\t// out\n        /* \"#utility.yul\":14328:14508   */\n    tag_125:\n        /* \"#utility.yul\":14376:14453   */\n      0x4e487b7100000000000000000000000000000000000000000000000000000000\n        /* \"#utility.yul\":14373:14374   */\n      0x00\n        /* \"#utility.yul\":14366:14454   */\n      mstore\n        /* \"#utility.yul\":14473:14477   */\n      0x32\n        /* \"#utility.yul\":14470:14471   */\n      0x04\n        /* \"#utility.yul\":14463:14478   */\n      mstore\n        /* \"#utility.yul\":14497:14501   */\n      0x24\n        /* \"#utility.yul\":14494:14495   */\n      0x00\n        /* \"#utility.yul\":14487:14502   */\n      revert\n        /* \"#utility.yul\":14514:14694   */\n    tag_189:\n        /* \"#utility.yul\":14562:14639   */\n      0x4e487b7100000000000000000000000000000000000000000000000000000000\n        /* \"#utility.yul\":14559:14560   */\n      0x00\n        /* \"#utility.yul\":14552:14640   */\n      mstore\n        /* \"#utility.yul\":14659:14663   */\n      0x12\n        /* \"#utility.yul\":14656:14657   */\n      0x04\n        /* \"#utility.yul\":14649:14664   */\n      mstore\n        /* \"#utility.yul\":14683:14687   */\n      0x24\n        /* \"#utility.yul\":14680:14681   */\n      0x00\n        /* \"#utility.yul\":14673:14688   */\n      revert\n        /* \"#utility.yul\":14700:14876   */\n    tag_127:\n        /* \"#utility.yul\":14732:14733   */\n      0x00\n        /* \"#utility.yul\":14749:14769   */\n      tag_329\n        /* \"#utility.yul\":14767:14768   */\n      dup3\n        /* \"#utility.yul\":14749:14769   */\n      tag_152\n      jump\t// in\n    tag_329:\n        /* \"#utility.yul\":14744:14769   */\n      swap2\n      pop\n        /* \"#utility.yul\":14783:14803   */\n      tag_330\n        /* \"#utility.yul\":14801:14802   */\n      dup4\n        /* \"#utility.yul\":14783:14803   */\n      tag_152\n      jump\t// in\n    tag_330:\n        /* \"#utility.yul\":14778:14803   */\n      swap3\n      pop\n        /* \"#utility.yul\":14822:14823   */\n      dup3\n        /* \"#utility.yul\":14812:14847   */\n      tag_331\n      jumpi\n        /* \"#utility.yul\":14827:14845   */\n      tag_332\n      tag_189\n      jump\t// in\n    tag_332:\n        /* \"#utility.yul\":14812:14847   */\n    tag_331:\n        /* \"#utility.yul\":14868:14869   */\n      dup3\n        /* \"#utility.yul\":14865:14866   */\n      dup3\n        /* \"#utility.yul\":14861:14870   */\n      mod\n        /* \"#utility.yul\":14856:14870   */\n      swap1\n      pop\n        /* \"#utility.yul\":14700:14876   */\n      swap3\n      swap2\n      pop\n      pop\n      jump\t// out\n\n    auxdata: 0xa2646970667358221220d2f5025994b0c9eca1f60aa06dc4dc1b9dc948b05d078a20efa61c693b4d1a2564736f6c63430008190033\n}\n",
				"bytecode": {
					"linkReferences": {},
					"object": "610160604052738103b0a8a00be2ddc778e6e7eaa21791cd36462573ffffffffffffffffffffffffffffffffffffffff1660a09073ffffffffffffffffffffffffffffffffffffffff16815250612cf267ffffffffffffffff1660c09067ffffffffffffffff168152507f474e34a077df58807dbe9c96d3c009b23b3c6d0cce433e59bbf5b34f823bc56c5f1b60e090815250619c4063ffffffff166101009063ffffffff16815250600361ffff166101209061ffff16815250600163ffffffff166101409063ffffffff168152506040516114ec3803806114ec83398181016040528101906100ef91906101cc565b60a0518073ffffffffffffffffffffffffffffffffffffffff1660808173ffffffffffffffffffffffffffffffffffffffff16815250505060a0515f806101000a81548173ffffffffffffffffffffffffffffffffffffffff021916908373ffffffffffffffffffffffffffffffffffffffff16021790555080600181905550346002819055505f60045f6101000a81548160ff021916908315150217905550506101f7565b5f80fd5b5f819050919050565b6101ab81610199565b81146101b5575f80fd5b50565b5f815190506101c6816101a2565b92915050565b5f602082840312156101e1576101e0610195565b5b5f6101ee848285016101b8565b91505092915050565b60805160a05160c05160e05161010051610120516101405161127a6102725f395f81816104c801526107d801525f8181610510015261079601525f818161047a01526107b701525f818161049e015261075401525f818161032b015261077501525f6104ec01525f81816103ba015261040e015261127a5ff3fe6080604052600436106100e7575f3560e01c8063a3e56fa811610089578063c60c4ae911610058578063c60c4ae914610283578063e0c86289146102ad578063f71d96cb146102c3578063fc2a88c3146102ff576100e7565b8063a3e56fa8146101fb578063b0fb162f14610225578063c1196ecf1461024f578063c1af578514610279576100e7565b806324f74697116100c557806324f746971461015357806361728f391461017d57806378aa08ed146101a75780637ccfd7fc146101d1576100e7565b806309c1ba2e146100eb578063160344e2146101155780631fe543e31461012b575b5f80fd5b3480156100f6575f80fd5b506100ff610329565b60405161010c9190610b30565b60405180910390f35b348015610120575f80fd5b5061012961034d565b005b348015610136575f80fd5b50610151600480360381019061014c9190610cdd565b6103b8565b005b34801561015e575f80fd5b50610167610478565b6040516101749190610d55565b60405180910390f35b348015610188575f80fd5b5061019161049c565b60405161019e9190610d86565b60405180910390f35b3480156101b2575f80fd5b506101bb6104c0565b6040516101c89190610dae565b60405180910390f35b3480156101dc575f80fd5b506101e56104c6565b6040516101f29190610d55565b60405180910390f35b348015610206575f80fd5b5061020f6104ea565b60405161021c9190610e06565b60405180910390f35b348015610230575f80fd5b5061023961050e565b6040516102469190610e3b565b60405180910390f35b34801561025a575f80fd5b50610263610532565b6040516102709190610dae565b60405180910390f35b610281610538565b005b34801561028e575f80fd5b50610297610670565b6040516102a49190610e6e565b60405180910390f35b3480156102b8575f80fd5b506102c1610682565b005b3480156102ce575f80fd5b506102e960048036038101906102e49190610e87565b61085f565b6040516102f69190610ed2565b60405180910390f35b34801561030a575f80fd5b5061031361089a565b6040516103209190610dae565b60405180910390f35b7f000000000000000000000000000000000000000000000000000000000000000081565b60045f9054906101000a900460ff161561039c576040517f08c379a000000000000000000000000000000000000000000000000000000000815260040161039390610f45565b60405180910390fd5b600160045f6101000a81548160ff021916908315150217905550565b7f000000000000000000000000000000000000000000000000000000000000000073ffffffffffffffffffffffffffffffffffffffff163373ffffffffffffffffffffffffffffffffffffffff161461046a57337f00000000000000000000000000000000000000000000000000000000000000006040517f1cf993f4000000000000000000000000000000000000000000000000000000008152600401610461929190610f63565b60405180910390fd5b61047482826108a0565b5050565b7f000000000000000000000000000000000000000000000000000000000000000081565b7f000000000000000000000000000000000000000000000000000000000000000081565b60015481565b7f000000000000000000000000000000000000000000000000000000000000000081565b7f000000000000000000000000000000000000000000000000000000000000000081565b7f000000000000000000000000000000000000000000000000000000000000000081565b60025481565b60045f9054906101000a900460ff16610586576040517f08c379a000000000000000000000000000000000000000000000000000000000815260040161057d90610fd4565b60405180910390fd5b6001543410156105cb576040517f08c379a00000000000000000000000000000000000000000000000000000000081526004016105c29061103c565b60405180910390fd5b600333908060018154018082558091505060019003905f5260205f20015f9091909190916101000a81548173ffffffffffffffffffffffffffffffffffffffff021916908373ffffffffffffffffffffffffffffffffffffffff1602179055503373ffffffffffffffffffffffffffffffffffffffff167f4c72b57c1ca715219cf2c7be9edc8a3ea19dfb9a76fb7a05e2a8062a027ee97060405160405180910390a2565b60045f9054906101000a900460ff1681565b60045f9054906101000a900460ff166106d0576040517f08c379a00000000000000000000000000000000000000000000000000000000081526004016106c790610fd4565b60405180910390fd5b5f60038054905011610717576040517f08c379a000000000000000000000000000000000000000000000000000000000815260040161070e906110a4565b60405180910390fd5b5f8054906101000a900473ffffffffffffffffffffffffffffffffffffffff1673ffffffffffffffffffffffffffffffffffffffff16635d3b1d307f00000000000000000000000000000000000000000000000000000000000000007f00000000000000000000000000000000000000000000000000000000000000007f00000000000000000000000000000000000000000000000000000000000000007f00000000000000000000000000000000000000000000000000000000000000007f00000000000000000000000000000000000000000000000000000000000000006040518663ffffffff1660e01b81526004016108179594939291906110c2565b6020604051808303815f875af1158015610833573d5f803e3d5ffd5b505050506040513d601f19601f820116820180604052508101906108579190611127565b600581905550565b6003818154811061086e575f80fd5b905f5260205f20015f915054906101000a900473ffffffffffffffffffffffffffffffffffffffff1681565b60055481565b60055482146108e4576040517f08c379a00000000000000000000000000000000000000000000000000000000081526004016108db9061119c565b60405180910390fd5b5f600380549050825f815181106108fe576108fd6111ba565b5b60200260200101516109109190611214565b90505f60038281548110610927576109266111ba565b5b905f5260205f20015f9054906101000a900473ffffffffffffffffffffffffffffffffffffffff1690508073ffffffffffffffffffffffffffffffffffffffff166108fc60025490811502906040515f60405180830381858888f19350505050158015610996573d5f803e3d5ffd5b508073ffffffffffffffffffffffffffffffffffffffff167f275eaacf9e506f9c68b251c2f97cf723c4fb9a3b94e42a1dfb581543c135f0c06002546040516109df9190610dae565b60405180910390a25f60045f6101000a81548160ff0219169083151502179055505f67ffffffffffffffff811115610a1a57610a19610ba1565b5b604051908082528060200260200182016040528015610a485781602001602082028036833780820191505090505b5060039080519060200190610a5e929190610a6c565b505f60028190555050505050565b828054828255905f5260205f20908101928215610ae2579160200282015b82811115610ae1578251825f6101000a81548173ffffffffffffffffffffffffffffffffffffffff021916908373ffffffffffffffffffffffffffffffffffffffff16021790555091602001919060010190610a8a565b5b509050610aef9190610af3565b5090565b5b80821115610b0a575f815f905550600101610af4565b5090565b5f67ffffffffffffffff82169050919050565b610b2a81610b0e565b82525050565b5f602082019050610b435f830184610b21565b92915050565b5f604051905090565b5f80fd5b5f80fd5b5f819050919050565b610b6c81610b5a565b8114610b76575f80fd5b50565b5f81359050610b8781610b63565b92915050565b5f80fd5b5f601f19601f8301169050919050565b7f4e487b71000000000000000000000000000000000000000000000000000000005f52604160045260245ffd5b610bd782610b91565b810181811067ffffffffffffffff82111715610bf657610bf5610ba1565b5b80604052505050565b5f610c08610b49565b9050610c148282610bce565b919050565b5f67ffffffffffffffff821115610c3357610c32610ba1565b5b602082029050602081019050919050565b5f80fd5b5f610c5a610c5584610c19565b610bff565b90508083825260208201905060208402830185811115610c7d57610c7c610c44565b5b835b81811015610ca65780610c928882610b79565b845260208401935050602081019050610c7f565b5050509392505050565b5f82601f830112610cc457610cc3610b8d565b5b8135610cd4848260208601610c48565b91505092915050565b5f8060408385031215610cf357610cf2610b52565b5b5f610d0085828601610b79565b925050602083013567ffffffffffffffff811115610d2157610d20610b56565b5b610d2d85828601610cb0565b9150509250929050565b5f63ffffffff82169050919050565b610d4f81610d37565b82525050565b5f602082019050610d685f830184610d46565b92915050565b5f819050919050565b610d8081610d6e565b82525050565b5f602082019050610d995f830184610d77565b92915050565b610da881610b5a565b82525050565b5f602082019050610dc15f830184610d9f565b92915050565b5f73ffffffffffffffffffffffffffffffffffffffff82169050919050565b5f610df082610dc7565b9050919050565b610e0081610de6565b82525050565b5f602082019050610e195f830184610df7565b92915050565b5f61ffff82169050919050565b610e3581610e1f565b82525050565b5f602082019050610e4e5f830184610e2c565b92915050565b5f8115159050919050565b610e6881610e54565b82525050565b5f602082019050610e815f830184610e5f565b92915050565b5f60208284031215610e9c57610e9b610b52565b5b5f610ea984828501610b79565b91505092915050565b5f610ebc82610dc7565b9050919050565b610ecc81610eb2565b82525050565b5f602082019050610ee55f830184610ec3565b92915050565b5f82825260208201905092915050565b7f4c6f747465727920697320616c7265616479206f70656e0000000000000000005f82015250565b5f610f2f601783610eeb565b9150610f3a82610efb565b602082019050919050565b5f6020820190508181035f830152610f5c81610f23565b9050919050565b5f604082019050610f765f830185610df7565b610f836020830184610df7565b9392505050565b7f4c6f7474657279206973206e6f74206f70656e000000000000000000000000005f82015250565b5f610fbe601383610eeb565b9150610fc982610f8a565b602082019050919050565b5f6020820190508181035f830152610feb81610fb2565b9050919050565b7f496e73756666696369656e74206c6f74746572792066656500000000000000005f82015250565b5f611026601883610eeb565b915061103182610ff2565b602082019050919050565b5f6020820190508181035f8301526110538161101a565b9050919050565b7f4e6f20706c617965727320696e20746865206c6f7474657279000000000000005f82015250565b5f61108e601983610eeb565b91506110998261105a565b602082019050919050565b5f6020820190508181035f8301526110bb81611082565b9050919050565b5f60a0820190506110d55f830188610d77565b6110e26020830187610b21565b6110ef6040830186610e2c565b6110fc6060830185610d46565b6111096080830184610d46565b9695505050505050565b5f8151905061112181610b63565b92915050565b5f6020828403121561113c5761113b610b52565b5b5f61114984828501611113565b91505092915050565b7f5265717565737420494420646f6573206e6f74206d61746368000000000000005f82015250565b5f611186601983610eeb565b915061119182611152565b602082019050919050565b5f6020820190508181035f8301526111b38161117a565b9050919050565b7f4e487b71000000000000000000000000000000000000000000000000000000005f52603260045260245ffd5b7f4e487b71000000000000000000000000000000000000000000000000000000005f52601260045260245ffd5b5f61121e82610b5a565b915061122983610b5a565b925082611239576112386111e7565b5b82820690509291505056fea2646970667358221220d2f5025994b0c9eca1f60aa06dc4dc1b9dc948b05d078a20efa61c693b4d1a2564736f6c63430008190033",
					"opcodes": "PUSH2 0x160 PUSH1 0x40 MSTORE PUSH20 0x8103B0A8A00BE2DDC778E6E7EAA21791CD364625 PUSH20 0xFFFFFFFFFFFFFFFFFFFFFFFFFFFFFFFFFFFFFFFF AND PUSH1 0xA0 SWAP1 PUSH20 0xFFFFFFFFFFFFFFFFFFFFFFFFFFFFFFFFFFFFFFFF AND DUP2 MSTORE POP PUSH2 0x2CF2 PUSH8 0xFFFFFFFFFFFFFFFF AND PUSH1 0xC0 SWAP1 PUSH8 0xFFFFFFFFFFFFFFFF AND DUP2 MSTORE POP PUSH32 0x474E34A077DF58807DBE9C96D3C009B23B3C6D0CCE433E59BBF5B34F823BC56C PUSH0 SHL PUSH1 0xE0 SWAP1 DUP2 MSTORE POP PUSH2 0x9C40 PUSH4 0xFFFFFFFF AND PUSH2 0x100 SWAP1 PUSH4 0xFFFFFFFF AND DUP2 MSTORE POP PUSH1 0x3 PUSH2 0xFFFF AND PUSH2 0x120 SWAP1 PUSH2 0xFFFF AND DUP2 MSTORE POP PUSH1 0x1 PUSH4 0xFFFFFFFF AND PUSH2 0x140 SWAP1 PUSH4 0xFFFFFFFF AND DUP2 MSTORE POP PUSH1 0x40 MLOAD PUSH2 0x14EC CODESIZE SUB DUP1 PUSH2 0x14EC DUP4 CODECOPY DUP2 DUP2 ADD PUSH1 0x40 MSTORE DUP2 ADD SWAP1 PUSH2 0xEF SWAP2 SWAP1 PUSH2 0x1CC JUMP JUMPDEST PUSH1 0xA0 MLOAD DUP1 PUSH20 0xFFFFFFFFFFFFFFFFFFFFFFFFFFFFFFFFFFFFFFFF AND PUSH1 0x80 DUP2 PUSH20 0xFFFFFFFFFFFFFFFFFFFFFFFFFFFFFFFFFFFFFFFF AND DUP2 MSTORE POP POP POP PUSH1 0xA0 MLOAD PUSH0 DUP1 PUSH2 0x100 EXP DUP2 SLOAD DUP2 PUSH20 0xFFFFFFFFFFFFFFFFFFFFFFFFFFFFFFFFFFFFFFFF MUL NOT AND SWAP1 DUP4 PUSH20 0xFFFFFFFFFFFFFFFFFFFFFFFFFFFFFFFFFFFFFFFF AND MUL OR SWAP1 SSTORE POP DUP1 PUSH1 0x1 DUP2 SWAP1 SSTORE POP CALLVALUE PUSH1 0x2 DUP2 SWAP1 SSTORE POP PUSH0 PUSH1 0x4 PUSH0 PUSH2 0x100 EXP DUP2 SLOAD DUP2 PUSH1 0xFF MUL NOT AND SWAP1 DUP4 ISZERO ISZERO MUL OR SWAP1 SSTORE POP POP PUSH2 0x1F7 JUMP JUMPDEST PUSH0 DUP1 REVERT JUMPDEST PUSH0 DUP2 SWAP1 POP SWAP2 SWAP1 POP JUMP JUMPDEST PUSH2 0x1AB DUP2 PUSH2 0x199 JUMP JUMPDEST DUP2 EQ PUSH2 0x1B5 JUMPI PUSH0 DUP1 REVERT JUMPDEST POP JUMP JUMPDEST PUSH0 DUP2 MLOAD SWAP1 POP PUSH2 0x1C6 DUP2 PUSH2 0x1A2 JUMP JUMPDEST SWAP3 SWAP2 POP POP JUMP JUMPDEST PUSH0 PUSH1 0x20 DUP3 DUP5 SUB SLT ISZERO PUSH2 0x1E1 JUMPI PUSH2 0x1E0 PUSH2 0x195 JUMP JUMPDEST JUMPDEST PUSH0 PUSH2 0x1EE DUP5 DUP3 DUP6 ADD PUSH2 0x1B8 JUMP JUMPDEST SWAP2 POP POP SWAP3 SWAP2 POP POP JUMP JUMPDEST PUSH1 0x80 MLOAD PUSH1 0xA0 MLOAD PUSH1 0xC0 MLOAD PUSH1 0xE0 MLOAD PUSH2 0x100 MLOAD PUSH2 0x120 MLOAD PUSH2 0x140 MLOAD PUSH2 0x127A PUSH2 0x272 PUSH0 CODECOPY PUSH0 DUP2 DUP2 PUSH2 0x4C8 ADD MSTORE PUSH2 0x7D8 ADD MSTORE PUSH0 DUP2 DUP2 PUSH2 0x510 ADD MSTORE PUSH2 0x796 ADD MSTORE PUSH0 DUP2 DUP2 PUSH2 0x47A ADD MSTORE PUSH2 0x7B7 ADD MSTORE PUSH0 DUP2 DUP2 PUSH2 0x49E ADD MSTORE PUSH2 0x754 ADD MSTORE PUSH0 DUP2 DUP2 PUSH2 0x32B ADD MSTORE PUSH2 0x775 ADD MSTORE PUSH0 PUSH2 0x4EC ADD MSTORE PUSH0 DUP2 DUP2 PUSH2 0x3BA ADD MSTORE PUSH2 0x40E ADD MSTORE PUSH2 0x127A PUSH0 RETURN INVALID PUSH1 0x80 PUSH1 0x40 MSTORE PUSH1 0x4 CALLDATASIZE LT PUSH2 0xE7 JUMPI PUSH0 CALLDATALOAD PUSH1 0xE0 SHR DUP1 PUSH4 0xA3E56FA8 GT PUSH2 0x89 JUMPI DUP1 PUSH4 0xC60C4AE9 GT PUSH2 0x58 JUMPI DUP1 PUSH4 0xC60C4AE9 EQ PUSH2 0x283 JUMPI DUP1 PUSH4 0xE0C86289 EQ PUSH2 0x2AD JUMPI DUP1 PUSH4 0xF71D96CB EQ PUSH2 0x2C3 JUMPI DUP1 PUSH4 0xFC2A88C3 EQ PUSH2 0x2FF JUMPI PUSH2 0xE7 JUMP JUMPDEST DUP1 PUSH4 0xA3E56FA8 EQ PUSH2 0x1FB JUMPI DUP1 PUSH4 0xB0FB162F EQ PUSH2 0x225 JUMPI DUP1 PUSH4 0xC1196ECF EQ PUSH2 0x24F JUMPI DUP1 PUSH4 0xC1AF5785 EQ PUSH2 0x279 JUMPI PUSH2 0xE7 JUMP JUMPDEST DUP1 PUSH4 0x24F74697 GT PUSH2 0xC5 JUMPI DUP1 PUSH4 0x24F74697 EQ PUSH2 0x153 JUMPI DUP1 PUSH4 0x61728F39 EQ PUSH2 0x17D JUMPI DUP1 PUSH4 0x78AA08ED EQ PUSH2 0x1A7 JUMPI DUP1 PUSH4 0x7CCFD7FC EQ PUSH2 0x1D1 JUMPI PUSH2 0xE7 JUMP JUMPDEST DUP1 PUSH4 0x9C1BA2E EQ PUSH2 0xEB JUMPI DUP1 PUSH4 0x160344E2 EQ PUSH2 0x115 JUMPI DUP1 PUSH4 0x1FE543E3 EQ PUSH2 0x12B JUMPI JUMPDEST PUSH0 DUP1 REVERT JUMPDEST CALLVALUE DUP1 ISZERO PUSH2 0xF6 JUMPI PUSH0 DUP1 REVERT JUMPDEST POP PUSH2 0xFF PUSH2 0x329 JUMP JUMPDEST PUSH1 0x40 MLOAD PUSH2 0x10C SWAP2 SWAP1 PUSH2 0xB30 JUMP JUMPDEST PUSH1 0x40 MLOAD DUP1 SWAP2 SUB SWAP1 RETURN JUMPDEST CALLVALUE DUP1 ISZERO PUSH2 0x120 JUMPI PUSH0 DUP1 REVERT JUMPDEST POP PUSH2 0x129 PUSH2 0x34D JUMP JUMPDEST STOP JUMPDEST CALLVALUE DUP1 ISZERO PUSH2 0x136 JUMPI PUSH0 DUP1 REVERT JUMPDEST POP PUSH2 0x151 PUSH1 0x4 DUP1 CALLDATASIZE SUB DUP2 ADD SWAP1 PUSH2 0x14C SWAP2 SWAP1 PUSH2 0xCDD JUMP JUMPDEST PUSH2 0x3B8 JUMP JUMPDEST STOP JUMPDEST CALLVALUE DUP1 ISZERO PUSH2 0x15E JUMPI PUSH0 DUP1 REVERT JUMPDEST POP PUSH2 0x167 PUSH2 0x478 JUMP JUMPDEST PUSH1 0x40 MLOAD PUSH2 0x174 SWAP2 SWAP1 PUSH2 0xD55 JUMP JUMPDEST PUSH1 0x40 MLOAD DUP1 SWAP2 SUB SWAP1 RETURN JUMPDEST CALLVALUE DUP1 ISZERO PUSH2 0x188 JUMPI PUSH0 DUP1 REVERT JUMPDEST POP PUSH2 0x191 PUSH2 0x49C JUMP JUMPDEST PUSH1 0x40 MLOAD PUSH2 0x19E SWAP2 SWAP1 PUSH2 0xD86 JUMP JUMPDEST PUSH1 0x40 MLOAD DUP1 SWAP2 SUB SWAP1 RETURN JUMPDEST CALLVALUE DUP1 ISZERO PUSH2 0x1B2 JUMPI PUSH0 DUP1 REVERT JUMPDEST POP PUSH2 0x1BB PUSH2 0x4C0 JUMP JUMPDEST PUSH1 0x40 MLOAD PUSH2 0x1C8 SWAP2 SWAP1 PUSH2 0xDAE JUMP JUMPDEST PUSH1 0x40 MLOAD DUP1 SWAP2 SUB SWAP1 RETURN JUMPDEST CALLVALUE DUP1 ISZERO PUSH2 0x1DC JUMPI PUSH0 DUP1 REVERT JUMPDEST POP PUSH2 0x1E5 PUSH2 0x4C6 JUMP JUMPDEST PUSH1 0x40 MLOAD PUSH2 0x1F2 SWAP2 SWAP1 PUSH2 0xD55 JUMP JUMPDEST PUSH1 0x40 MLOAD DUP1 SWAP2 SUB SWAP1 RETURN JUMPDEST CALLVALUE DUP1 ISZERO PUSH2 0x206 JUMPI PUSH0 DUP1 REVERT JUMPDEST POP PUSH2 0x20F PUSH2 0x4EA JUMP JUMPDEST PUSH1 0x40 MLOAD PUSH2 0x21C SWAP2 SWAP1 PUSH2 0xE06 JUMP JUMPDEST PUSH1 0x40 MLOAD DUP1 SWAP2 SUB SWAP1 RETURN JUMPDEST CALLVALUE DUP1 ISZERO PUSH2 0x230 JUMPI PUSH0 DUP1 REVERT JUMPDEST POP PUSH2 0x239 PUSH2 0x50E JUMP JUMPDEST PUSH1 0x40 MLOAD PUSH2 0x246 SWAP2 SWAP1 PUSH2 0xE3B JUMP JUMPDEST PUSH1 0x40 MLOAD DUP1 SWAP2 SUB SWAP1 RETURN JUMPDEST CALLVALUE DUP1 ISZERO PUSH2 0x25A JUMPI PUSH0 DUP1 REVERT JUMPDEST POP PUSH2 0x263 PUSH2 0x532 JUMP JUMPDEST PUSH1 0x40 MLOAD PUSH2 0x270 SWAP2 SWAP1 PUSH2 0xDAE JUMP JUMPDEST PUSH1 0x40 MLOAD DUP1 SWAP2 SUB SWAP1 RETURN JUMPDEST PUSH2 0x281 PUSH2 0x538 JUMP JUMPDEST STOP JUMPDEST CALLVALUE DUP1 ISZERO PUSH2 0x28E JUMPI PUSH0 DUP1 REVERT JUMPDEST POP PUSH2 0x297 PUSH2 0x670 JUMP JUMPDEST PUSH1 0x40 MLOAD PUSH2 0x2A4 SWAP2 SWAP1 PUSH2 0xE6E JUMP JUMPDEST PUSH1 0x40 MLOAD DUP1 SWAP2 SUB SWAP1 RETURN JUMPDEST CALLVALUE DUP1 ISZERO PUSH2 0x2B8 JUMPI PUSH0 DUP1 REVERT JUMPDEST POP PUSH2 0x2C1 PUSH2 0x682 JUMP JUMPDEST STOP JUMPDEST CALLVALUE DUP1 ISZERO PUSH2 0x2CE JUMPI PUSH0 DUP1 REVERT JUMPDEST POP PUSH2 0x2E9 PUSH1 0x4 DUP1 CALLDATASIZE SUB DUP2 ADD SWAP1 PUSH2 0x2E4 SWAP2 SWAP1 PUSH2 0xE87 JUMP JUMPDEST PUSH2 0x85F JUMP JUMPDEST PUSH1 0x40 MLOAD PUSH2 0x2F6 SWAP2 SWAP1 PUSH2 0xED2 JUMP JUMPDEST PUSH1 0x40 MLOAD DUP1 SWAP2 SUB SWAP1 RETURN JUMPDEST CALLVALUE DUP1 ISZERO PUSH2 0x30A JUMPI PUSH0 DUP1 REVERT JUMPDEST POP PUSH2 0x313 PUSH2 0x89A JUMP JUMPDEST PUSH1 0x40 MLOAD PUSH2 0x320 SWAP2 SWAP1 PUSH2 0xDAE JUMP JUMPDEST PUSH1 0x40 MLOAD DUP1 SWAP2 SUB SWAP1 RETURN JUMPDEST PUSH32 0x0 DUP2 JUMP JUMPDEST PUSH1 0x4 PUSH0 SWAP1 SLOAD SWAP1 PUSH2 0x100 EXP SWAP1 DIV PUSH1 0xFF AND ISZERO PUSH2 0x39C JUMPI PUSH1 0x40 MLOAD PUSH32 0x8C379A000000000000000000000000000000000000000000000000000000000 DUP2 MSTORE PUSH1 0x4 ADD PUSH2 0x393 SWAP1 PUSH2 0xF45 JUMP JUMPDEST PUSH1 0x40 MLOAD DUP1 SWAP2 SUB SWAP1 REVERT JUMPDEST PUSH1 0x1 PUSH1 0x4 PUSH0 PUSH2 0x100 EXP DUP2 SLOAD DUP2 PUSH1 0xFF MUL NOT AND SWAP1 DUP4 ISZERO ISZERO MUL OR SWAP1 SSTORE POP JUMP JUMPDEST PUSH32 0x0 PUSH20 0xFFFFFFFFFFFFFFFFFFFFFFFFFFFFFFFFFFFFFFFF AND CALLER PUSH20 0xFFFFFFFFFFFFFFFFFFFFFFFFFFFFFFFFFFFFFFFF AND EQ PUSH2 0x46A JUMPI CALLER PUSH32 0x0 PUSH1 0x40 MLOAD PUSH32 0x1CF993F400000000000000000000000000000000000000000000000000000000 DUP2 MSTORE PUSH1 0x4 ADD PUSH2 0x461 SWAP3 SWAP2 SWAP1 PUSH2 0xF63 JUMP JUMPDEST PUSH1 0x40 MLOAD DUP1 SWAP2 SUB SWAP1 REVERT JUMPDEST PUSH2 0x474 DUP3 DUP3 PUSH2 0x8A0 JUMP JUMPDEST POP POP JUMP JUMPDEST PUSH32 0x0 DUP2 JUMP JUMPDEST PUSH32 0x0 DUP2 JUMP JUMPDEST PUSH1 0x1 SLOAD DUP2 JUMP JUMPDEST PUSH32 0x0 DUP2 JUMP JUMPDEST PUSH32 0x0 DUP2 JUMP JUMPDEST PUSH32 0x0 DUP2 JUMP JUMPDEST PUSH1 0x2 SLOAD DUP2 JUMP JUMPDEST PUSH1 0x4 PUSH0 SWAP1 SLOAD SWAP1 PUSH2 0x100 EXP SWAP1 DIV PUSH1 0xFF AND PUSH2 0x586 JUMPI PUSH1 0x40 MLOAD PUSH32 0x8C379A000000000000000000000000000000000000000000000000000000000 DUP2 MSTORE PUSH1 0x4 ADD PUSH2 0x57D SWAP1 PUSH2 0xFD4 JUMP JUMPDEST PUSH1 0x40 MLOAD DUP1 SWAP2 SUB SWAP1 REVERT JUMPDEST PUSH1 0x1 SLOAD CALLVALUE LT ISZERO PUSH2 0x5CB JUMPI PUSH1 0x40 MLOAD PUSH32 0x8C379A000000000000000000000000000000000000000000000000000000000 DUP2 MSTORE PUSH1 0x4 ADD PUSH2 0x5C2 SWAP1 PUSH2 0x103C JUMP JUMPDEST PUSH1 0x40 MLOAD DUP1 SWAP2 SUB SWAP1 REVERT JUMPDEST PUSH1 0x3 CALLER SWAP1 DUP1 PUSH1 0x1 DUP2 SLOAD ADD DUP1 DUP3 SSTORE DUP1 SWAP2 POP POP PUSH1 0x1 SWAP1 SUB SWAP1 PUSH0 MSTORE PUSH1 0x20 PUSH0 KECCAK256 ADD PUSH0 SWAP1 SWAP2 SWAP1 SWAP2 SWAP1 SWAP2 PUSH2 0x100 EXP DUP2 SLOAD DUP2 PUSH20 0xFFFFFFFFFFFFFFFFFFFFFFFFFFFFFFFFFFFFFFFF MUL NOT AND SWAP1 DUP4 PUSH20 0xFFFFFFFFFFFFFFFFFFFFFFFFFFFFFFFFFFFFFFFF AND MUL OR SWAP1 SSTORE POP CALLER PUSH20 0xFFFFFFFFFFFFFFFFFFFFFFFFFFFFFFFFFFFFFFFF AND PUSH32 0x4C72B57C1CA715219CF2C7BE9EDC8A3EA19DFB9A76FB7A05E2A8062A027EE970 PUSH1 0x40 MLOAD PUSH1 0x40 MLOAD DUP1 SWAP2 SUB SWAP1 LOG2 JUMP JUMPDEST PUSH1 0x4 PUSH0 SWAP1 SLOAD SWAP1 PUSH2 0x100 EXP SWAP1 DIV PUSH1 0xFF AND DUP2 JUMP JUMPDEST PUSH1 0x4 PUSH0 SWAP1 SLOAD SWAP1 PUSH2 0x100 EXP SWAP1 DIV PUSH1 0xFF AND PUSH2 0x6D0 JUMPI PUSH1 0x40 MLOAD PUSH32 0x8C379A000000000000000000000000000000000000000000000000000000000 DUP2 MSTORE PUSH1 0x4 ADD PUSH2 0x6C7 SWAP1 PUSH2 0xFD4 JUMP JUMPDEST PUSH1 0x40 MLOAD DUP1 SWAP2 SUB SWAP1 REVERT JUMPDEST PUSH0 PUSH1 0x3 DUP1 SLOAD SWAP1 POP GT PUSH2 0x717 JUMPI PUSH1 0x40 MLOAD PUSH32 0x8C379A000000000000000000000000000000000000000000000000000000000 DUP2 MSTORE PUSH1 0x4 ADD PUSH2 0x70E SWAP1 PUSH2 0x10A4 JUMP JUMPDEST PUSH1 0x40 MLOAD DUP1 SWAP2 SUB SWAP1 REVERT JUMPDEST PUSH0 DUP1 SLOAD SWAP1 PUSH2 0x100 EXP SWAP1 DIV PUSH20 0xFFFFFFFFFFFFFFFFFFFFFFFFFFFFFFFFFFFFFFFF AND PUSH20 0xFFFFFFFFFFFFFFFFFFFFFFFFFFFFFFFFFFFFFFFF AND PUSH4 0x5D3B1D30 PUSH32 0x0 PUSH32 0x0 PUSH32 0x0 PUSH32 0x0 PUSH32 0x0 PUSH1 0x40 MLOAD DUP7 PUSH4 0xFFFFFFFF AND PUSH1 0xE0 SHL DUP2 MSTORE PUSH1 0x4 ADD PUSH2 0x817 SWAP6 SWAP5 SWAP4 SWAP3 SWAP2 SWAP1 PUSH2 0x10C2 JUMP JUMPDEST PUSH1 0x20 PUSH1 0x40 MLOAD DUP1 DUP4 SUB DUP2 PUSH0 DUP8 GAS CALL ISZERO DUP1 ISZERO PUSH2 0x833 JUMPI RETURNDATASIZE PUSH0 DUP1 RETURNDATACOPY RETURNDATASIZE PUSH0 REVERT JUMPDEST POP POP POP POP PUSH1 0x40 MLOAD RETURNDATASIZE PUSH1 0x1F NOT PUSH1 0x1F DUP3 ADD AND DUP3 ADD DUP1 PUSH1 0x40 MSTORE POP DUP2 ADD SWAP1 PUSH2 0x857 SWAP2 SWAP1 PUSH2 0x1127 JUMP JUMPDEST PUSH1 0x5 DUP2 SWAP1 SSTORE POP JUMP JUMPDEST PUSH1 0x3 DUP2 DUP2 SLOAD DUP2 LT PUSH2 0x86E JUMPI PUSH0 DUP1 REVERT JUMPDEST SWAP1 PUSH0 MSTORE PUSH1 0x20 PUSH0 KECCAK256 ADD PUSH0 SWAP2 POP SLOAD SWAP1 PUSH2 0x100 EXP SWAP1 DIV PUSH20 0xFFFFFFFFFFFFFFFFFFFFFFFFFFFFFFFFFFFFFFFF AND DUP2 JUMP JUMPDEST PUSH1 0x5 SLOAD DUP2 JUMP JUMPDEST PUSH1 0x5 SLOAD DUP3 EQ PUSH2 0x8E4 JUMPI PUSH1 0x40 MLOAD PUSH32 0x8C379A000000000000000000000000000000000000000000000000000000000 DUP2 MSTORE PUSH1 0x4 ADD PUSH2 0x8DB SWAP1 PUSH2 0x119C JUMP JUMPDEST PUSH1 0x40 MLOAD DUP1 SWAP2 SUB SWAP1 REVERT JUMPDEST PUSH0 PUSH1 0x3 DUP1 SLOAD SWAP1 POP DUP3 PUSH0 DUP2 MLOAD DUP2 LT PUSH2 0x8FE JUMPI PUSH2 0x8FD PUSH2 0x11BA JUMP JUMPDEST JUMPDEST PUSH1 0x20 MUL PUSH1 0x20 ADD ADD MLOAD PUSH2 0x910 SWAP2 SWAP1 PUSH2 0x1214 JUMP JUMPDEST SWAP1 POP PUSH0 PUSH1 0x3 DUP3 DUP2 SLOAD DUP2 LT PUSH2 0x927 JUMPI PUSH2 0x926 PUSH2 0x11BA JUMP JUMPDEST JUMPDEST SWAP1 PUSH0 MSTORE PUSH1 0x20 PUSH0 KECCAK256 ADD PUSH0 SWAP1 SLOAD SWAP1 PUSH2 0x100 EXP SWAP1 DIV PUSH20 0xFFFFFFFFFFFFFFFFFFFFFFFFFFFFFFFFFFFFFFFF AND SWAP1 POP DUP1 PUSH20 0xFFFFFFFFFFFFFFFFFFFFFFFFFFFFFFFFFFFFFFFF AND PUSH2 0x8FC PUSH1 0x2 SLOAD SWAP1 DUP2 ISZERO MUL SWAP1 PUSH1 0x40 MLOAD PUSH0 PUSH1 0x40 MLOAD DUP1 DUP4 SUB DUP2 DUP6 DUP9 DUP9 CALL SWAP4 POP POP POP POP ISZERO DUP1 ISZERO PUSH2 0x996 JUMPI RETURNDATASIZE PUSH0 DUP1 RETURNDATACOPY RETURNDATASIZE PUSH0 REVERT JUMPDEST POP DUP1 PUSH20 0xFFFFFFFFFFFFFFFFFFFFFFFFFFFFFFFFFFFFFFFF AND PUSH32 0x275EAACF9E506F9C68B251C2F97CF723C4FB9A3B94E42A1DFB581543C135F0C0 PUSH1 0x2 SLOAD PUSH1 0x40 MLOAD PUSH2 0x9DF SWAP2 SWAP1 PUSH2 0xDAE JUMP JUMPDEST PUSH1 0x40 MLOAD DUP1 SWAP2 SUB SWAP1 LOG2 PUSH0 PUSH1 0x4 PUSH0 PUSH2 0x100 EXP DUP2 SLOAD DUP2 PUSH1 0xFF MUL NOT AND SWAP1 DUP4 ISZERO ISZERO MUL OR SWAP1 SSTORE POP PUSH0 PUSH8 0xFFFFFFFFFFFFFFFF DUP2 GT ISZERO PUSH2 0xA1A JUMPI PUSH2 0xA19 PUSH2 0xBA1 JUMP JUMPDEST JUMPDEST PUSH1 0x40 MLOAD SWAP1 DUP1 DUP3 MSTORE DUP1 PUSH1 0x20 MUL PUSH1 0x20 ADD DUP3 ADD PUSH1 0x40 MSTORE DUP1 ISZERO PUSH2 0xA48 JUMPI DUP2 PUSH1 0x20 ADD PUSH1 0x20 DUP3 MUL DUP1 CALLDATASIZE DUP4 CALLDATACOPY DUP1 DUP3 ADD SWAP2 POP POP SWAP1 POP JUMPDEST POP PUSH1 0x3 SWAP1 DUP1 MLOAD SWAP1 PUSH1 0x20 ADD SWAP1 PUSH2 0xA5E SWAP3 SWAP2 SWAP1 PUSH2 0xA6C JUMP JUMPDEST POP PUSH0 PUSH1 0x2 DUP2 SWAP1 SSTORE POP POP POP POP POP JUMP JUMPDEST DUP3 DUP1 SLOAD DUP3 DUP3 SSTORE SWAP1 PUSH0 MSTORE PUSH1 0x20 PUSH0 KECCAK256 SWAP1 DUP2 ADD SWAP3 DUP3 ISZERO PUSH2 0xAE2 JUMPI SWAP2 PUSH1 0x20 MUL DUP3 ADD JUMPDEST DUP3 DUP2 GT ISZERO PUSH2 0xAE1 JUMPI DUP3 MLOAD DUP3 PUSH0 PUSH2 0x100 EXP DUP2 SLOAD DUP2 PUSH20 0xFFFFFFFFFFFFFFFFFFFFFFFFFFFFFFFFFFFFFFFF MUL NOT AND SWAP1 DUP4 PUSH20 0xFFFFFFFFFFFFFFFFFFFFFFFFFFFFFFFFFFFFFFFF AND MUL OR SWAP1 SSTORE POP SWAP2 PUSH1 0x20 ADD SWAP2 SWAP1 PUSH1 0x1 ADD SWAP1 PUSH2 0xA8A JUMP JUMPDEST JUMPDEST POP SWAP1 POP PUSH2 0xAEF SWAP2 SWAP1 PUSH2 0xAF3 JUMP JUMPDEST POP SWAP1 JUMP JUMPDEST JUMPDEST DUP1 DUP3 GT ISZERO PUSH2 0xB0A JUMPI PUSH0 DUP2 PUSH0 SWAP1 SSTORE POP PUSH1 0x1 ADD PUSH2 0xAF4 JUMP JUMPDEST POP SWAP1 JUMP JUMPDEST PUSH0 PUSH8 0xFFFFFFFFFFFFFFFF DUP3 AND SWAP1 POP SWAP2 SWAP1 POP JUMP JUMPDEST PUSH2 0xB2A DUP2 PUSH2 0xB0E JUMP JUMPDEST DUP3 MSTORE POP POP JUMP JUMPDEST PUSH0 PUSH1 0x20 DUP3 ADD SWAP1 POP PUSH2 0xB43 PUSH0 DUP4 ADD DUP5 PUSH2 0xB21 JUMP JUMPDEST SWAP3 SWAP2 POP POP JUMP JUMPDEST PUSH0 PUSH1 0x40 MLOAD SWAP1 POP SWAP1 JUMP JUMPDEST PUSH0 DUP1 REVERT JUMPDEST PUSH0 DUP1 REVERT JUMPDEST PUSH0 DUP2 SWAP1 POP SWAP2 SWAP1 POP JUMP JUMPDEST PUSH2 0xB6C DUP2 PUSH2 0xB5A JUMP JUMPDEST DUP2 EQ PUSH2 0xB76 JUMPI PUSH0 DUP1 REVERT JUMPDEST POP JUMP JUMPDEST PUSH0 DUP2 CALLDATALOAD SWAP1 POP PUSH2 0xB87 DUP2 PUSH2 0xB63 JUMP JUMPDEST SWAP3 SWAP2 POP POP JUMP JUMPDEST PUSH0 DUP1 REVERT JUMPDEST PUSH0 PUSH1 0x1F NOT PUSH1 0x1F DUP4 ADD AND SWAP1 POP SWAP2 SWAP1 POP JUMP JUMPDEST PUSH32 0x4E487B7100000000000000000000000000000000000000000000000000000000 PUSH0 MSTORE PUSH1 0x41 PUSH1 0x4 MSTORE PUSH1 0x24 PUSH0 REVERT JUMPDEST PUSH2 0xBD7 DUP3 PUSH2 0xB91 JUMP JUMPDEST DUP2 ADD DUP2 DUP2 LT PUSH8 0xFFFFFFFFFFFFFFFF DUP3 GT OR ISZERO PUSH2 0xBF6 JUMPI PUSH2 0xBF5 PUSH2 0xBA1 JUMP JUMPDEST JUMPDEST DUP1 PUSH1 0x40 MSTORE POP POP POP JUMP JUMPDEST PUSH0 PUSH2 0xC08 PUSH2 0xB49 JUMP JUMPDEST SWAP1 POP PUSH2 0xC14 DUP3 DUP3 PUSH2 0xBCE JUMP JUMPDEST SWAP2 SWAP1 POP JUMP JUMPDEST PUSH0 PUSH8 0xFFFFFFFFFFFFFFFF DUP3 GT ISZERO PUSH2 0xC33 JUMPI PUSH2 0xC32 PUSH2 0xBA1 JUMP JUMPDEST JUMPDEST PUSH1 0x20 DUP3 MUL SWAP1 POP PUSH1 0x20 DUP2 ADD SWAP1 POP SWAP2 SWAP1 POP JUMP JUMPDEST PUSH0 DUP1 REVERT JUMPDEST PUSH0 PUSH2 0xC5A PUSH2 0xC55 DUP5 PUSH2 0xC19 JUMP JUMPDEST PUSH2 0xBFF JUMP JUMPDEST SWAP1 POP DUP1 DUP4 DUP3 MSTORE PUSH1 0x20 DUP3 ADD SWAP1 POP PUSH1 0x20 DUP5 MUL DUP4 ADD DUP6 DUP2 GT ISZERO PUSH2 0xC7D JUMPI PUSH2 0xC7C PUSH2 0xC44 JUMP JUMPDEST JUMPDEST DUP4 JUMPDEST DUP2 DUP2 LT ISZERO PUSH2 0xCA6 JUMPI DUP1 PUSH2 0xC92 DUP9 DUP3 PUSH2 0xB79 JUMP JUMPDEST DUP5 MSTORE PUSH1 0x20 DUP5 ADD SWAP4 POP POP PUSH1 0x20 DUP2 ADD SWAP1 POP PUSH2 0xC7F JUMP JUMPDEST POP POP POP SWAP4 SWAP3 POP POP POP JUMP JUMPDEST PUSH0 DUP3 PUSH1 0x1F DUP4 ADD SLT PUSH2 0xCC4 JUMPI PUSH2 0xCC3 PUSH2 0xB8D JUMP JUMPDEST JUMPDEST DUP2 CALLDATALOAD PUSH2 0xCD4 DUP5 DUP3 PUSH1 0x20 DUP7 ADD PUSH2 0xC48 JUMP JUMPDEST SWAP2 POP POP SWAP3 SWAP2 POP POP JUMP JUMPDEST PUSH0 DUP1 PUSH1 0x40 DUP4 DUP6 SUB SLT ISZERO PUSH2 0xCF3 JUMPI PUSH2 0xCF2 PUSH2 0xB52 JUMP JUMPDEST JUMPDEST PUSH0 PUSH2 0xD00 DUP6 DUP3 DUP7 ADD PUSH2 0xB79 JUMP JUMPDEST SWAP3 POP POP PUSH1 0x20 DUP4 ADD CALLDATALOAD PUSH8 0xFFFFFFFFFFFFFFFF DUP2 GT ISZERO PUSH2 0xD21 JUMPI PUSH2 0xD20 PUSH2 0xB56 JUMP JUMPDEST JUMPDEST PUSH2 0xD2D DUP6 DUP3 DUP7 ADD PUSH2 0xCB0 JUMP JUMPDEST SWAP2 POP POP SWAP3 POP SWAP3 SWAP1 POP JUMP JUMPDEST PUSH0 PUSH4 0xFFFFFFFF DUP3 AND SWAP1 POP SWAP2 SWAP1 POP JUMP JUMPDEST PUSH2 0xD4F DUP2 PUSH2 0xD37 JUMP JUMPDEST DUP3 MSTORE POP POP JUMP JUMPDEST PUSH0 PUSH1 0x20 DUP3 ADD SWAP1 POP PUSH2 0xD68 PUSH0 DUP4 ADD DUP5 PUSH2 0xD46 JUMP JUMPDEST SWAP3 SWAP2 POP POP JUMP JUMPDEST PUSH0 DUP2 SWAP1 POP SWAP2 SWAP1 POP JUMP JUMPDEST PUSH2 0xD80 DUP2 PUSH2 0xD6E JUMP JUMPDEST DUP3 MSTORE POP POP JUMP JUMPDEST PUSH0 PUSH1 0x20 DUP3 ADD SWAP1 POP PUSH2 0xD99 PUSH0 DUP4 ADD DUP5 PUSH2 0xD77 JUMP JUMPDEST SWAP3 SWAP2 POP POP JUMP JUMPDEST PUSH2 0xDA8 DUP2 PUSH2 0xB5A JUMP JUMPDEST DUP3 MSTORE POP POP JUMP JUMPDEST PUSH0 PUSH1 0x20 DUP3 ADD SWAP1 POP PUSH2 0xDC1 PUSH0 DUP4 ADD DUP5 PUSH2 0xD9F JUMP JUMPDEST SWAP3 SWAP2 POP POP JUMP JUMPDEST PUSH0 PUSH20 0xFFFFFFFFFFFFFFFFFFFFFFFFFFFFFFFFFFFFFFFF DUP3 AND SWAP1 POP SWAP2 SWAP1 POP JUMP JUMPDEST PUSH0 PUSH2 0xDF0 DUP3 PUSH2 0xDC7 JUMP JUMPDEST SWAP1 POP SWAP2 SWAP1 POP JUMP JUMPDEST PUSH2 0xE00 DUP2 PUSH2 0xDE6 JUMP JUMPDEST DUP3 MSTORE POP POP JUMP JUMPDEST PUSH0 PUSH1 0x20 DUP3 ADD SWAP1 POP PUSH2 0xE19 PUSH0 DUP4 ADD DUP5 PUSH2 0xDF7 JUMP JUMPDEST SWAP3 SWAP2 POP POP JUMP JUMPDEST PUSH0 PUSH2 0xFFFF DUP3 AND SWAP1 POP SWAP2 SWAP1 POP JUMP JUMPDEST PUSH2 0xE35 DUP2 PUSH2 0xE1F JUMP JUMPDEST DUP3 MSTORE POP POP JUMP JUMPDEST PUSH0 PUSH1 0x20 DUP3 ADD SWAP1 POP PUSH2 0xE4E PUSH0 DUP4 ADD DUP5 PUSH2 0xE2C JUMP JUMPDEST SWAP3 SWAP2 POP POP JUMP JUMPDEST PUSH0 DUP2 ISZERO ISZERO SWAP1 POP SWAP2 SWAP1 POP JUMP JUMPDEST PUSH2 0xE68 DUP2 PUSH2 0xE54 JUMP JUMPDEST DUP3 MSTORE POP POP JUMP JUMPDEST PUSH0 PUSH1 0x20 DUP3 ADD SWAP1 POP PUSH2 0xE81 PUSH0 DUP4 ADD DUP5 PUSH2 0xE5F JUMP JUMPDEST SWAP3 SWAP2 POP POP JUMP JUMPDEST PUSH0 PUSH1 0x20 DUP3 DUP5 SUB SLT ISZERO PUSH2 0xE9C JUMPI PUSH2 0xE9B PUSH2 0xB52 JUMP JUMPDEST JUMPDEST PUSH0 PUSH2 0xEA9 DUP5 DUP3 DUP6 ADD PUSH2 0xB79 JUMP JUMPDEST SWAP2 POP POP SWAP3 SWAP2 POP POP JUMP JUMPDEST PUSH0 PUSH2 0xEBC DUP3 PUSH2 0xDC7 JUMP JUMPDEST SWAP1 POP SWAP2 SWAP1 POP JUMP JUMPDEST PUSH2 0xECC DUP2 PUSH2 0xEB2 JUMP JUMPDEST DUP3 MSTORE POP POP JUMP JUMPDEST PUSH0 PUSH1 0x20 DUP3 ADD SWAP1 POP PUSH2 0xEE5 PUSH0 DUP4 ADD DUP5 PUSH2 0xEC3 JUMP JUMPDEST SWAP3 SWAP2 POP POP JUMP JUMPDEST PUSH0 DUP3 DUP3 MSTORE PUSH1 0x20 DUP3 ADD SWAP1 POP SWAP3 SWAP2 POP POP JUMP JUMPDEST PUSH32 0x4C6F747465727920697320616C7265616479206F70656E000000000000000000 PUSH0 DUP3 ADD MSTORE POP JUMP JUMPDEST PUSH0 PUSH2 0xF2F PUSH1 0x17 DUP4 PUSH2 0xEEB JUMP JUMPDEST SWAP2 POP PUSH2 0xF3A DUP3 PUSH2 0xEFB JUMP JUMPDEST PUSH1 0x20 DUP3 ADD SWAP1 POP SWAP2 SWAP1 POP JUMP JUMPDEST PUSH0 PUSH1 0x20 DUP3 ADD SWAP1 POP DUP2 DUP2 SUB PUSH0 DUP4 ADD MSTORE PUSH2 0xF5C DUP2 PUSH2 0xF23 JUMP JUMPDEST SWAP1 POP SWAP2 SWAP1 POP JUMP JUMPDEST PUSH0 PUSH1 0x40 DUP3 ADD SWAP1 POP PUSH2 0xF76 PUSH0 DUP4 ADD DUP6 PUSH2 0xDF7 JUMP JUMPDEST PUSH2 0xF83 PUSH1 0x20 DUP4 ADD DUP5 PUSH2 0xDF7 JUMP JUMPDEST SWAP4 SWAP3 POP POP POP JUMP JUMPDEST PUSH32 0x4C6F7474657279206973206E6F74206F70656E00000000000000000000000000 PUSH0 DUP3 ADD MSTORE POP JUMP JUMPDEST PUSH0 PUSH2 0xFBE PUSH1 0x13 DUP4 PUSH2 0xEEB JUMP JUMPDEST SWAP2 POP PUSH2 0xFC9 DUP3 PUSH2 0xF8A JUMP JUMPDEST PUSH1 0x20 DUP3 ADD SWAP1 POP SWAP2 SWAP1 POP JUMP JUMPDEST PUSH0 PUSH1 0x20 DUP3 ADD SWAP1 POP DUP2 DUP2 SUB PUSH0 DUP4 ADD MSTORE PUSH2 0xFEB DUP2 PUSH2 0xFB2 JUMP JUMPDEST SWAP1 POP SWAP2 SWAP1 POP JUMP JUMPDEST PUSH32 0x496E73756666696369656E74206C6F7474657279206665650000000000000000 PUSH0 DUP3 ADD MSTORE POP JUMP JUMPDEST PUSH0 PUSH2 0x1026 PUSH1 0x18 DUP4 PUSH2 0xEEB JUMP JUMPDEST SWAP2 POP PUSH2 0x1031 DUP3 PUSH2 0xFF2 JUMP JUMPDEST PUSH1 0x20 DUP3 ADD SWAP1 POP SWAP2 SWAP1 POP JUMP JUMPDEST PUSH0 PUSH1 0x20 DUP3 ADD SWAP1 POP DUP2 DUP2 SUB PUSH0 DUP4 ADD MSTORE PUSH2 0x1053 DUP2 PUSH2 0x101A JUMP JUMPDEST SWAP1 POP SWAP2 SWAP1 POP JUMP JUMPDEST PUSH32 0x4E6F20706C617965727320696E20746865206C6F747465727900000000000000 PUSH0 DUP3 ADD MSTORE POP JUMP JUMPDEST PUSH0 PUSH2 0x108E PUSH1 0x19 DUP4 PUSH2 0xEEB JUMP JUMPDEST SWAP2 POP PUSH2 0x1099 DUP3 PUSH2 0x105A JUMP JUMPDEST PUSH1 0x20 DUP3 ADD SWAP1 POP SWAP2 SWAP1 POP JUMP JUMPDEST PUSH0 PUSH1 0x20 DUP3 ADD SWAP1 POP DUP2 DUP2 SUB PUSH0 DUP4 ADD MSTORE PUSH2 0x10BB DUP2 PUSH2 0x1082 JUMP JUMPDEST SWAP1 POP SWAP2 SWAP1 POP JUMP JUMPDEST PUSH0 PUSH1 0xA0 DUP3 ADD SWAP1 POP PUSH2 0x10D5 PUSH0 DUP4 ADD DUP9 PUSH2 0xD77 JUMP JUMPDEST PUSH2 0x10E2 PUSH1 0x20 DUP4 ADD DUP8 PUSH2 0xB21 JUMP JUMPDEST PUSH2 0x10EF PUSH1 0x40 DUP4 ADD DUP7 PUSH2 0xE2C JUMP JUMPDEST PUSH2 0x10FC PUSH1 0x60 DUP4 ADD DUP6 PUSH2 0xD46 JUMP JUMPDEST PUSH2 0x1109 PUSH1 0x80 DUP4 ADD DUP5 PUSH2 0xD46 JUMP JUMPDEST SWAP7 SWAP6 POP POP POP POP POP POP JUMP JUMPDEST PUSH0 DUP2 MLOAD SWAP1 POP PUSH2 0x1121 DUP2 PUSH2 0xB63 JUMP JUMPDEST SWAP3 SWAP2 POP POP JUMP JUMPDEST PUSH0 PUSH1 0x20 DUP3 DUP5 SUB SLT ISZERO PUSH2 0x113C JUMPI PUSH2 0x113B PUSH2 0xB52 JUMP JUMPDEST JUMPDEST PUSH0 PUSH2 0x1149 DUP5 DUP3 DUP6 ADD PUSH2 0x1113 JUMP JUMPDEST SWAP2 POP POP SWAP3 SWAP2 POP POP JUMP JUMPDEST PUSH32 0x5265717565737420494420646F6573206E6F74206D6174636800000000000000 PUSH0 DUP3 ADD MSTORE POP JUMP JUMPDEST PUSH0 PUSH2 0x1186 PUSH1 0x19 DUP4 PUSH2 0xEEB JUMP JUMPDEST SWAP2 POP PUSH2 0x1191 DUP3 PUSH2 0x1152 JUMP JUMPDEST PUSH1 0x20 DUP3 ADD SWAP1 POP SWAP2 SWAP1 POP JUMP JUMPDEST PUSH0 PUSH1 0x20 DUP3 ADD SWAP1 POP DUP2 DUP2 SUB PUSH0 DUP4 ADD MSTORE PUSH2 0x11B3 DUP2 PUSH2 0x117A JUMP JUMPDEST SWAP1 POP SWAP2 SWAP1 POP JUMP JUMPDEST PUSH32 0x4E487B7100000000000000000000000000000000000000000000000000000000 PUSH0 MSTORE PUSH1 0x32 PUSH1 0x4 MSTORE PUSH1 0x24 PUSH0 REVERT JUMPDEST PUSH32 0x4E487B7100000000000000000000000000000000000000000000000000000000 PUSH0 MSTORE PUSH1 0x12 PUSH1 0x4 MSTORE PUSH1 0x24 PUSH0 REVERT JUMPDEST PUSH0 PUSH2 0x121E DUP3 PUSH2 0xB5A JUMP JUMPDEST SWAP2 POP PUSH2 0x1229 DUP4 PUSH2 0xB5A JUMP JUMPDEST SWAP3 POP DUP3 PUSH2 0x1239 JUMPI PUSH2 0x1238 PUSH2 0x11E7 JUMP JUMPDEST JUMPDEST DUP3 DUP3 MOD SWAP1 POP SWAP3 SWAP2 POP POP JUMP INVALID LOG2 PUSH5 0x6970667358 0x22 SLT KECCAK256 0xD2 CREATE2 MUL MSIZE SWAP5 0xB0 0xC9 0xEC LOG1 0xF6 EXP LOG0 PUSH14 0xC4DC1B9DC948B05D078A20EFA61C PUSH10 0x3B4D1A2564736F6C6343 STOP ADDMOD NOT STOP CALLER "
				},
				"gasEstimates": {
					"creation": {
						"codeDepositCost": "946000",
						"executionCost": "infinite",
						"totalCost": "infinite"
					},
					"external": {
						"callbackGasLimit()": "infinite",
						"enterLottery()": "54220",
						"keyHash()": "infinite",
						"lastRequestId()": "2513",
						"lotteryFee()": "2492",
						"lotteryOpen()": "2488",
						"lotteryPrize()": "2492",
						"numWords()": "infinite",
						"players(uint256)": "5010",
						"rawFulfillRandomWords(uint256,uint256[])": "infinite",
						"requestConfirmations()": "infinite",
						"requestRandomWords()": "infinite",
						"startLottery()": "26610",
						"subscriptionId()": "infinite",
						"vrfCoordinator()": "infinite"
					},
					"internal": {
						"fulfillRandomWords(uint256,uint256[] memory)": "infinite"
					}
				},
				"methodIdentifiers": {
					"callbackGasLimit()": "24f74697",
					"enterLottery()": "c1af5785",
					"keyHash()": "61728f39",
					"lastRequestId()": "fc2a88c3",
					"lotteryFee()": "78aa08ed",
					"lotteryOpen()": "c60c4ae9",
					"lotteryPrize()": "c1196ecf",
					"numWords()": "7ccfd7fc",
					"players(uint256)": "f71d96cb",
					"rawFulfillRandomWords(uint256,uint256[])": "1fe543e3",
					"requestConfirmations()": "b0fb162f",
					"requestRandomWords()": "e0c86289",
					"startLottery()": "160344e2",
					"subscriptionId()": "09c1ba2e",
					"vrfCoordinator()": "a3e56fa8"
				}
			},
			"storageLayout": {
				"storage": [
					{
						"astId": 180,
						"contract": "contracts/lottery-vrf.sol:Lottery",
						"label": "COORDINATOR",
						"offset": 0,
						"slot": "0",
						"type": "t_contract(VRFCoordinatorV2Interface)153"
					},
					{
						"astId": 182,
						"contract": "contracts/lottery-vrf.sol:Lottery",
						"label": "lotteryFee",
						"offset": 0,
						"slot": "1",
						"type": "t_uint256"
					},
					{
						"astId": 184,
						"contract": "contracts/lottery-vrf.sol:Lottery",
						"label": "lotteryPrize",
						"offset": 0,
						"slot": "2",
						"type": "t_uint256"
					},
					{
						"astId": 187,
						"contract": "contracts/lottery-vrf.sol:Lottery",
						"label": "players",
						"offset": 0,
						"slot": "3",
						"type": "t_array(t_address_payable)dyn_storage"
					},
					{
						"astId": 189,
						"contract": "contracts/lottery-vrf.sol:Lottery",
						"label": "lotteryOpen",
						"offset": 0,
						"slot": "4",
						"type": "t_bool"
					},
					{
						"astId": 191,
						"contract": "contracts/lottery-vrf.sol:Lottery",
						"label": "lastRequestId",
						"offset": 0,
						"slot": "5",
						"type": "t_uint256"
					}
				],
				"types": {
					"t_address_payable": {
						"encoding": "inplace",
						"label": "address payable",
						"numberOfBytes": "20"
					},
					"t_array(t_address_payable)dyn_storage": {
						"base": "t_address_payable",
						"encoding": "dynamic_array",
						"label": "address payable[]",
						"numberOfBytes": "32"
					},
					"t_bool": {
						"encoding": "inplace",
						"label": "bool",
						"numberOfBytes": "1"
					},
					"t_contract(VRFCoordinatorV2Interface)153": {
						"encoding": "inplace",
						"label": "contract VRFCoordinatorV2Interface",
						"numberOfBytes": "20"
					},
					"t_uint256": {
						"encoding": "inplace",
						"label": "uint256",
						"numberOfBytes": "32"
					}
				}
			},
			"userdoc": {
				"kind": "user",
				"methods": {},
				"version": 1
			}
		}
	}
}