{
	"contracts/lottery.sol": {
		"Lottery": {
			"abi": [
				{
					"inputs": [
						{
							"internalType": "uint256",
							"name": "_ticketPrice",
							"type": "uint256"
						}
					],
					"stateMutability": "payable",
					"type": "constructor"
				},
				{
					"anonymous": false,
					"inputs": [
						{
							"indexed": false,
							"internalType": "uint256",
							"name": "",
							"type": "uint256"
						}
					],
					"name": "correctpaymentRecieved",
					"type": "event"
				},
				{
					"inputs": [],
					"name": "enter",
					"outputs": [],
					"stateMutability": "payable",
					"type": "function"
				},
				{
					"inputs": [],
					"name": "getPlayers",
					"outputs": [
						{
							"internalType": "address[]",
							"name": "",
							"type": "address[]"
						}
					],
					"stateMutability": "view",
					"type": "function"
				},
				{
					"inputs": [],
					"name": "getTicketPrice",
					"outputs": [
						{
							"internalType": "uint256",
							"name": "",
							"type": "uint256"
						}
					],
					"stateMutability": "view",
					"type": "function"
				},
				{
					"inputs": [],
					"name": "getTotalPrize",
					"outputs": [
						{
							"internalType": "uint256",
							"name": "",
							"type": "uint256"
						}
					],
					"stateMutability": "view",
					"type": "function"
				},
				{
					"inputs": [],
					"name": "manager",
					"outputs": [
						{
							"internalType": "address",
							"name": "",
							"type": "address"
						}
					],
					"stateMutability": "view",
					"type": "function"
				},
				{
					"inputs": [],
					"name": "pickWinner",
					"outputs": [],
					"stateMutability": "nonpayable",
					"type": "function"
				},
				{
					"inputs": [
						{
							"internalType": "uint256",
							"name": "",
							"type": "uint256"
						}
					],
					"name": "players",
					"outputs": [
						{
							"internalType": "address",
							"name": "",
							"type": "address"
						}
					],
					"stateMutability": "view",
					"type": "function"
				}
			],
			"devdoc": {
				"kind": "dev",
				"methods": {},
				"version": 1
			},
			"evm": {
				"assembly": "    /* \"contracts/lottery.sol\":61:1481  contract Lottery {... */\n  mstore(0x40, 0x80)\n    /* \"contracts/lottery.sol\":187:332  constructor(uint _ticketPrice) payable  {... */\n  mload(0x40)\n  sub(codesize, bytecodeSize)\n  dup1\n  bytecodeSize\n  dup4\n  codecopy\n  dup2\n  dup2\n  add\n  0x40\n  mstore\n  dup2\n  add\n  swap1\n  tag_1\n  swap2\n  swap1\n  tag_2\n  jump\t// in\ntag_1:\n    /* \"contracts/lottery.sol\":247:257  msg.sender */\n  caller\n    /* \"contracts/lottery.sol\":237:244  manager */\n  0x02\n  0x00\n    /* \"contracts/lottery.sol\":237:257  manager = msg.sender */\n  0x0100\n  exp\n  dup2\n  sload\n  dup2\n  0xffffffffffffffffffffffffffffffffffffffff\n  mul\n  not\n  and\n  swap1\n  dup4\n  0xffffffffffffffffffffffffffffffffffffffff\n  and\n  mul\n  or\n  swap1\n  sstore\n  pop\n    /* \"contracts/lottery.sol\":280:289  msg.value */\n  callvalue\n    /* \"contracts/lottery.sol\":267:277  totalPrize */\n  0x00\n    /* \"contracts/lottery.sol\":267:289  totalPrize = msg.value */\n  dup2\n  swap1\n  sstore\n  pop\n    /* \"contracts/lottery.sol\":313:325  _ticketPrice */\n  dup1\n    /* \"contracts/lottery.sol\":299:310  ticketPrice */\n  0x01\n    /* \"contracts/lottery.sol\":299:325  ticketPrice = _ticketPrice */\n  dup2\n  swap1\n  sstore\n  pop\n    /* \"contracts/lottery.sol\":187:332  constructor(uint _ticketPrice) payable  {... */\n  pop\n    /* \"contracts/lottery.sol\":61:1481  contract Lottery {... */\n  jump(tag_5)\n    /* \"#utility.yul\":88:205   */\ntag_7:\n    /* \"#utility.yul\":197:198   */\n  0x00\n    /* \"#utility.yul\":194:195   */\n  dup1\n    /* \"#utility.yul\":187:199   */\n  revert\n    /* \"#utility.yul\":334:411   */\ntag_9:\n    /* \"#utility.yul\":371:378   */\n  0x00\n    /* \"#utility.yul\":400:405   */\n  dup2\n    /* \"#utility.yul\":389:405   */\n  swap1\n  pop\n    /* \"#utility.yul\":334:411   */\n  swap2\n  swap1\n  pop\n  jump\t// out\n    /* \"#utility.yul\":417:539   */\ntag_10:\n    /* \"#utility.yul\":490:514   */\n  tag_18\n    /* \"#utility.yul\":508:513   */\n  dup2\n    /* \"#utility.yul\":490:514   */\n  tag_9\n  jump\t// in\ntag_18:\n    /* \"#utility.yul\":483:488   */\n  dup2\n    /* \"#utility.yul\":480:515   */\n  eq\n    /* \"#utility.yul\":470:533   */\n  tag_19\n  jumpi\n    /* \"#utility.yul\":529:530   */\n  0x00\n    /* \"#utility.yul\":526:527   */\n  dup1\n    /* \"#utility.yul\":519:531   */\n  revert\n    /* \"#utility.yul\":470:533   */\ntag_19:\n    /* \"#utility.yul\":417:539   */\n  pop\n  jump\t// out\n    /* \"#utility.yul\":545:688   */\ntag_11:\n    /* \"#utility.yul\":602:607   */\n  0x00\n    /* \"#utility.yul\":633:639   */\n  dup2\n    /* \"#utility.yul\":627:640   */\n  mload\n    /* \"#utility.yul\":618:640   */\n  swap1\n  pop\n    /* \"#utility.yul\":649:682   */\n  tag_21\n    /* \"#utility.yul\":676:681   */\n  dup2\n    /* \"#utility.yul\":649:682   */\n  tag_10\n  jump\t// in\ntag_21:\n    /* \"#utility.yul\":545:688   */\n  swap3\n  swap2\n  pop\n  pop\n  jump\t// out\n    /* \"#utility.yul\":694:1045   */\ntag_2:\n    /* \"#utility.yul\":764:770   */\n  0x00\n    /* \"#utility.yul\":813:815   */\n  0x20\n    /* \"#utility.yul\":801:810   */\n  dup3\n    /* \"#utility.yul\":792:799   */\n  dup5\n    /* \"#utility.yul\":788:811   */\n  sub\n    /* \"#utility.yul\":784:816   */\n  slt\n    /* \"#utility.yul\":781:900   */\n  iszero\n  tag_23\n  jumpi\n    /* \"#utility.yul\":819:898   */\n  tag_24\n  tag_7\n  jump\t// in\ntag_24:\n    /* \"#utility.yul\":781:900   */\ntag_23:\n    /* \"#utility.yul\":939:940   */\n  0x00\n    /* \"#utility.yul\":964:1028   */\n  tag_25\n    /* \"#utility.yul\":1020:1027   */\n  dup5\n    /* \"#utility.yul\":1011:1017   */\n  dup3\n    /* \"#utility.yul\":1000:1009   */\n  dup6\n    /* \"#utility.yul\":996:1018   */\n  add\n    /* \"#utility.yul\":964:1028   */\n  tag_11\n  jump\t// in\ntag_25:\n    /* \"#utility.yul\":954:1028   */\n  swap2\n  pop\n    /* \"#utility.yul\":910:1038   */\n  pop\n    /* \"#utility.yul\":694:1045   */\n  swap3\n  swap2\n  pop\n  pop\n  jump\t// out\n    /* \"contracts/lottery.sol\":61:1481  contract Lottery {... */\ntag_5:\n  dataSize(sub_0)\n  dup1\n  dataOffset(sub_0)\n  0x00\n  codecopy\n  0x00\n  return\nstop\n\nsub_0: assembly {\n        /* \"contracts/lottery.sol\":61:1481  contract Lottery {... */\n      mstore(0x40, 0x80)\n      jumpi(tag_1, lt(calldatasize, 0x04))\n      shr(0xe0, calldataload(0x00))\n      dup1\n      0x8b5b9ccc\n      gt\n      tag_9\n      jumpi\n      dup1\n      0x8b5b9ccc\n      eq\n      tag_5\n      jumpi\n      dup1\n      0xadeaa851\n      eq\n      tag_6\n      jumpi\n      dup1\n      0xe97dcb62\n      eq\n      tag_7\n      jumpi\n      dup1\n      0xf71d96cb\n      eq\n      tag_8\n      jumpi\n      jump(tag_1)\n    tag_9:\n      dup1\n      0x481c6a75\n      eq\n      tag_2\n      jumpi\n      dup1\n      0x5d495aea\n      eq\n      tag_3\n      jumpi\n      dup1\n      0x87bb7ae0\n      eq\n      tag_4\n      jumpi\n    tag_1:\n      0x00\n      dup1\n      revert\n        /* \"contracts/lottery.sol\":127:149  address public manager */\n    tag_2:\n      callvalue\n      dup1\n      iszero\n      tag_10\n      jumpi\n      0x00\n      dup1\n      revert\n    tag_10:\n      pop\n      tag_11\n      tag_12\n      jump\t// in\n    tag_11:\n      mload(0x40)\n      tag_13\n      swap2\n      swap1\n      tag_14\n      jump\t// in\n    tag_13:\n      mload(0x40)\n      dup1\n      swap2\n      sub\n      swap1\n      return\n        /* \"contracts/lottery.sol\":783:1026  function pickWinner() public restricted {... */\n    tag_3:\n      callvalue\n      dup1\n      iszero\n      tag_15\n      jumpi\n      0x00\n      dup1\n      revert\n    tag_15:\n      pop\n      tag_16\n      tag_17\n      jump\t// in\n    tag_16:\n      stop\n        /* \"contracts/lottery.sol\":1301:1388  function getTicketPrice() public view returns (uint){... */\n    tag_4:\n      callvalue\n      dup1\n      iszero\n      tag_18\n      jumpi\n      0x00\n      dup1\n      revert\n    tag_18:\n      pop\n      tag_19\n      tag_20\n      jump\t// in\n    tag_19:\n      mload(0x40)\n      tag_21\n      swap2\n      swap1\n      tag_22\n      jump\t// in\n    tag_21:\n      mload(0x40)\n      dup1\n      swap2\n      sub\n      swap1\n      return\n        /* \"contracts/lottery.sol\":1204:1295  function getPlayers() public view returns (address[] memory){... */\n    tag_5:\n      callvalue\n      dup1\n      iszero\n      tag_23\n      jumpi\n      0x00\n      dup1\n      revert\n    tag_23:\n      pop\n      tag_24\n      tag_25\n      jump\t// in\n    tag_24:\n      mload(0x40)\n      tag_26\n      swap2\n      swap1\n      tag_27\n      jump\t// in\n    tag_26:\n      mload(0x40)\n      dup1\n      swap2\n      sub\n      swap1\n      return\n        /* \"contracts/lottery.sol\":1394:1479  function getTotalPrize() public view returns (uint){... */\n    tag_6:\n      callvalue\n      dup1\n      iszero\n      tag_28\n      jumpi\n      0x00\n      dup1\n      revert\n    tag_28:\n      pop\n      tag_29\n      tag_30\n      jump\t// in\n    tag_29:\n      mload(0x40)\n      tag_31\n      swap2\n      swap1\n      tag_22\n      jump\t// in\n    tag_31:\n      mload(0x40)\n      dup1\n      swap2\n      sub\n      swap1\n      return\n        /* \"contracts/lottery.sol\":421:557  function enter() public payable {... */\n    tag_7:\n      tag_32\n      tag_33\n      jump\t// in\n    tag_32:\n      stop\n        /* \"contracts/lottery.sol\":155:180  address [] public players */\n    tag_8:\n      callvalue\n      dup1\n      iszero\n      tag_34\n      jumpi\n      0x00\n      dup1\n      revert\n    tag_34:\n      pop\n      tag_35\n      0x04\n      dup1\n      calldatasize\n      sub\n      dup2\n      add\n      swap1\n      tag_36\n      swap2\n      swap1\n      tag_37\n      jump\t// in\n    tag_36:\n      tag_38\n      jump\t// in\n    tag_35:\n      mload(0x40)\n      tag_39\n      swap2\n      swap1\n      tag_14\n      jump\t// in\n    tag_39:\n      mload(0x40)\n      dup1\n      swap2\n      sub\n      swap1\n      return\n        /* \"contracts/lottery.sol\":127:149  address public manager */\n    tag_12:\n      0x02\n      0x00\n      swap1\n      sload\n      swap1\n      0x0100\n      exp\n      swap1\n      div\n      0xffffffffffffffffffffffffffffffffffffffff\n      and\n      dup2\n      jump\t// out\n        /* \"contracts/lottery.sol\":783:1026  function pickWinner() public restricted {... */\n    tag_17:\n        /* \"contracts/lottery.sol\":1144:1151  manager */\n      0x02\n      0x00\n      swap1\n      sload\n      swap1\n      0x0100\n      exp\n      swap1\n      div\n      0xffffffffffffffffffffffffffffffffffffffff\n      and\n        /* \"contracts/lottery.sol\":1130:1151  msg.sender == manager */\n      0xffffffffffffffffffffffffffffffffffffffff\n      and\n        /* \"contracts/lottery.sol\":1130:1140  msg.sender */\n      caller\n        /* \"contracts/lottery.sol\":1130:1151  msg.sender == manager */\n      0xffffffffffffffffffffffffffffffffffffffff\n      and\n      eq\n        /* \"contracts/lottery.sol\":1122:1152  require(msg.sender == manager) */\n      tag_41\n      jumpi\n      0x00\n      dup1\n      revert\n    tag_41:\n        /* \"contracts/lottery.sol\":833:843  uint index */\n      0x00\n        /* \"contracts/lottery.sol\":857:864  players */\n      0x03\n        /* \"contracts/lottery.sol\":857:871  players.length */\n      dup1\n      sload\n      swap1\n      pop\n        /* \"contracts/lottery.sol\":846:854  random() */\n      tag_43\n        /* \"contracts/lottery.sol\":846:852  random */\n      tag_44\n        /* \"contracts/lottery.sol\":846:854  random() */\n      jump\t// in\n    tag_43:\n        /* \"contracts/lottery.sol\":846:871  random() % players.length */\n      tag_45\n      swap2\n      swap1\n      tag_46\n      jump\t// in\n    tag_45:\n        /* \"contracts/lottery.sol\":833:871  uint index = random() % players.length */\n      swap1\n      pop\n        /* \"contracts/lottery.sol\":889:896  players */\n      0x03\n        /* \"contracts/lottery.sol\":897:902  index */\n      dup2\n        /* \"contracts/lottery.sol\":889:903  players[index] */\n      dup2\n      sload\n      dup2\n      lt\n      tag_47\n      jumpi\n      tag_48\n      tag_49\n      jump\t// in\n    tag_48:\n    tag_47:\n      swap1\n      0x00\n      mstore\n      keccak256(0x00, 0x20)\n      add\n      0x00\n      swap1\n      sload\n      swap1\n      0x0100\n      exp\n      swap1\n      div\n      0xffffffffffffffffffffffffffffffffffffffff\n      and\n        /* \"contracts/lottery.sol\":881:913  payable(players[index]).transfer */\n      0xffffffffffffffffffffffffffffffffffffffff\n      and\n        /* \"contracts/lottery.sol\":881:925  payable(players[index]).transfer(totalPrize) */\n      0x08fc\n        /* \"contracts/lottery.sol\":914:924  totalPrize */\n      sload(0x00)\n        /* \"contracts/lottery.sol\":881:925  payable(players[index]).transfer(totalPrize) */\n      swap1\n      dup2\n      iszero\n      mul\n      swap1\n      mload(0x40)\n      0x00\n      mload(0x40)\n      dup1\n      dup4\n      sub\n      dup2\n      dup6\n      dup9\n      dup9\n      call\n      swap4\n      pop\n      pop\n      pop\n      pop\n      iszero\n      dup1\n      iszero\n      tag_52\n      jumpi\n      returndatasize\n      0x00\n      dup1\n      returndatacopy\n      revert(0x00, returndatasize)\n    tag_52:\n      pop\n        /* \"contracts/lottery.sol\":943:950  manager */\n      0x02\n      0x00\n      swap1\n      sload\n      swap1\n      0x0100\n      exp\n      swap1\n      div\n      0xffffffffffffffffffffffffffffffffffffffff\n      and\n        /* \"contracts/lottery.sol\":935:960  payable(manager).transfer */\n      0xffffffffffffffffffffffffffffffffffffffff\n      and\n        /* \"contracts/lottery.sol\":935:983  payable(manager).transfer(address(this).balance) */\n      0x08fc\n        /* \"contracts/lottery.sol\":961:982  address(this).balance */\n      selfbalance\n        /* \"contracts/lottery.sol\":935:983  payable(manager).transfer(address(this).balance) */\n      swap1\n      dup2\n      iszero\n      mul\n      swap1\n      mload(0x40)\n      0x00\n      mload(0x40)\n      dup1\n      dup4\n      sub\n      dup2\n      dup6\n      dup9\n      dup9\n      call\n      swap4\n      pop\n      pop\n      pop\n      pop\n      iszero\n      dup1\n      iszero\n      tag_54\n      jumpi\n      returndatasize\n      0x00\n      dup1\n      returndatacopy\n      revert(0x00, returndatasize)\n    tag_54:\n      pop\n        /* \"contracts/lottery.sol\":1017:1018  0 */\n      0x00\n        /* \"contracts/lottery.sol\":1003:1019  new address[](0) */\n      0xffffffffffffffff\n      dup2\n      gt\n      iszero\n      tag_55\n      jumpi\n      tag_56\n      tag_57\n      jump\t// in\n    tag_56:\n    tag_55:\n      mload(0x40)\n      swap1\n      dup1\n      dup3\n      mstore\n      dup1\n      0x20\n      mul\n      0x20\n      add\n      dup3\n      add\n      0x40\n      mstore\n      dup1\n      iszero\n      tag_58\n      jumpi\n      dup2\n      0x20\n      add\n      0x20\n      dup3\n      mul\n      dup1\n      calldatasize\n      dup4\n      calldatacopy\n      dup1\n      dup3\n      add\n      swap2\n      pop\n      pop\n      swap1\n      pop\n    tag_58:\n      pop\n        /* \"contracts/lottery.sol\":993:1000  players */\n      0x03\n        /* \"contracts/lottery.sol\":993:1019  players = new address[](0) */\n      swap1\n      dup1\n      mload\n      swap1\n      0x20\n      add\n      swap1\n      tag_59\n      swap3\n      swap2\n      swap1\n      tag_60\n      jump\t// in\n    tag_59:\n      pop\n        /* \"contracts/lottery.sol\":823:1026  {... */\n      pop\n        /* \"contracts/lottery.sol\":783:1026  function pickWinner() public restricted {... */\n      jump\t// out\n        /* \"contracts/lottery.sol\":1301:1388  function getTicketPrice() public view returns (uint){... */\n    tag_20:\n        /* \"contracts/lottery.sol\":1348:1352  uint */\n      0x00\n        /* \"contracts/lottery.sol\":1370:1381  ticketPrice */\n      sload(0x01)\n        /* \"contracts/lottery.sol\":1363:1381  return ticketPrice */\n      swap1\n      pop\n        /* \"contracts/lottery.sol\":1301:1388  function getTicketPrice() public view returns (uint){... */\n      swap1\n      jump\t// out\n        /* \"contracts/lottery.sol\":1204:1295  function getPlayers() public view returns (address[] memory){... */\n    tag_25:\n        /* \"contracts/lottery.sol\":1247:1263  address[] memory */\n      0x60\n        /* \"contracts/lottery.sol\":1281:1288  players */\n      0x03\n        /* \"contracts/lottery.sol\":1274:1288  return players */\n      dup1\n      sload\n      dup1\n      0x20\n      mul\n      0x20\n      add\n      mload(0x40)\n      swap1\n      dup2\n      add\n      0x40\n      mstore\n      dup1\n      swap3\n      swap2\n      swap1\n      dup2\n      dup2\n      mstore\n      0x20\n      add\n      dup3\n      dup1\n      sload\n      dup1\n      iszero\n      tag_63\n      jumpi\n      0x20\n      mul\n      dup3\n      add\n      swap2\n      swap1\n      0x00\n      mstore\n      keccak256(0x00, 0x20)\n      swap1\n    tag_64:\n      dup2\n      0x00\n      swap1\n      sload\n      swap1\n      0x0100\n      exp\n      swap1\n      div\n      0xffffffffffffffffffffffffffffffffffffffff\n      and\n      0xffffffffffffffffffffffffffffffffffffffff\n      and\n      dup2\n      mstore\n      0x20\n      add\n      swap1\n      0x01\n      add\n      swap1\n      dup1\n      dup4\n      gt\n      tag_64\n      jumpi\n    tag_63:\n      pop\n      pop\n      pop\n      pop\n      pop\n      swap1\n      pop\n        /* \"contracts/lottery.sol\":1204:1295  function getPlayers() public view returns (address[] memory){... */\n      swap1\n      jump\t// out\n        /* \"contracts/lottery.sol\":1394:1479  function getTotalPrize() public view returns (uint){... */\n    tag_30:\n        /* \"contracts/lottery.sol\":1440:1444  uint */\n      0x00\n        /* \"contracts/lottery.sol\":1462:1472  totalPrize */\n      dup1\n      sload\n        /* \"contracts/lottery.sol\":1455:1472  return totalPrize */\n      swap1\n      pop\n        /* \"contracts/lottery.sol\":1394:1479  function getTotalPrize() public view returns (uint){... */\n      swap1\n      jump\t// out\n        /* \"contracts/lottery.sol\":421:557  function enter() public payable {... */\n    tag_33:\n        /* \"contracts/lottery.sol\":484:495  ticketPrice */\n      sload(0x01)\n        /* \"contracts/lottery.sol\":471:480  msg.value */\n      callvalue\n        /* \"contracts/lottery.sol\":471:495  msg.value == ticketPrice */\n      eq\n        /* \"contracts/lottery.sol\":463:516  require(msg.value == ticketPrice, \"Incorrect amount\") */\n      tag_67\n      jumpi\n      mload(0x40)\n      0x08c379a000000000000000000000000000000000000000000000000000000000\n      dup2\n      mstore\n      0x04\n      add\n      tag_68\n      swap1\n      tag_69\n      jump\t// in\n    tag_68:\n      mload(0x40)\n      dup1\n      swap2\n      sub\n      swap1\n      revert\n    tag_67:\n        /* \"contracts/lottery.sol\":526:533  players */\n      0x03\n        /* \"contracts/lottery.sol\":539:549  msg.sender */\n      caller\n        /* \"contracts/lottery.sol\":526:550  players.push(msg.sender) */\n      swap1\n      dup1\n      0x01\n      dup2\n      sload\n      add\n      dup1\n      dup3\n      sstore\n      dup1\n      swap2\n      pop\n      pop\n      0x01\n      swap1\n      sub\n      swap1\n      0x00\n      mstore\n      keccak256(0x00, 0x20)\n      add\n      0x00\n      swap1\n      swap2\n      swap1\n      swap2\n      swap1\n      swap2\n      0x0100\n      exp\n      dup2\n      sload\n      dup2\n      0xffffffffffffffffffffffffffffffffffffffff\n      mul\n      not\n      and\n      swap1\n      dup4\n      0xffffffffffffffffffffffffffffffffffffffff\n      and\n      mul\n      or\n      swap1\n      sstore\n      pop\n        /* \"contracts/lottery.sol\":421:557  function enter() public payable {... */\n      jump\t// out\n        /* \"contracts/lottery.sol\":155:180  address [] public players */\n    tag_38:\n      0x03\n      dup2\n      dup2\n      sload\n      dup2\n      lt\n      tag_71\n      jumpi\n      0x00\n      dup1\n      revert\n    tag_71:\n      swap1\n      0x00\n      mstore\n      keccak256(0x00, 0x20)\n      add\n      0x00\n      swap2\n      pop\n      sload\n      swap1\n      0x0100\n      exp\n      swap1\n      div\n      0xffffffffffffffffffffffffffffffffffffffff\n      and\n      dup2\n      jump\t// out\n        /* \"contracts/lottery.sol\":605:751  function random() private view returns (uint) {... */\n    tag_44:\n        /* \"contracts/lottery.sol\":645:649  uint */\n      0x00\n        /* \"contracts/lottery.sol\":700:715  block.timestamp */\n      timestamp\n        /* \"contracts/lottery.sol\":717:727  msg.sender */\n      caller\n        /* \"contracts/lottery.sol\":729:741  block.number */\n      number\n        /* \"contracts/lottery.sol\":683:742  abi.encodePacked(block.timestamp, msg.sender, block.number) */\n      add(0x20, mload(0x40))\n      tag_74\n      swap4\n      swap3\n      swap2\n      swap1\n      tag_75\n      jump\t// in\n    tag_74:\n      mload(0x40)\n      0x20\n      dup2\n      dup4\n      sub\n      sub\n      dup2\n      mstore\n      swap1\n      0x40\n      mstore\n        /* \"contracts/lottery.sol\":673:743  keccak256(abi.encodePacked(block.timestamp, msg.sender, block.number)) */\n      dup1\n      mload\n      swap1\n      0x20\n      add\n      keccak256\n        /* \"contracts/lottery.sol\":668:744  uint(keccak256(abi.encodePacked(block.timestamp, msg.sender, block.number))) */\n      0x00\n      shr\n        /* \"contracts/lottery.sol\":661:744  return uint(keccak256(abi.encodePacked(block.timestamp, msg.sender, block.number))) */\n      swap1\n      pop\n        /* \"contracts/lottery.sol\":605:751  function random() private view returns (uint) {... */\n      swap1\n      jump\t// out\n    tag_60:\n      dup3\n      dup1\n      sload\n      dup3\n      dup3\n      sstore\n      swap1\n      0x00\n      mstore\n      keccak256(0x00, 0x20)\n      swap1\n      dup2\n      add\n      swap3\n      dup3\n      iszero\n      tag_76\n      jumpi\n      swap2\n      0x20\n      mul\n      dup3\n      add\n    tag_77:\n      dup3\n      dup2\n      gt\n      iszero\n      tag_78\n      jumpi\n      dup3\n      mload\n      dup3\n      exp(0x0100, 0x00)\n      dup2\n      sload\n      dup2\n      0xffffffffffffffffffffffffffffffffffffffff\n      mul\n      not\n      and\n      swap1\n      dup4\n      0xffffffffffffffffffffffffffffffffffffffff\n      and\n      mul\n      or\n      swap1\n      sstore\n      pop\n      swap2\n      0x20\n      add\n      swap2\n      swap1\n      0x01\n      add\n      swap1\n      jump(tag_77)\n    tag_78:\n    tag_76:\n      pop\n      swap1\n      pop\n      tag_79\n      swap2\n      swap1\n      tag_80\n      jump\t// in\n    tag_79:\n      pop\n      swap1\n      jump\t// out\n    tag_80:\n    tag_81:\n      dup1\n      dup3\n      gt\n      iszero\n      tag_82\n      jumpi\n      0x00\n      dup2\n      0x00\n      swap1\n      sstore\n      pop\n      0x01\n      add\n      jump(tag_81)\n    tag_82:\n      pop\n      swap1\n      jump\t// out\n        /* \"#utility.yul\":7:133   */\n    tag_83:\n        /* \"#utility.yul\":44:51   */\n      0x00\n        /* \"#utility.yul\":84:126   */\n      0xffffffffffffffffffffffffffffffffffffffff\n        /* \"#utility.yul\":77:82   */\n      dup3\n        /* \"#utility.yul\":73:127   */\n      and\n        /* \"#utility.yul\":62:127   */\n      swap1\n      pop\n        /* \"#utility.yul\":7:133   */\n      swap2\n      swap1\n      pop\n      jump\t// out\n        /* \"#utility.yul\":139:235   */\n    tag_84:\n        /* \"#utility.yul\":176:183   */\n      0x00\n        /* \"#utility.yul\":205:229   */\n      tag_113\n        /* \"#utility.yul\":223:228   */\n      dup3\n        /* \"#utility.yul\":205:229   */\n      tag_83\n      jump\t// in\n    tag_113:\n        /* \"#utility.yul\":194:229   */\n      swap1\n      pop\n        /* \"#utility.yul\":139:235   */\n      swap2\n      swap1\n      pop\n      jump\t// out\n        /* \"#utility.yul\":241:359   */\n    tag_85:\n        /* \"#utility.yul\":328:352   */\n      tag_115\n        /* \"#utility.yul\":346:351   */\n      dup2\n        /* \"#utility.yul\":328:352   */\n      tag_84\n      jump\t// in\n    tag_115:\n        /* \"#utility.yul\":323:326   */\n      dup3\n        /* \"#utility.yul\":316:353   */\n      mstore\n        /* \"#utility.yul\":241:359   */\n      pop\n      pop\n      jump\t// out\n        /* \"#utility.yul\":365:587   */\n    tag_14:\n        /* \"#utility.yul\":458:462   */\n      0x00\n        /* \"#utility.yul\":496:498   */\n      0x20\n        /* \"#utility.yul\":485:494   */\n      dup3\n        /* \"#utility.yul\":481:499   */\n      add\n        /* \"#utility.yul\":473:499   */\n      swap1\n      pop\n        /* \"#utility.yul\":509:580   */\n      tag_117\n        /* \"#utility.yul\":577:578   */\n      0x00\n        /* \"#utility.yul\":566:575   */\n      dup4\n        /* \"#utility.yul\":562:579   */\n      add\n        /* \"#utility.yul\":553:559   */\n      dup5\n        /* \"#utility.yul\":509:580   */\n      tag_85\n      jump\t// in\n    tag_117:\n        /* \"#utility.yul\":365:587   */\n      swap3\n      swap2\n      pop\n      pop\n      jump\t// out\n        /* \"#utility.yul\":593:670   */\n    tag_86:\n        /* \"#utility.yul\":630:637   */\n      0x00\n        /* \"#utility.yul\":659:664   */\n      dup2\n        /* \"#utility.yul\":648:664   */\n      swap1\n      pop\n        /* \"#utility.yul\":593:670   */\n      swap2\n      swap1\n      pop\n      jump\t// out\n        /* \"#utility.yul\":676:794   */\n    tag_87:\n        /* \"#utility.yul\":763:787   */\n      tag_120\n        /* \"#utility.yul\":781:786   */\n      dup2\n        /* \"#utility.yul\":763:787   */\n      tag_86\n      jump\t// in\n    tag_120:\n        /* \"#utility.yul\":758:761   */\n      dup3\n        /* \"#utility.yul\":751:788   */\n      mstore\n        /* \"#utility.yul\":676:794   */\n      pop\n      pop\n      jump\t// out\n        /* \"#utility.yul\":800:1022   */\n    tag_22:\n        /* \"#utility.yul\":893:897   */\n      0x00\n        /* \"#utility.yul\":931:933   */\n      0x20\n        /* \"#utility.yul\":920:929   */\n      dup3\n        /* \"#utility.yul\":916:934   */\n      add\n        /* \"#utility.yul\":908:934   */\n      swap1\n      pop\n        /* \"#utility.yul\":944:1015   */\n      tag_122\n        /* \"#utility.yul\":1012:1013   */\n      0x00\n        /* \"#utility.yul\":1001:1010   */\n      dup4\n        /* \"#utility.yul\":997:1014   */\n      add\n        /* \"#utility.yul\":988:994   */\n      dup5\n        /* \"#utility.yul\":944:1015   */\n      tag_87\n      jump\t// in\n    tag_122:\n        /* \"#utility.yul\":800:1022   */\n      swap3\n      swap2\n      pop\n      pop\n      jump\t// out\n        /* \"#utility.yul\":1028:1142   */\n    tag_88:\n        /* \"#utility.yul\":1095:1101   */\n      0x00\n        /* \"#utility.yul\":1129:1134   */\n      dup2\n        /* \"#utility.yul\":1123:1135   */\n      mload\n        /* \"#utility.yul\":1113:1135   */\n      swap1\n      pop\n        /* \"#utility.yul\":1028:1142   */\n      swap2\n      swap1\n      pop\n      jump\t// out\n        /* \"#utility.yul\":1148:1332   */\n    tag_89:\n        /* \"#utility.yul\":1247:1258   */\n      0x00\n        /* \"#utility.yul\":1281:1287   */\n      dup3\n        /* \"#utility.yul\":1276:1279   */\n      dup3\n        /* \"#utility.yul\":1269:1288   */\n      mstore\n        /* \"#utility.yul\":1321:1325   */\n      0x20\n        /* \"#utility.yul\":1316:1319   */\n      dup3\n        /* \"#utility.yul\":1312:1326   */\n      add\n        /* \"#utility.yul\":1297:1326   */\n      swap1\n      pop\n        /* \"#utility.yul\":1148:1332   */\n      swap3\n      swap2\n      pop\n      pop\n      jump\t// out\n        /* \"#utility.yul\":1338:1470   */\n    tag_90:\n        /* \"#utility.yul\":1405:1409   */\n      0x00\n        /* \"#utility.yul\":1428:1431   */\n      dup2\n        /* \"#utility.yul\":1420:1431   */\n      swap1\n      pop\n        /* \"#utility.yul\":1458:1462   */\n      0x20\n        /* \"#utility.yul\":1453:1456   */\n      dup3\n        /* \"#utility.yul\":1449:1463   */\n      add\n        /* \"#utility.yul\":1441:1463   */\n      swap1\n      pop\n        /* \"#utility.yul\":1338:1470   */\n      swap2\n      swap1\n      pop\n      jump\t// out\n        /* \"#utility.yul\":1476:1584   */\n    tag_91:\n        /* \"#utility.yul\":1553:1577   */\n      tag_127\n        /* \"#utility.yul\":1571:1576   */\n      dup2\n        /* \"#utility.yul\":1553:1577   */\n      tag_84\n      jump\t// in\n    tag_127:\n        /* \"#utility.yul\":1548:1551   */\n      dup3\n        /* \"#utility.yul\":1541:1578   */\n      mstore\n        /* \"#utility.yul\":1476:1584   */\n      pop\n      pop\n      jump\t// out\n        /* \"#utility.yul\":1590:1769   */\n    tag_92:\n        /* \"#utility.yul\":1659:1669   */\n      0x00\n        /* \"#utility.yul\":1680:1726   */\n      tag_129\n        /* \"#utility.yul\":1722:1725   */\n      dup4\n        /* \"#utility.yul\":1714:1720   */\n      dup4\n        /* \"#utility.yul\":1680:1726   */\n      tag_91\n      jump\t// in\n    tag_129:\n        /* \"#utility.yul\":1758:1762   */\n      0x20\n        /* \"#utility.yul\":1753:1756   */\n      dup4\n        /* \"#utility.yul\":1749:1763   */\n      add\n        /* \"#utility.yul\":1735:1763   */\n      swap1\n      pop\n        /* \"#utility.yul\":1590:1769   */\n      swap3\n      swap2\n      pop\n      pop\n      jump\t// out\n        /* \"#utility.yul\":1775:1888   */\n    tag_93:\n        /* \"#utility.yul\":1845:1849   */\n      0x00\n        /* \"#utility.yul\":1877:1881   */\n      0x20\n        /* \"#utility.yul\":1872:1875   */\n      dup3\n        /* \"#utility.yul\":1868:1882   */\n      add\n        /* \"#utility.yul\":1860:1882   */\n      swap1\n      pop\n        /* \"#utility.yul\":1775:1888   */\n      swap2\n      swap1\n      pop\n      jump\t// out\n        /* \"#utility.yul\":1924:2656   */\n    tag_94:\n        /* \"#utility.yul\":2043:2046   */\n      0x00\n        /* \"#utility.yul\":2072:2126   */\n      tag_132\n        /* \"#utility.yul\":2120:2125   */\n      dup3\n        /* \"#utility.yul\":2072:2126   */\n      tag_88\n      jump\t// in\n    tag_132:\n        /* \"#utility.yul\":2142:2228   */\n      tag_133\n        /* \"#utility.yul\":2221:2227   */\n      dup2\n        /* \"#utility.yul\":2216:2219   */\n      dup6\n        /* \"#utility.yul\":2142:2228   */\n      tag_89\n      jump\t// in\n    tag_133:\n        /* \"#utility.yul\":2135:2228   */\n      swap4\n      pop\n        /* \"#utility.yul\":2252:2308   */\n      tag_134\n        /* \"#utility.yul\":2302:2307   */\n      dup4\n        /* \"#utility.yul\":2252:2308   */\n      tag_90\n      jump\t// in\n    tag_134:\n        /* \"#utility.yul\":2331:2338   */\n      dup1\n        /* \"#utility.yul\":2362:2363   */\n      0x00\n        /* \"#utility.yul\":2347:2631   */\n    tag_135:\n        /* \"#utility.yul\":2372:2378   */\n      dup4\n        /* \"#utility.yul\":2369:2370   */\n      dup2\n        /* \"#utility.yul\":2366:2379   */\n      lt\n        /* \"#utility.yul\":2347:2631   */\n      iszero\n      tag_137\n      jumpi\n        /* \"#utility.yul\":2448:2454   */\n      dup2\n        /* \"#utility.yul\":2442:2455   */\n      mload\n        /* \"#utility.yul\":2475:2538   */\n      tag_138\n        /* \"#utility.yul\":2534:2537   */\n      dup9\n        /* \"#utility.yul\":2519:2532   */\n      dup3\n        /* \"#utility.yul\":2475:2538   */\n      tag_92\n      jump\t// in\n    tag_138:\n        /* \"#utility.yul\":2468:2538   */\n      swap8\n      pop\n        /* \"#utility.yul\":2561:2621   */\n      tag_139\n        /* \"#utility.yul\":2614:2620   */\n      dup4\n        /* \"#utility.yul\":2561:2621   */\n      tag_93\n      jump\t// in\n    tag_139:\n        /* \"#utility.yul\":2551:2621   */\n      swap3\n      pop\n        /* \"#utility.yul\":2407:2631   */\n      pop\n        /* \"#utility.yul\":2394:2395   */\n      0x01\n        /* \"#utility.yul\":2391:2392   */\n      dup2\n        /* \"#utility.yul\":2387:2396   */\n      add\n        /* \"#utility.yul\":2382:2396   */\n      swap1\n      pop\n        /* \"#utility.yul\":2347:2631   */\n      jump(tag_135)\n    tag_137:\n        /* \"#utility.yul\":2351:2365   */\n      pop\n        /* \"#utility.yul\":2647:2650   */\n      dup6\n        /* \"#utility.yul\":2640:2650   */\n      swap4\n      pop\n        /* \"#utility.yul\":2048:2656   */\n      pop\n      pop\n      pop\n        /* \"#utility.yul\":1924:2656   */\n      swap3\n      swap2\n      pop\n      pop\n      jump\t// out\n        /* \"#utility.yul\":2662:3035   */\n    tag_27:\n        /* \"#utility.yul\":2805:2809   */\n      0x00\n        /* \"#utility.yul\":2843:2845   */\n      0x20\n        /* \"#utility.yul\":2832:2841   */\n      dup3\n        /* \"#utility.yul\":2828:2846   */\n      add\n        /* \"#utility.yul\":2820:2846   */\n      swap1\n      pop\n        /* \"#utility.yul\":2892:2901   */\n      dup2\n        /* \"#utility.yul\":2886:2890   */\n      dup2\n        /* \"#utility.yul\":2882:2902   */\n      sub\n        /* \"#utility.yul\":2878:2879   */\n      0x00\n        /* \"#utility.yul\":2867:2876   */\n      dup4\n        /* \"#utility.yul\":2863:2880   */\n      add\n        /* \"#utility.yul\":2856:2903   */\n      mstore\n        /* \"#utility.yul\":2920:3028   */\n      tag_141\n        /* \"#utility.yul\":3023:3027   */\n      dup2\n        /* \"#utility.yul\":3014:3020   */\n      dup5\n        /* \"#utility.yul\":2920:3028   */\n      tag_94\n      jump\t// in\n    tag_141:\n        /* \"#utility.yul\":2912:3028   */\n      swap1\n      pop\n        /* \"#utility.yul\":2662:3035   */\n      swap3\n      swap2\n      pop\n      pop\n      jump\t// out\n        /* \"#utility.yul\":3122:3239   */\n    tag_96:\n        /* \"#utility.yul\":3231:3232   */\n      0x00\n        /* \"#utility.yul\":3228:3229   */\n      dup1\n        /* \"#utility.yul\":3221:3233   */\n      revert\n        /* \"#utility.yul\":3368:3490   */\n    tag_98:\n        /* \"#utility.yul\":3441:3465   */\n      tag_146\n        /* \"#utility.yul\":3459:3464   */\n      dup2\n        /* \"#utility.yul\":3441:3465   */\n      tag_86\n      jump\t// in\n    tag_146:\n        /* \"#utility.yul\":3434:3439   */\n      dup2\n        /* \"#utility.yul\":3431:3466   */\n      eq\n        /* \"#utility.yul\":3421:3484   */\n      tag_147\n      jumpi\n        /* \"#utility.yul\":3480:3481   */\n      0x00\n        /* \"#utility.yul\":3477:3478   */\n      dup1\n        /* \"#utility.yul\":3470:3482   */\n      revert\n        /* \"#utility.yul\":3421:3484   */\n    tag_147:\n        /* \"#utility.yul\":3368:3490   */\n      pop\n      jump\t// out\n        /* \"#utility.yul\":3496:3635   */\n    tag_99:\n        /* \"#utility.yul\":3542:3547   */\n      0x00\n        /* \"#utility.yul\":3580:3586   */\n      dup2\n        /* \"#utility.yul\":3567:3587   */\n      calldataload\n        /* \"#utility.yul\":3558:3587   */\n      swap1\n      pop\n        /* \"#utility.yul\":3596:3629   */\n      tag_149\n        /* \"#utility.yul\":3623:3628   */\n      dup2\n        /* \"#utility.yul\":3596:3629   */\n      tag_98\n      jump\t// in\n    tag_149:\n        /* \"#utility.yul\":3496:3635   */\n      swap3\n      swap2\n      pop\n      pop\n      jump\t// out\n        /* \"#utility.yul\":3641:3970   */\n    tag_37:\n        /* \"#utility.yul\":3700:3706   */\n      0x00\n        /* \"#utility.yul\":3749:3751   */\n      0x20\n        /* \"#utility.yul\":3737:3746   */\n      dup3\n        /* \"#utility.yul\":3728:3735   */\n      dup5\n        /* \"#utility.yul\":3724:3747   */\n      sub\n        /* \"#utility.yul\":3720:3752   */\n      slt\n        /* \"#utility.yul\":3717:3836   */\n      iszero\n      tag_151\n      jumpi\n        /* \"#utility.yul\":3755:3834   */\n      tag_152\n      tag_96\n      jump\t// in\n    tag_152:\n        /* \"#utility.yul\":3717:3836   */\n    tag_151:\n        /* \"#utility.yul\":3875:3876   */\n      0x00\n        /* \"#utility.yul\":3900:3953   */\n      tag_153\n        /* \"#utility.yul\":3945:3952   */\n      dup5\n        /* \"#utility.yul\":3936:3942   */\n      dup3\n        /* \"#utility.yul\":3925:3934   */\n      dup6\n        /* \"#utility.yul\":3921:3943   */\n      add\n        /* \"#utility.yul\":3900:3953   */\n      tag_99\n      jump\t// in\n    tag_153:\n        /* \"#utility.yul\":3890:3953   */\n      swap2\n      pop\n        /* \"#utility.yul\":3846:3963   */\n      pop\n        /* \"#utility.yul\":3641:3970   */\n      swap3\n      swap2\n      pop\n      pop\n      jump\t// out\n        /* \"#utility.yul\":3976:4156   */\n    tag_100:\n        /* \"#utility.yul\":4024:4101   */\n      0x4e487b7100000000000000000000000000000000000000000000000000000000\n        /* \"#utility.yul\":4021:4022   */\n      0x00\n        /* \"#utility.yul\":4014:4102   */\n      mstore\n        /* \"#utility.yul\":4121:4125   */\n      0x12\n        /* \"#utility.yul\":4118:4119   */\n      0x04\n        /* \"#utility.yul\":4111:4126   */\n      mstore\n        /* \"#utility.yul\":4145:4149   */\n      0x24\n        /* \"#utility.yul\":4142:4143   */\n      0x00\n        /* \"#utility.yul\":4135:4150   */\n      revert\n        /* \"#utility.yul\":4162:4338   */\n    tag_46:\n        /* \"#utility.yul\":4194:4195   */\n      0x00\n        /* \"#utility.yul\":4211:4231   */\n      tag_156\n        /* \"#utility.yul\":4229:4230   */\n      dup3\n        /* \"#utility.yul\":4211:4231   */\n      tag_86\n      jump\t// in\n    tag_156:\n        /* \"#utility.yul\":4206:4231   */\n      swap2\n      pop\n        /* \"#utility.yul\":4245:4265   */\n      tag_157\n        /* \"#utility.yul\":4263:4264   */\n      dup4\n        /* \"#utility.yul\":4245:4265   */\n      tag_86\n      jump\t// in\n    tag_157:\n        /* \"#utility.yul\":4240:4265   */\n      swap3\n      pop\n        /* \"#utility.yul\":4284:4285   */\n      dup3\n        /* \"#utility.yul\":4274:4309   */\n      tag_158\n      jumpi\n        /* \"#utility.yul\":4289:4307   */\n      tag_159\n      tag_100\n      jump\t// in\n    tag_159:\n        /* \"#utility.yul\":4274:4309   */\n    tag_158:\n        /* \"#utility.yul\":4330:4331   */\n      dup3\n        /* \"#utility.yul\":4327:4328   */\n      dup3\n        /* \"#utility.yul\":4323:4332   */\n      mod\n        /* \"#utility.yul\":4318:4332   */\n      swap1\n      pop\n        /* \"#utility.yul\":4162:4338   */\n      swap3\n      swap2\n      pop\n      pop\n      jump\t// out\n        /* \"#utility.yul\":4344:4524   */\n    tag_49:\n        /* \"#utility.yul\":4392:4469   */\n      0x4e487b7100000000000000000000000000000000000000000000000000000000\n        /* \"#utility.yul\":4389:4390   */\n      0x00\n        /* \"#utility.yul\":4382:4470   */\n      mstore\n        /* \"#utility.yul\":4489:4493   */\n      0x32\n        /* \"#utility.yul\":4486:4487   */\n      0x04\n        /* \"#utility.yul\":4479:4494   */\n      mstore\n        /* \"#utility.yul\":4513:4517   */\n      0x24\n        /* \"#utility.yul\":4510:4511   */\n      0x00\n        /* \"#utility.yul\":4503:4518   */\n      revert\n        /* \"#utility.yul\":4530:4710   */\n    tag_57:\n        /* \"#utility.yul\":4578:4655   */\n      0x4e487b7100000000000000000000000000000000000000000000000000000000\n        /* \"#utility.yul\":4575:4576   */\n      0x00\n        /* \"#utility.yul\":4568:4656   */\n      mstore\n        /* \"#utility.yul\":4675:4679   */\n      0x41\n        /* \"#utility.yul\":4672:4673   */\n      0x04\n        /* \"#utility.yul\":4665:4680   */\n      mstore\n        /* \"#utility.yul\":4699:4703   */\n      0x24\n        /* \"#utility.yul\":4696:4697   */\n      0x00\n        /* \"#utility.yul\":4689:4704   */\n      revert\n        /* \"#utility.yul\":4716:4885   */\n    tag_101:\n        /* \"#utility.yul\":4800:4811   */\n      0x00\n        /* \"#utility.yul\":4834:4840   */\n      dup3\n        /* \"#utility.yul\":4829:4832   */\n      dup3\n        /* \"#utility.yul\":4822:4841   */\n      mstore\n        /* \"#utility.yul\":4874:4878   */\n      0x20\n        /* \"#utility.yul\":4869:4872   */\n      dup3\n        /* \"#utility.yul\":4865:4879   */\n      add\n        /* \"#utility.yul\":4850:4879   */\n      swap1\n      pop\n        /* \"#utility.yul\":4716:4885   */\n      swap3\n      swap2\n      pop\n      pop\n      jump\t// out\n        /* \"#utility.yul\":4891:5057   */\n    tag_102:\n        /* \"#utility.yul\":5031:5049   */\n      0x496e636f727265637420616d6f756e7400000000000000000000000000000000\n        /* \"#utility.yul\":5027:5028   */\n      0x00\n        /* \"#utility.yul\":5019:5025   */\n      dup3\n        /* \"#utility.yul\":5015:5029   */\n      add\n        /* \"#utility.yul\":5008:5050   */\n      mstore\n        /* \"#utility.yul\":4891:5057   */\n      pop\n      jump\t// out\n        /* \"#utility.yul\":5063:5429   */\n    tag_103:\n        /* \"#utility.yul\":5205:5208   */\n      0x00\n        /* \"#utility.yul\":5226:5293   */\n      tag_165\n        /* \"#utility.yul\":5290:5292   */\n      0x10\n        /* \"#utility.yul\":5285:5288   */\n      dup4\n        /* \"#utility.yul\":5226:5293   */\n      tag_101\n      jump\t// in\n    tag_165:\n        /* \"#utility.yul\":5219:5293   */\n      swap2\n      pop\n        /* \"#utility.yul\":5302:5395   */\n      tag_166\n        /* \"#utility.yul\":5391:5394   */\n      dup3\n        /* \"#utility.yul\":5302:5395   */\n      tag_102\n      jump\t// in\n    tag_166:\n        /* \"#utility.yul\":5420:5422   */\n      0x20\n        /* \"#utility.yul\":5415:5418   */\n      dup3\n        /* \"#utility.yul\":5411:5423   */\n      add\n        /* \"#utility.yul\":5404:5423   */\n      swap1\n      pop\n        /* \"#utility.yul\":5063:5429   */\n      swap2\n      swap1\n      pop\n      jump\t// out\n        /* \"#utility.yul\":5435:5854   */\n    tag_69:\n        /* \"#utility.yul\":5601:5605   */\n      0x00\n        /* \"#utility.yul\":5639:5641   */\n      0x20\n        /* \"#utility.yul\":5628:5637   */\n      dup3\n        /* \"#utility.yul\":5624:5642   */\n      add\n        /* \"#utility.yul\":5616:5642   */\n      swap1\n      pop\n        /* \"#utility.yul\":5688:5697   */\n      dup2\n        /* \"#utility.yul\":5682:5686   */\n      dup2\n        /* \"#utility.yul\":5678:5698   */\n      sub\n        /* \"#utility.yul\":5674:5675   */\n      0x00\n        /* \"#utility.yul\":5663:5672   */\n      dup4\n        /* \"#utility.yul\":5659:5676   */\n      add\n        /* \"#utility.yul\":5652:5699   */\n      mstore\n        /* \"#utility.yul\":5716:5847   */\n      tag_168\n        /* \"#utility.yul\":5842:5846   */\n      dup2\n        /* \"#utility.yul\":5716:5847   */\n      tag_103\n      jump\t// in\n    tag_168:\n        /* \"#utility.yul\":5708:5847   */\n      swap1\n      pop\n        /* \"#utility.yul\":5435:5854   */\n      swap2\n      swap1\n      pop\n      jump\t// out\n        /* \"#utility.yul\":5860:5939   */\n    tag_104:\n        /* \"#utility.yul\":5899:5906   */\n      0x00\n        /* \"#utility.yul\":5928:5933   */\n      dup2\n        /* \"#utility.yul\":5917:5933   */\n      swap1\n      pop\n        /* \"#utility.yul\":5860:5939   */\n      swap2\n      swap1\n      pop\n      jump\t// out\n        /* \"#utility.yul\":5945:6102   */\n    tag_105:\n        /* \"#utility.yul\":6050:6095   */\n      tag_171\n        /* \"#utility.yul\":6070:6094   */\n      tag_172\n        /* \"#utility.yul\":6088:6093   */\n      dup3\n        /* \"#utility.yul\":6070:6094   */\n      tag_86\n      jump\t// in\n    tag_172:\n        /* \"#utility.yul\":6050:6095   */\n      tag_104\n      jump\t// in\n    tag_171:\n        /* \"#utility.yul\":6045:6048   */\n      dup3\n        /* \"#utility.yul\":6038:6096   */\n      mstore\n        /* \"#utility.yul\":5945:6102   */\n      pop\n      pop\n      jump\t// out\n        /* \"#utility.yul\":6108:6202   */\n    tag_106:\n        /* \"#utility.yul\":6141:6149   */\n      0x00\n        /* \"#utility.yul\":6189:6194   */\n      dup2\n        /* \"#utility.yul\":6185:6187   */\n      0x60\n        /* \"#utility.yul\":6181:6195   */\n      shl\n        /* \"#utility.yul\":6160:6195   */\n      swap1\n      pop\n        /* \"#utility.yul\":6108:6202   */\n      swap2\n      swap1\n      pop\n      jump\t// out\n        /* \"#utility.yul\":6208:6302   */\n    tag_107:\n        /* \"#utility.yul\":6247:6254   */\n      0x00\n        /* \"#utility.yul\":6276:6296   */\n      tag_175\n        /* \"#utility.yul\":6290:6295   */\n      dup3\n        /* \"#utility.yul\":6276:6296   */\n      tag_106\n      jump\t// in\n    tag_175:\n        /* \"#utility.yul\":6265:6296   */\n      swap1\n      pop\n        /* \"#utility.yul\":6208:6302   */\n      swap2\n      swap1\n      pop\n      jump\t// out\n        /* \"#utility.yul\":6308:6408   */\n    tag_108:\n        /* \"#utility.yul\":6347:6354   */\n      0x00\n        /* \"#utility.yul\":6376:6402   */\n      tag_177\n        /* \"#utility.yul\":6396:6401   */\n      dup3\n        /* \"#utility.yul\":6376:6402   */\n      tag_107\n      jump\t// in\n    tag_177:\n        /* \"#utility.yul\":6365:6402   */\n      swap1\n      pop\n        /* \"#utility.yul\":6308:6408   */\n      swap2\n      swap1\n      pop\n      jump\t// out\n        /* \"#utility.yul\":6414:6571   */\n    tag_109:\n        /* \"#utility.yul\":6519:6564   */\n      tag_179\n        /* \"#utility.yul\":6539:6563   */\n      tag_180\n        /* \"#utility.yul\":6557:6562   */\n      dup3\n        /* \"#utility.yul\":6539:6563   */\n      tag_84\n      jump\t// in\n    tag_180:\n        /* \"#utility.yul\":6519:6564   */\n      tag_108\n      jump\t// in\n    tag_179:\n        /* \"#utility.yul\":6514:6517   */\n      dup3\n        /* \"#utility.yul\":6507:6565   */\n      mstore\n        /* \"#utility.yul\":6414:6571   */\n      pop\n      pop\n      jump\t// out\n        /* \"#utility.yul\":6577:7115   */\n    tag_75:\n        /* \"#utility.yul\":6745:6748   */\n      0x00\n        /* \"#utility.yul\":6760:6835   */\n      tag_182\n        /* \"#utility.yul\":6831:6834   */\n      dup3\n        /* \"#utility.yul\":6822:6828   */\n      dup7\n        /* \"#utility.yul\":6760:6835   */\n      tag_105\n      jump\t// in\n    tag_182:\n        /* \"#utility.yul\":6860:6862   */\n      0x20\n        /* \"#utility.yul\":6855:6858   */\n      dup3\n        /* \"#utility.yul\":6851:6863   */\n      add\n        /* \"#utility.yul\":6844:6863   */\n      swap2\n      pop\n        /* \"#utility.yul\":6873:6948   */\n      tag_183\n        /* \"#utility.yul\":6944:6947   */\n      dup3\n        /* \"#utility.yul\":6935:6941   */\n      dup6\n        /* \"#utility.yul\":6873:6948   */\n      tag_109\n      jump\t// in\n    tag_183:\n        /* \"#utility.yul\":6973:6975   */\n      0x14\n        /* \"#utility.yul\":6968:6971   */\n      dup3\n        /* \"#utility.yul\":6964:6976   */\n      add\n        /* \"#utility.yul\":6957:6976   */\n      swap2\n      pop\n        /* \"#utility.yul\":6986:7061   */\n      tag_184\n        /* \"#utility.yul\":7057:7060   */\n      dup3\n        /* \"#utility.yul\":7048:7054   */\n      dup5\n        /* \"#utility.yul\":6986:7061   */\n      tag_105\n      jump\t// in\n    tag_184:\n        /* \"#utility.yul\":7086:7088   */\n      0x20\n        /* \"#utility.yul\":7081:7084   */\n      dup3\n        /* \"#utility.yul\":7077:7089   */\n      add\n        /* \"#utility.yul\":7070:7089   */\n      swap2\n      pop\n        /* \"#utility.yul\":7106:7109   */\n      dup2\n        /* \"#utility.yul\":7099:7109   */\n      swap1\n      pop\n        /* \"#utility.yul\":6577:7115   */\n      swap5\n      swap4\n      pop\n      pop\n      pop\n      pop\n      jump\t// out\n\n    auxdata: 0xa26469706673582212205299d94eb97b49115e3b73d555b55936ec149ece179b555c148249a11299be9364736f6c63430008190033\n}\n",
				"bytecode": {
					"linkReferences": {},
					"object": "6080604052604051610a41380380610a4183398181016040528101906023919060a7565b3360025f6101000a81548173ffffffffffffffffffffffffffffffffffffffff021916908373ffffffffffffffffffffffffffffffffffffffff160217905550345f81905550806001819055505060cd565b5f80fd5b5f819050919050565b6089816079565b81146092575f80fd5b50565b5f8151905060a1816082565b92915050565b5f6020828403121560b95760b86075565b5b5f60c4848285016095565b91505092915050565b610967806100da5f395ff3fe60806040526004361061006f575f3560e01c80638b5b9ccc1161004d5780638b5b9ccc146100dd578063adeaa85114610107578063e97dcb6214610131578063f71d96cb1461013b5761006f565b8063481c6a75146100735780635d495aea1461009d57806387bb7ae0146100b3575b5f80fd5b34801561007e575f80fd5b50610087610177565b60405161009491906105e7565b60405180910390f35b3480156100a8575f80fd5b506100b161019c565b005b3480156100be575f80fd5b506100c7610356565b6040516100d49190610618565b60405180910390f35b3480156100e8575f80fd5b506100f161035f565b6040516100fe91906106e8565b60405180910390f35b348015610112575f80fd5b5061011b6103ea565b6040516101289190610618565b60405180910390f35b6101396103f2565b005b348015610146575f80fd5b50610161600480360381019061015c9190610736565b610498565b60405161016e91906105e7565b60405180910390f35b60025f9054906101000a900473ffffffffffffffffffffffffffffffffffffffff1681565b60025f9054906101000a900473ffffffffffffffffffffffffffffffffffffffff1673ffffffffffffffffffffffffffffffffffffffff163373ffffffffffffffffffffffffffffffffffffffff16146101f4575f80fd5b5f6003805490506102036104d3565b61020d919061078e565b905060038181548110610223576102226107be565b5b905f5260205f20015f9054906101000a900473ffffffffffffffffffffffffffffffffffffffff1673ffffffffffffffffffffffffffffffffffffffff166108fc5f5490811502906040515f60405180830381858888f1935050505015801561028e573d5f803e3d5ffd5b5060025f9054906101000a900473ffffffffffffffffffffffffffffffffffffffff1673ffffffffffffffffffffffffffffffffffffffff166108fc4790811502906040515f60405180830381858888f193505050501580156102f3573d5f803e3d5ffd5b505f67ffffffffffffffff81111561030e5761030d6107eb565b5b60405190808252806020026020018201604052801561033c5781602001602082028036833780820191505090505b5060039080519060200190610352929190610506565b5050565b5f600154905090565b606060038054806020026020016040519081016040528092919081815260200182805480156103e057602002820191905f5260205f20905b815f9054906101000a900473ffffffffffffffffffffffffffffffffffffffff1673ffffffffffffffffffffffffffffffffffffffff1681526020019060010190808311610397575b5050505050905090565b5f8054905090565b6001543414610436576040517f08c379a000000000000000000000000000000000000000000000000000000000815260040161042d90610872565b60405180910390fd5b600333908060018154018082558091505060019003905f5260205f20015f9091909190916101000a81548173ffffffffffffffffffffffffffffffffffffffff021916908373ffffffffffffffffffffffffffffffffffffffff160217905550565b600381815481106104a7575f80fd5b905f5260205f20015f915054906101000a900473ffffffffffffffffffffffffffffffffffffffff1681565b5f4233436040516020016104e9939291906108f5565b604051602081830303815290604052805190602001205f1c905090565b828054828255905f5260205f2090810192821561057c579160200282015b8281111561057b578251825f6101000a81548173ffffffffffffffffffffffffffffffffffffffff021916908373ffffffffffffffffffffffffffffffffffffffff16021790555091602001919060010190610524565b5b509050610589919061058d565b5090565b5b808211156105a4575f815f90555060010161058e565b5090565b5f73ffffffffffffffffffffffffffffffffffffffff82169050919050565b5f6105d1826105a8565b9050919050565b6105e1816105c7565b82525050565b5f6020820190506105fa5f8301846105d8565b92915050565b5f819050919050565b61061281610600565b82525050565b5f60208201905061062b5f830184610609565b92915050565b5f81519050919050565b5f82825260208201905092915050565b5f819050602082019050919050565b610663816105c7565b82525050565b5f610674838361065a565b60208301905092915050565b5f602082019050919050565b5f61069682610631565b6106a0818561063b565b93506106ab8361064b565b805f5b838110156106db5781516106c28882610669565b97506106cd83610680565b9250506001810190506106ae565b5085935050505092915050565b5f6020820190508181035f830152610700818461068c565b905092915050565b5f80fd5b61071581610600565b811461071f575f80fd5b50565b5f813590506107308161070c565b92915050565b5f6020828403121561074b5761074a610708565b5b5f61075884828501610722565b91505092915050565b7f4e487b71000000000000000000000000000000000000000000000000000000005f52601260045260245ffd5b5f61079882610600565b91506107a383610600565b9250826107b3576107b2610761565b5b828206905092915050565b7f4e487b71000000000000000000000000000000000000000000000000000000005f52603260045260245ffd5b7f4e487b71000000000000000000000000000000000000000000000000000000005f52604160045260245ffd5b5f82825260208201905092915050565b7f496e636f727265637420616d6f756e74000000000000000000000000000000005f82015250565b5f61085c601083610818565b915061086782610828565b602082019050919050565b5f6020820190508181035f83015261088981610850565b9050919050565b5f819050919050565b6108aa6108a582610600565b610890565b82525050565b5f8160601b9050919050565b5f6108c6826108b0565b9050919050565b5f6108d7826108bc565b9050919050565b6108ef6108ea826105c7565b6108cd565b82525050565b5f6109008286610899565b60208201915061091082856108de565b6014820191506109208284610899565b60208201915081905094935050505056fea26469706673582212205299d94eb97b49115e3b73d555b55936ec149ece179b555c148249a11299be9364736f6c63430008190033",
					"opcodes": "PUSH1 0x80 PUSH1 0x40 MSTORE PUSH1 0x40 MLOAD PUSH2 0xA41 CODESIZE SUB DUP1 PUSH2 0xA41 DUP4 CODECOPY DUP2 DUP2 ADD PUSH1 0x40 MSTORE DUP2 ADD SWAP1 PUSH1 0x23 SWAP2 SWAP1 PUSH1 0xA7 JUMP JUMPDEST CALLER PUSH1 0x2 PUSH0 PUSH2 0x100 EXP DUP2 SLOAD DUP2 PUSH20 0xFFFFFFFFFFFFFFFFFFFFFFFFFFFFFFFFFFFFFFFF MUL NOT AND SWAP1 DUP4 PUSH20 0xFFFFFFFFFFFFFFFFFFFFFFFFFFFFFFFFFFFFFFFF AND MUL OR SWAP1 SSTORE POP CALLVALUE PUSH0 DUP2 SWAP1 SSTORE POP DUP1 PUSH1 0x1 DUP2 SWAP1 SSTORE POP POP PUSH1 0xCD JUMP JUMPDEST PUSH0 DUP1 REVERT JUMPDEST PUSH0 DUP2 SWAP1 POP SWAP2 SWAP1 POP JUMP JUMPDEST PUSH1 0x89 DUP2 PUSH1 0x79 JUMP JUMPDEST DUP2 EQ PUSH1 0x92 JUMPI PUSH0 DUP1 REVERT JUMPDEST POP JUMP JUMPDEST PUSH0 DUP2 MLOAD SWAP1 POP PUSH1 0xA1 DUP2 PUSH1 0x82 JUMP JUMPDEST SWAP3 SWAP2 POP POP JUMP JUMPDEST PUSH0 PUSH1 0x20 DUP3 DUP5 SUB SLT ISZERO PUSH1 0xB9 JUMPI PUSH1 0xB8 PUSH1 0x75 JUMP JUMPDEST JUMPDEST PUSH0 PUSH1 0xC4 DUP5 DUP3 DUP6 ADD PUSH1 0x95 JUMP JUMPDEST SWAP2 POP POP SWAP3 SWAP2 POP POP JUMP JUMPDEST PUSH2 0x967 DUP1 PUSH2 0xDA PUSH0 CODECOPY PUSH0 RETURN INVALID PUSH1 0x80 PUSH1 0x40 MSTORE PUSH1 0x4 CALLDATASIZE LT PUSH2 0x6F JUMPI PUSH0 CALLDATALOAD PUSH1 0xE0 SHR DUP1 PUSH4 0x8B5B9CCC GT PUSH2 0x4D JUMPI DUP1 PUSH4 0x8B5B9CCC EQ PUSH2 0xDD JUMPI DUP1 PUSH4 0xADEAA851 EQ PUSH2 0x107 JUMPI DUP1 PUSH4 0xE97DCB62 EQ PUSH2 0x131 JUMPI DUP1 PUSH4 0xF71D96CB EQ PUSH2 0x13B JUMPI PUSH2 0x6F JUMP JUMPDEST DUP1 PUSH4 0x481C6A75 EQ PUSH2 0x73 JUMPI DUP1 PUSH4 0x5D495AEA EQ PUSH2 0x9D JUMPI DUP1 PUSH4 0x87BB7AE0 EQ PUSH2 0xB3 JUMPI JUMPDEST PUSH0 DUP1 REVERT JUMPDEST CALLVALUE DUP1 ISZERO PUSH2 0x7E JUMPI PUSH0 DUP1 REVERT JUMPDEST POP PUSH2 0x87 PUSH2 0x177 JUMP JUMPDEST PUSH1 0x40 MLOAD PUSH2 0x94 SWAP2 SWAP1 PUSH2 0x5E7 JUMP JUMPDEST PUSH1 0x40 MLOAD DUP1 SWAP2 SUB SWAP1 RETURN JUMPDEST CALLVALUE DUP1 ISZERO PUSH2 0xA8 JUMPI PUSH0 DUP1 REVERT JUMPDEST POP PUSH2 0xB1 PUSH2 0x19C JUMP JUMPDEST STOP JUMPDEST CALLVALUE DUP1 ISZERO PUSH2 0xBE JUMPI PUSH0 DUP1 REVERT JUMPDEST POP PUSH2 0xC7 PUSH2 0x356 JUMP JUMPDEST PUSH1 0x40 MLOAD PUSH2 0xD4 SWAP2 SWAP1 PUSH2 0x618 JUMP JUMPDEST PUSH1 0x40 MLOAD DUP1 SWAP2 SUB SWAP1 RETURN JUMPDEST CALLVALUE DUP1 ISZERO PUSH2 0xE8 JUMPI PUSH0 DUP1 REVERT JUMPDEST POP PUSH2 0xF1 PUSH2 0x35F JUMP JUMPDEST PUSH1 0x40 MLOAD PUSH2 0xFE SWAP2 SWAP1 PUSH2 0x6E8 JUMP JUMPDEST PUSH1 0x40 MLOAD DUP1 SWAP2 SUB SWAP1 RETURN JUMPDEST CALLVALUE DUP1 ISZERO PUSH2 0x112 JUMPI PUSH0 DUP1 REVERT JUMPDEST POP PUSH2 0x11B PUSH2 0x3EA JUMP JUMPDEST PUSH1 0x40 MLOAD PUSH2 0x128 SWAP2 SWAP1 PUSH2 0x618 JUMP JUMPDEST PUSH1 0x40 MLOAD DUP1 SWAP2 SUB SWAP1 RETURN JUMPDEST PUSH2 0x139 PUSH2 0x3F2 JUMP JUMPDEST STOP JUMPDEST CALLVALUE DUP1 ISZERO PUSH2 0x146 JUMPI PUSH0 DUP1 REVERT JUMPDEST POP PUSH2 0x161 PUSH1 0x4 DUP1 CALLDATASIZE SUB DUP2 ADD SWAP1 PUSH2 0x15C SWAP2 SWAP1 PUSH2 0x736 JUMP JUMPDEST PUSH2 0x498 JUMP JUMPDEST PUSH1 0x40 MLOAD PUSH2 0x16E SWAP2 SWAP1 PUSH2 0x5E7 JUMP JUMPDEST PUSH1 0x40 MLOAD DUP1 SWAP2 SUB SWAP1 RETURN JUMPDEST PUSH1 0x2 PUSH0 SWAP1 SLOAD SWAP1 PUSH2 0x100 EXP SWAP1 DIV PUSH20 0xFFFFFFFFFFFFFFFFFFFFFFFFFFFFFFFFFFFFFFFF AND DUP2 JUMP JUMPDEST PUSH1 0x2 PUSH0 SWAP1 SLOAD SWAP1 PUSH2 0x100 EXP SWAP1 DIV PUSH20 0xFFFFFFFFFFFFFFFFFFFFFFFFFFFFFFFFFFFFFFFF AND PUSH20 0xFFFFFFFFFFFFFFFFFFFFFFFFFFFFFFFFFFFFFFFF AND CALLER PUSH20 0xFFFFFFFFFFFFFFFFFFFFFFFFFFFFFFFFFFFFFFFF AND EQ PUSH2 0x1F4 JUMPI PUSH0 DUP1 REVERT JUMPDEST PUSH0 PUSH1 0x3 DUP1 SLOAD SWAP1 POP PUSH2 0x203 PUSH2 0x4D3 JUMP JUMPDEST PUSH2 0x20D SWAP2 SWAP1 PUSH2 0x78E JUMP JUMPDEST SWAP1 POP PUSH1 0x3 DUP2 DUP2 SLOAD DUP2 LT PUSH2 0x223 JUMPI PUSH2 0x222 PUSH2 0x7BE JUMP JUMPDEST JUMPDEST SWAP1 PUSH0 MSTORE PUSH1 0x20 PUSH0 KECCAK256 ADD PUSH0 SWAP1 SLOAD SWAP1 PUSH2 0x100 EXP SWAP1 DIV PUSH20 0xFFFFFFFFFFFFFFFFFFFFFFFFFFFFFFFFFFFFFFFF AND PUSH20 0xFFFFFFFFFFFFFFFFFFFFFFFFFFFFFFFFFFFFFFFF AND PUSH2 0x8FC PUSH0 SLOAD SWAP1 DUP2 ISZERO MUL SWAP1 PUSH1 0x40 MLOAD PUSH0 PUSH1 0x40 MLOAD DUP1 DUP4 SUB DUP2 DUP6 DUP9 DUP9 CALL SWAP4 POP POP POP POP ISZERO DUP1 ISZERO PUSH2 0x28E JUMPI RETURNDATASIZE PUSH0 DUP1 RETURNDATACOPY RETURNDATASIZE PUSH0 REVERT JUMPDEST POP PUSH1 0x2 PUSH0 SWAP1 SLOAD SWAP1 PUSH2 0x100 EXP SWAP1 DIV PUSH20 0xFFFFFFFFFFFFFFFFFFFFFFFFFFFFFFFFFFFFFFFF AND PUSH20 0xFFFFFFFFFFFFFFFFFFFFFFFFFFFFFFFFFFFFFFFF AND PUSH2 0x8FC SELFBALANCE SWAP1 DUP2 ISZERO MUL SWAP1 PUSH1 0x40 MLOAD PUSH0 PUSH1 0x40 MLOAD DUP1 DUP4 SUB DUP2 DUP6 DUP9 DUP9 CALL SWAP4 POP POP POP POP ISZERO DUP1 ISZERO PUSH2 0x2F3 JUMPI RETURNDATASIZE PUSH0 DUP1 RETURNDATACOPY RETURNDATASIZE PUSH0 REVERT JUMPDEST POP PUSH0 PUSH8 0xFFFFFFFFFFFFFFFF DUP2 GT ISZERO PUSH2 0x30E JUMPI PUSH2 0x30D PUSH2 0x7EB JUMP JUMPDEST JUMPDEST PUSH1 0x40 MLOAD SWAP1 DUP1 DUP3 MSTORE DUP1 PUSH1 0x20 MUL PUSH1 0x20 ADD DUP3 ADD PUSH1 0x40 MSTORE DUP1 ISZERO PUSH2 0x33C JUMPI DUP2 PUSH1 0x20 ADD PUSH1 0x20 DUP3 MUL DUP1 CALLDATASIZE DUP4 CALLDATACOPY DUP1 DUP3 ADD SWAP2 POP POP SWAP1 POP JUMPDEST POP PUSH1 0x3 SWAP1 DUP1 MLOAD SWAP1 PUSH1 0x20 ADD SWAP1 PUSH2 0x352 SWAP3 SWAP2 SWAP1 PUSH2 0x506 JUMP JUMPDEST POP POP JUMP JUMPDEST PUSH0 PUSH1 0x1 SLOAD SWAP1 POP SWAP1 JUMP JUMPDEST PUSH1 0x60 PUSH1 0x3 DUP1 SLOAD DUP1 PUSH1 0x20 MUL PUSH1 0x20 ADD PUSH1 0x40 MLOAD SWAP1 DUP2 ADD PUSH1 0x40 MSTORE DUP1 SWAP3 SWAP2 SWAP1 DUP2 DUP2 MSTORE PUSH1 0x20 ADD DUP3 DUP1 SLOAD DUP1 ISZERO PUSH2 0x3E0 JUMPI PUSH1 0x20 MUL DUP3 ADD SWAP2 SWAP1 PUSH0 MSTORE PUSH1 0x20 PUSH0 KECCAK256 SWAP1 JUMPDEST DUP2 PUSH0 SWAP1 SLOAD SWAP1 PUSH2 0x100 EXP SWAP1 DIV PUSH20 0xFFFFFFFFFFFFFFFFFFFFFFFFFFFFFFFFFFFFFFFF AND PUSH20 0xFFFFFFFFFFFFFFFFFFFFFFFFFFFFFFFFFFFFFFFF AND DUP2 MSTORE PUSH1 0x20 ADD SWAP1 PUSH1 0x1 ADD SWAP1 DUP1 DUP4 GT PUSH2 0x397 JUMPI JUMPDEST POP POP POP POP POP SWAP1 POP SWAP1 JUMP JUMPDEST PUSH0 DUP1 SLOAD SWAP1 POP SWAP1 JUMP JUMPDEST PUSH1 0x1 SLOAD CALLVALUE EQ PUSH2 0x436 JUMPI PUSH1 0x40 MLOAD PUSH32 0x8C379A000000000000000000000000000000000000000000000000000000000 DUP2 MSTORE PUSH1 0x4 ADD PUSH2 0x42D SWAP1 PUSH2 0x872 JUMP JUMPDEST PUSH1 0x40 MLOAD DUP1 SWAP2 SUB SWAP1 REVERT JUMPDEST PUSH1 0x3 CALLER SWAP1 DUP1 PUSH1 0x1 DUP2 SLOAD ADD DUP1 DUP3 SSTORE DUP1 SWAP2 POP POP PUSH1 0x1 SWAP1 SUB SWAP1 PUSH0 MSTORE PUSH1 0x20 PUSH0 KECCAK256 ADD PUSH0 SWAP1 SWAP2 SWAP1 SWAP2 SWAP1 SWAP2 PUSH2 0x100 EXP DUP2 SLOAD DUP2 PUSH20 0xFFFFFFFFFFFFFFFFFFFFFFFFFFFFFFFFFFFFFFFF MUL NOT AND SWAP1 DUP4 PUSH20 0xFFFFFFFFFFFFFFFFFFFFFFFFFFFFFFFFFFFFFFFF AND MUL OR SWAP1 SSTORE POP JUMP JUMPDEST PUSH1 0x3 DUP2 DUP2 SLOAD DUP2 LT PUSH2 0x4A7 JUMPI PUSH0 DUP1 REVERT JUMPDEST SWAP1 PUSH0 MSTORE PUSH1 0x20 PUSH0 KECCAK256 ADD PUSH0 SWAP2 POP SLOAD SWAP1 PUSH2 0x100 EXP SWAP1 DIV PUSH20 0xFFFFFFFFFFFFFFFFFFFFFFFFFFFFFFFFFFFFFFFF AND DUP2 JUMP JUMPDEST PUSH0 TIMESTAMP CALLER NUMBER PUSH1 0x40 MLOAD PUSH1 0x20 ADD PUSH2 0x4E9 SWAP4 SWAP3 SWAP2 SWAP1 PUSH2 0x8F5 JUMP JUMPDEST PUSH1 0x40 MLOAD PUSH1 0x20 DUP2 DUP4 SUB SUB DUP2 MSTORE SWAP1 PUSH1 0x40 MSTORE DUP1 MLOAD SWAP1 PUSH1 0x20 ADD KECCAK256 PUSH0 SHR SWAP1 POP SWAP1 JUMP JUMPDEST DUP3 DUP1 SLOAD DUP3 DUP3 SSTORE SWAP1 PUSH0 MSTORE PUSH1 0x20 PUSH0 KECCAK256 SWAP1 DUP2 ADD SWAP3 DUP3 ISZERO PUSH2 0x57C JUMPI SWAP2 PUSH1 0x20 MUL DUP3 ADD JUMPDEST DUP3 DUP2 GT ISZERO PUSH2 0x57B JUMPI DUP3 MLOAD DUP3 PUSH0 PUSH2 0x100 EXP DUP2 SLOAD DUP2 PUSH20 0xFFFFFFFFFFFFFFFFFFFFFFFFFFFFFFFFFFFFFFFF MUL NOT AND SWAP1 DUP4 PUSH20 0xFFFFFFFFFFFFFFFFFFFFFFFFFFFFFFFFFFFFFFFF AND MUL OR SWAP1 SSTORE POP SWAP2 PUSH1 0x20 ADD SWAP2 SWAP1 PUSH1 0x1 ADD SWAP1 PUSH2 0x524 JUMP JUMPDEST JUMPDEST POP SWAP1 POP PUSH2 0x589 SWAP2 SWAP1 PUSH2 0x58D JUMP JUMPDEST POP SWAP1 JUMP JUMPDEST JUMPDEST DUP1 DUP3 GT ISZERO PUSH2 0x5A4 JUMPI PUSH0 DUP2 PUSH0 SWAP1 SSTORE POP PUSH1 0x1 ADD PUSH2 0x58E JUMP JUMPDEST POP SWAP1 JUMP JUMPDEST PUSH0 PUSH20 0xFFFFFFFFFFFFFFFFFFFFFFFFFFFFFFFFFFFFFFFF DUP3 AND SWAP1 POP SWAP2 SWAP1 POP JUMP JUMPDEST PUSH0 PUSH2 0x5D1 DUP3 PUSH2 0x5A8 JUMP JUMPDEST SWAP1 POP SWAP2 SWAP1 POP JUMP JUMPDEST PUSH2 0x5E1 DUP2 PUSH2 0x5C7 JUMP JUMPDEST DUP3 MSTORE POP POP JUMP JUMPDEST PUSH0 PUSH1 0x20 DUP3 ADD SWAP1 POP PUSH2 0x5FA PUSH0 DUP4 ADD DUP5 PUSH2 0x5D8 JUMP JUMPDEST SWAP3 SWAP2 POP POP JUMP JUMPDEST PUSH0 DUP2 SWAP1 POP SWAP2 SWAP1 POP JUMP JUMPDEST PUSH2 0x612 DUP2 PUSH2 0x600 JUMP JUMPDEST DUP3 MSTORE POP POP JUMP JUMPDEST PUSH0 PUSH1 0x20 DUP3 ADD SWAP1 POP PUSH2 0x62B PUSH0 DUP4 ADD DUP5 PUSH2 0x609 JUMP JUMPDEST SWAP3 SWAP2 POP POP JUMP JUMPDEST PUSH0 DUP2 MLOAD SWAP1 POP SWAP2 SWAP1 POP JUMP JUMPDEST PUSH0 DUP3 DUP3 MSTORE PUSH1 0x20 DUP3 ADD SWAP1 POP SWAP3 SWAP2 POP POP JUMP JUMPDEST PUSH0 DUP2 SWAP1 POP PUSH1 0x20 DUP3 ADD SWAP1 POP SWAP2 SWAP1 POP JUMP JUMPDEST PUSH2 0x663 DUP2 PUSH2 0x5C7 JUMP JUMPDEST DUP3 MSTORE POP POP JUMP JUMPDEST PUSH0 PUSH2 0x674 DUP4 DUP4 PUSH2 0x65A JUMP JUMPDEST PUSH1 0x20 DUP4 ADD SWAP1 POP SWAP3 SWAP2 POP POP JUMP JUMPDEST PUSH0 PUSH1 0x20 DUP3 ADD SWAP1 POP SWAP2 SWAP1 POP JUMP JUMPDEST PUSH0 PUSH2 0x696 DUP3 PUSH2 0x631 JUMP JUMPDEST PUSH2 0x6A0 DUP2 DUP6 PUSH2 0x63B JUMP JUMPDEST SWAP4 POP PUSH2 0x6AB DUP4 PUSH2 0x64B JUMP JUMPDEST DUP1 PUSH0 JUMPDEST DUP4 DUP2 LT ISZERO PUSH2 0x6DB JUMPI DUP2 MLOAD PUSH2 0x6C2 DUP9 DUP3 PUSH2 0x669 JUMP JUMPDEST SWAP8 POP PUSH2 0x6CD DUP4 PUSH2 0x680 JUMP JUMPDEST SWAP3 POP POP PUSH1 0x1 DUP2 ADD SWAP1 POP PUSH2 0x6AE JUMP JUMPDEST POP DUP6 SWAP4 POP POP POP POP SWAP3 SWAP2 POP POP JUMP JUMPDEST PUSH0 PUSH1 0x20 DUP3 ADD SWAP1 POP DUP2 DUP2 SUB PUSH0 DUP4 ADD MSTORE PUSH2 0x700 DUP2 DUP5 PUSH2 0x68C JUMP JUMPDEST SWAP1 POP SWAP3 SWAP2 POP POP JUMP JUMPDEST PUSH0 DUP1 REVERT JUMPDEST PUSH2 0x715 DUP2 PUSH2 0x600 JUMP JUMPDEST DUP2 EQ PUSH2 0x71F JUMPI PUSH0 DUP1 REVERT JUMPDEST POP JUMP JUMPDEST PUSH0 DUP2 CALLDATALOAD SWAP1 POP PUSH2 0x730 DUP2 PUSH2 0x70C JUMP JUMPDEST SWAP3 SWAP2 POP POP JUMP JUMPDEST PUSH0 PUSH1 0x20 DUP3 DUP5 SUB SLT ISZERO PUSH2 0x74B JUMPI PUSH2 0x74A PUSH2 0x708 JUMP JUMPDEST JUMPDEST PUSH0 PUSH2 0x758 DUP5 DUP3 DUP6 ADD PUSH2 0x722 JUMP JUMPDEST SWAP2 POP POP SWAP3 SWAP2 POP POP JUMP JUMPDEST PUSH32 0x4E487B7100000000000000000000000000000000000000000000000000000000 PUSH0 MSTORE PUSH1 0x12 PUSH1 0x4 MSTORE PUSH1 0x24 PUSH0 REVERT JUMPDEST PUSH0 PUSH2 0x798 DUP3 PUSH2 0x600 JUMP JUMPDEST SWAP2 POP PUSH2 0x7A3 DUP4 PUSH2 0x600 JUMP JUMPDEST SWAP3 POP DUP3 PUSH2 0x7B3 JUMPI PUSH2 0x7B2 PUSH2 0x761 JUMP JUMPDEST JUMPDEST DUP3 DUP3 MOD SWAP1 POP SWAP3 SWAP2 POP POP JUMP JUMPDEST PUSH32 0x4E487B7100000000000000000000000000000000000000000000000000000000 PUSH0 MSTORE PUSH1 0x32 PUSH1 0x4 MSTORE PUSH1 0x24 PUSH0 REVERT JUMPDEST PUSH32 0x4E487B7100000000000000000000000000000000000000000000000000000000 PUSH0 MSTORE PUSH1 0x41 PUSH1 0x4 MSTORE PUSH1 0x24 PUSH0 REVERT JUMPDEST PUSH0 DUP3 DUP3 MSTORE PUSH1 0x20 DUP3 ADD SWAP1 POP SWAP3 SWAP2 POP POP JUMP JUMPDEST PUSH32 0x496E636F727265637420616D6F756E7400000000000000000000000000000000 PUSH0 DUP3 ADD MSTORE POP JUMP JUMPDEST PUSH0 PUSH2 0x85C PUSH1 0x10 DUP4 PUSH2 0x818 JUMP JUMPDEST SWAP2 POP PUSH2 0x867 DUP3 PUSH2 0x828 JUMP JUMPDEST PUSH1 0x20 DUP3 ADD SWAP1 POP SWAP2 SWAP1 POP JUMP JUMPDEST PUSH0 PUSH1 0x20 DUP3 ADD SWAP1 POP DUP2 DUP2 SUB PUSH0 DUP4 ADD MSTORE PUSH2 0x889 DUP2 PUSH2 0x850 JUMP JUMPDEST SWAP1 POP SWAP2 SWAP1 POP JUMP JUMPDEST PUSH0 DUP2 SWAP1 POP SWAP2 SWAP1 POP JUMP JUMPDEST PUSH2 0x8AA PUSH2 0x8A5 DUP3 PUSH2 0x600 JUMP JUMPDEST PUSH2 0x890 JUMP JUMPDEST DUP3 MSTORE POP POP JUMP JUMPDEST PUSH0 DUP2 PUSH1 0x60 SHL SWAP1 POP SWAP2 SWAP1 POP JUMP JUMPDEST PUSH0 PUSH2 0x8C6 DUP3 PUSH2 0x8B0 JUMP JUMPDEST SWAP1 POP SWAP2 SWAP1 POP JUMP JUMPDEST PUSH0 PUSH2 0x8D7 DUP3 PUSH2 0x8BC JUMP JUMPDEST SWAP1 POP SWAP2 SWAP1 POP JUMP JUMPDEST PUSH2 0x8EF PUSH2 0x8EA DUP3 PUSH2 0x5C7 JUMP JUMPDEST PUSH2 0x8CD JUMP JUMPDEST DUP3 MSTORE POP POP JUMP JUMPDEST PUSH0 PUSH2 0x900 DUP3 DUP7 PUSH2 0x899 JUMP JUMPDEST PUSH1 0x20 DUP3 ADD SWAP2 POP PUSH2 0x910 DUP3 DUP6 PUSH2 0x8DE JUMP JUMPDEST PUSH1 0x14 DUP3 ADD SWAP2 POP PUSH2 0x920 DUP3 DUP5 PUSH2 0x899 JUMP JUMPDEST PUSH1 0x20 DUP3 ADD SWAP2 POP DUP2 SWAP1 POP SWAP5 SWAP4 POP POP POP POP JUMP INVALID LOG2 PUSH5 0x6970667358 0x22 SLT KECCAK256 MSTORE SWAP10 0xD9 0x4E 0xB9 PUSH28 0x49115E3B73D555B55936EC149ECE179B555C148249A11299BE936473 PUSH16 0x6C634300081900330000000000000000 "
				},
				"gasEstimates": {
					"creation": {
						"codeDepositCost": "481400",
						"executionCost": "infinite",
						"totalCost": "infinite"
					},
					"external": {
						"enter()": "50860",
						"getPlayers()": "infinite",
						"getTicketPrice()": "2477",
						"getTotalPrize()": "2454",
						"manager()": "2509",
						"pickWinner()": "infinite",
						"players(uint256)": "5010"
					},
					"internal": {
						"random()": "infinite"
					}
				},
				"methodIdentifiers": {
					"enter()": "e97dcb62",
					"getPlayers()": "8b5b9ccc",
					"getTicketPrice()": "87bb7ae0",
					"getTotalPrize()": "adeaa851",
					"manager()": "481c6a75",
					"pickWinner()": "5d495aea",
					"players(uint256)": "f71d96cb"
				}
			},
			"storageLayout": {
				"storage": [
					{
						"astId": 3,
						"contract": "contracts/lottery.sol:Lottery",
						"label": "totalPrize",
						"offset": 0,
						"slot": "0",
						"type": "t_uint256"
					},
					{
						"astId": 5,
						"contract": "contracts/lottery.sol:Lottery",
						"label": "ticketPrice",
						"offset": 0,
						"slot": "1",
						"type": "t_uint256"
					},
					{
						"astId": 7,
						"contract": "contracts/lottery.sol:Lottery",
						"label": "manager",
						"offset": 0,
						"slot": "2",
						"type": "t_address"
					},
					{
						"astId": 10,
						"contract": "contracts/lottery.sol:Lottery",
						"label": "players",
						"offset": 0,
						"slot": "3",
						"type": "t_array(t_address)dyn_storage"
					}
				],
				"types": {
					"t_address": {
						"encoding": "inplace",
						"label": "address",
						"numberOfBytes": "20"
					},
					"t_array(t_address)dyn_storage": {
						"base": "t_address",
						"encoding": "dynamic_array",
						"label": "address[]",
						"numberOfBytes": "32"
					},
					"t_uint256": {
						"encoding": "inplace",
						"label": "uint256",
						"numberOfBytes": "32"
					}
				}
			},
			"userdoc": {
				"kind": "user",
				"methods": {},
				"version": 1
			}
		}
	}
}